{
  "contractName": "CatLoot",
  "abi": [
    {
      "inputs": [],
      "stateMutability": "nonpayable",
      "type": "constructor"
    },
    {
      "anonymous": false,
      "inputs": [
        {
          "indexed": true,
          "internalType": "address",
          "name": "owner",
          "type": "address"
        },
        {
          "indexed": true,
          "internalType": "address",
          "name": "approved",
          "type": "address"
        },
        {
          "indexed": true,
          "internalType": "uint256",
          "name": "tokenId",
          "type": "uint256"
        }
      ],
      "name": "Approval",
      "type": "event"
    },
    {
      "anonymous": false,
      "inputs": [
        {
          "indexed": true,
          "internalType": "address",
          "name": "owner",
          "type": "address"
        },
        {
          "indexed": true,
          "internalType": "address",
          "name": "operator",
          "type": "address"
        },
        {
          "indexed": false,
          "internalType": "bool",
          "name": "approved",
          "type": "bool"
        }
      ],
      "name": "ApprovalForAll",
      "type": "event"
    },
    {
      "anonymous": false,
      "inputs": [
        {
          "indexed": true,
          "internalType": "address",
          "name": "previousOwner",
          "type": "address"
        },
        {
          "indexed": true,
          "internalType": "address",
          "name": "newOwner",
          "type": "address"
        }
      ],
      "name": "OwnershipTransferred",
      "type": "event"
    },
    {
      "anonymous": false,
      "inputs": [
        {
          "indexed": true,
          "internalType": "address",
          "name": "from",
          "type": "address"
        },
        {
          "indexed": true,
          "internalType": "address",
          "name": "to",
          "type": "address"
        },
        {
          "indexed": true,
          "internalType": "uint256",
          "name": "tokenId",
          "type": "uint256"
        }
      ],
      "name": "Transfer",
      "type": "event"
    },
    {
      "inputs": [
        {
          "internalType": "address",
          "name": "to",
          "type": "address"
        },
        {
          "internalType": "uint256",
          "name": "tokenId",
          "type": "uint256"
        }
      ],
      "name": "approve",
      "outputs": [],
      "stateMutability": "nonpayable",
      "type": "function"
    },
    {
      "inputs": [
        {
          "internalType": "address",
          "name": "owner",
          "type": "address"
        }
      ],
      "name": "balanceOf",
      "outputs": [
        {
          "internalType": "uint256",
          "name": "",
          "type": "uint256"
        }
      ],
      "stateMutability": "view",
      "type": "function"
    },
    {
      "inputs": [],
      "name": "catLootPrice",
      "outputs": [
        {
          "internalType": "uint256",
          "name": "",
          "type": "uint256"
        }
      ],
      "stateMutability": "view",
      "type": "function"
    },
    {
      "inputs": [],
      "name": "devAddr",
      "outputs": [
        {
          "internalType": "address payable",
          "name": "",
          "type": "address"
        }
      ],
      "stateMutability": "view",
      "type": "function"
    },
    {
      "inputs": [
        {
          "internalType": "uint256",
          "name": "tokenId",
          "type": "uint256"
        }
      ],
      "name": "getApproved",
      "outputs": [
        {
          "internalType": "address",
          "name": "",
          "type": "address"
        }
      ],
      "stateMutability": "view",
      "type": "function"
    },
    {
      "inputs": [
        {
          "internalType": "address",
          "name": "owner",
          "type": "address"
        },
        {
          "internalType": "address",
          "name": "operator",
          "type": "address"
        }
      ],
      "name": "isApprovedForAll",
      "outputs": [
        {
          "internalType": "bool",
          "name": "",
          "type": "bool"
        }
      ],
      "stateMutability": "view",
      "type": "function"
    },
    {
      "inputs": [],
      "name": "name",
      "outputs": [
        {
          "internalType": "string",
          "name": "",
          "type": "string"
        }
      ],
      "stateMutability": "view",
      "type": "function"
    },
    {
      "inputs": [],
      "name": "owner",
      "outputs": [
        {
          "internalType": "address",
          "name": "",
          "type": "address"
        }
      ],
      "stateMutability": "view",
      "type": "function"
    },
    {
      "inputs": [
        {
          "internalType": "uint256",
          "name": "tokenId",
          "type": "uint256"
        }
      ],
      "name": "ownerOf",
      "outputs": [
        {
          "internalType": "address",
          "name": "",
          "type": "address"
        }
      ],
      "stateMutability": "view",
      "type": "function"
    },
    {
      "inputs": [],
      "name": "renounceOwnership",
      "outputs": [],
      "stateMutability": "nonpayable",
      "type": "function"
    },
    {
      "inputs": [
        {
          "internalType": "address",
          "name": "from",
          "type": "address"
        },
        {
          "internalType": "address",
          "name": "to",
          "type": "address"
        },
        {
          "internalType": "uint256",
          "name": "tokenId",
          "type": "uint256"
        }
      ],
      "name": "safeTransferFrom",
      "outputs": [],
      "stateMutability": "nonpayable",
      "type": "function"
    },
    {
      "inputs": [
        {
          "internalType": "address",
          "name": "from",
          "type": "address"
        },
        {
          "internalType": "address",
          "name": "to",
          "type": "address"
        },
        {
          "internalType": "uint256",
          "name": "tokenId",
          "type": "uint256"
        },
        {
          "internalType": "bytes",
          "name": "_data",
          "type": "bytes"
        }
      ],
      "name": "safeTransferFrom",
      "outputs": [],
      "stateMutability": "nonpayable",
      "type": "function"
    },
    {
      "inputs": [
        {
          "internalType": "address",
          "name": "operator",
          "type": "address"
        },
        {
          "internalType": "bool",
          "name": "approved",
          "type": "bool"
        }
      ],
      "name": "setApprovalForAll",
      "outputs": [],
      "stateMutability": "nonpayable",
      "type": "function"
    },
    {
      "inputs": [
        {
          "internalType": "bytes4",
          "name": "interfaceId",
          "type": "bytes4"
        }
      ],
      "name": "supportsInterface",
      "outputs": [
        {
          "internalType": "bool",
          "name": "",
          "type": "bool"
        }
      ],
      "stateMutability": "view",
      "type": "function"
    },
    {
      "inputs": [],
      "name": "symbol",
      "outputs": [
        {
          "internalType": "string",
          "name": "",
          "type": "string"
        }
      ],
      "stateMutability": "view",
      "type": "function"
    },
    {
      "inputs": [
        {
          "internalType": "uint256",
          "name": "index",
          "type": "uint256"
        }
      ],
      "name": "tokenByIndex",
      "outputs": [
        {
          "internalType": "uint256",
          "name": "",
          "type": "uint256"
        }
      ],
      "stateMutability": "view",
      "type": "function"
    },
    {
      "inputs": [
        {
          "internalType": "address",
          "name": "owner",
          "type": "address"
        },
        {
          "internalType": "uint256",
          "name": "index",
          "type": "uint256"
        }
      ],
      "name": "tokenOfOwnerByIndex",
      "outputs": [
        {
          "internalType": "uint256",
          "name": "",
          "type": "uint256"
        }
      ],
      "stateMutability": "view",
      "type": "function"
    },
    {
      "inputs": [],
      "name": "totalSupply",
      "outputs": [
        {
          "internalType": "uint256",
          "name": "",
          "type": "uint256"
        }
      ],
      "stateMutability": "view",
      "type": "function"
    },
    {
      "inputs": [
        {
          "internalType": "address",
          "name": "from",
          "type": "address"
        },
        {
          "internalType": "address",
          "name": "to",
          "type": "address"
        },
        {
          "internalType": "uint256",
          "name": "tokenId",
          "type": "uint256"
        }
      ],
      "name": "transferFrom",
      "outputs": [],
      "stateMutability": "nonpayable",
      "type": "function"
    },
    {
      "inputs": [
        {
          "internalType": "address",
          "name": "newOwner",
          "type": "address"
        }
      ],
      "name": "transferOwnership",
      "outputs": [],
      "stateMutability": "nonpayable",
      "type": "function"
    },
    {
      "inputs": [],
      "name": "withdrawDevFunds",
      "outputs": [],
      "stateMutability": "nonpayable",
      "type": "function"
    },
    {
      "inputs": [
        {
          "internalType": "address payable",
          "name": "_devAddr",
          "type": "address"
        }
      ],
      "name": "setDev",
      "outputs": [],
      "stateMutability": "nonpayable",
      "type": "function"
    },
    {
      "inputs": [
        {
          "internalType": "uint256",
          "name": "tokenId",
          "type": "uint256"
        }
      ],
      "name": "getWeapon",
      "outputs": [
        {
          "internalType": "string",
          "name": "",
          "type": "string"
        }
      ],
      "stateMutability": "view",
      "type": "function"
    },
    {
      "inputs": [
        {
          "internalType": "uint256",
          "name": "tokenId",
          "type": "uint256"
        }
      ],
      "name": "getFur",
      "outputs": [
        {
          "internalType": "string",
          "name": "",
          "type": "string"
        }
      ],
      "stateMutability": "view",
      "type": "function"
    },
    {
      "inputs": [
        {
          "internalType": "uint256",
          "name": "tokenId",
          "type": "uint256"
        }
      ],
      "name": "getHead",
      "outputs": [
        {
          "internalType": "string",
          "name": "",
          "type": "string"
        }
      ],
      "stateMutability": "view",
      "type": "function"
    },
    {
      "inputs": [
        {
          "internalType": "uint256",
          "name": "tokenId",
          "type": "uint256"
        }
      ],
      "name": "getWaistYarn",
      "outputs": [
        {
          "internalType": "string",
          "name": "",
          "type": "string"
        }
      ],
      "stateMutability": "view",
      "type": "function"
    },
    {
      "inputs": [
        {
          "internalType": "uint256",
          "name": "tokenId",
          "type": "uint256"
        }
      ],
      "name": "getFootBooties",
      "outputs": [
        {
          "internalType": "string",
          "name": "",
          "type": "string"
        }
      ],
      "stateMutability": "view",
      "type": "function"
    },
    {
      "inputs": [
        {
          "internalType": "uint256",
          "name": "tokenId",
          "type": "uint256"
        }
      ],
      "name": "getCatAccessory",
      "outputs": [
        {
          "internalType": "string",
          "name": "",
          "type": "string"
        }
      ],
      "stateMutability": "view",
      "type": "function"
    },
    {
      "inputs": [
        {
          "internalType": "uint256",
          "name": "tokenId",
          "type": "uint256"
        }
      ],
      "name": "getNeck",
      "outputs": [
        {
          "internalType": "string",
          "name": "",
          "type": "string"
        }
      ],
      "stateMutability": "view",
      "type": "function"
    },
    {
      "inputs": [
        {
          "internalType": "uint256",
          "name": "tokenId",
          "type": "uint256"
        }
      ],
      "name": "getEarring",
      "outputs": [
        {
          "internalType": "string",
          "name": "",
          "type": "string"
        }
      ],
      "stateMutability": "view",
      "type": "function"
    },
    {
      "inputs": [
        {
          "internalType": "uint256",
          "name": "tokenId",
          "type": "uint256"
        }
      ],
      "name": "tokenURI",
      "outputs": [
        {
          "internalType": "string",
          "name": "",
          "type": "string"
        }
      ],
      "stateMutability": "view",
      "type": "function"
    },
    {
      "inputs": [
        {
          "internalType": "uint256",
          "name": "_numberOfCatLoot",
          "type": "uint256"
        }
      ],
      "name": "claim",
      "outputs": [],
      "stateMutability": "payable",
      "type": "function"
    }
  ],
  "bytecode": "0x60806040526040518061024001604052806040518060400160405280600581526020017f436c61777300000000000000000000000000000000000000000000000000000081525081526020016040518060400160405280600581526020017f546565746800000000000000000000000000000000000000000000000000000081525081526020016040518060400160405280600a81526020017f4c6173657220457965730000000000000000000000000000000000000000000081525081526020016040518060400160405280600a81526020017f4361746e69702047756e0000000000000000000000000000000000000000000081525081526020016040518060400160405280600581526020017f4b6e69666500000000000000000000000000000000000000000000000000000081525081526020016040518060400160405280600781526020017f4d697474656e730000000000000000000000000000000000000000000000000081525081526020016040518060400160405280600881526020017f4861697262616c6c00000000000000000000000000000000000000000000000081525081526020016040518060400160405280601081526020017f50726f6a656374696c6520566f6d69740000000000000000000000000000000081525081526020016040518060400160405280600d81526020017f426f78696e6720476c6f7665730000000000000000000000000000000000000081525081526020016040518060400160405280600b81526020017f5461696c205370696b657300000000000000000000000000000000000000000081525081526020016040518060400160405280600981526020017f4c6f7564204d656f77000000000000000000000000000000000000000000000081525081526020016040518060400160405280600881526020017f4361746172616e6700000000000000000000000000000000000000000000000081525081526020016040518060400160405280600981526020017f4d6f75736574726170000000000000000000000000000000000000000000000081525081526020016040518060400160405280600881526020017f486561646275747400000000000000000000000000000000000000000000000081525081526020016040518060400160405280600b81526020017f48616972205370696b657300000000000000000000000000000000000000000081525081526020016040518060400160405280600481526020017f486973730000000000000000000000000000000000000000000000000000000081525081526020016040518060400160405280600581526020017f47726f776c00000000000000000000000000000000000000000000000000000081525081526020016040518060400160405280600e81526020017f536861727020576869736b657273000000000000000000000000000000000000815250815250600d9060126200044692919062002583565b50604051806101e001604052806040518060400160405280600981526020017f546869636b20467572000000000000000000000000000000000000000000000081525081526020016040518060400160405280600881526020017f536f66742046757200000000000000000000000000000000000000000000000081525081526020016040518060400160405280600b81526020017f466c616d696e672046757200000000000000000000000000000000000000000081525081526020016040518060400160405280600a81526020017f4e6f726d616c204675720000000000000000000000000000000000000000000081525081526020016040518060400160405280600e81526020017f5265666c6563746976652046757200000000000000000000000000000000000081525081526020016040518060400160405280600f81526020017f526164696f61637469766520467572000000000000000000000000000000000081525081526020016040518060400160405280600b81526020017f5261696e626f772046757200000000000000000000000000000000000000000081525081526020016040518060400160405280600b81526020017f4c6561746865722046757200000000000000000000000000000000000000000081525081526020016040518060400160405280600881526020017f49726f6e2046757200000000000000000000000000000000000000000000000081525081526020016040518060400160405280600981526020017f446576696c20467572000000000000000000000000000000000000000000000081525081526020016040518060400160405280600881526020017f486f6c792046757200000000000000000000000000000000000000000000000081525081526020016040518060400160405280600a81526020017f4d6174746564204675720000000000000000000000000000000000000000000081525081526020016040518060400160405280600981526020017f536861727020467572000000000000000000000000000000000000000000000081525081526020016040518060400160405280600781526020017f496379204675720000000000000000000000000000000000000000000000000081525081526020016040518060400160405280600b81526020017f5368696e696e6720467572000000000000000000000000000000000000000000815250815250600e90600f620007d8929190620025ea565b50604051806101e001604052806040518060400160405280600481526020017f48616c6f0000000000000000000000000000000000000000000000000000000081525081526020016040518060400160405280600b81526020017f446576696c20486f726e7300000000000000000000000000000000000000000081525081526020016040518060400160405280600881526020017f536b69204d61736b00000000000000000000000000000000000000000000000081525081526020016040518060400160405280600981526020017f456172204d75666673000000000000000000000000000000000000000000000081525081526020016040518060400160405280600a81526020017f436f77626f79204861740000000000000000000000000000000000000000000081525081526020016040518060400160405280600d81526020017f466c616d696e672043726f776e0000000000000000000000000000000000000081525081526020016040518060400160405280600a81526020017f334420476c61737365730000000000000000000000000000000000000000000081525081526020016040518060400160405280600a81526020017f565220486561647365740000000000000000000000000000000000000000000081525081526020016040518060400160405280600a81526020017f4865616470686f6e65730000000000000000000000000000000000000000000081525081526020016040518060400160405280600c81526020017f506c6174652048656c6d6574000000000000000000000000000000000000000081525081526020016040518060400160405280600c81526020017f4261736562616c6c20436170000000000000000000000000000000000000000081525081526020016040518060400160405280600781526020017f486172646861740000000000000000000000000000000000000000000000000081525081526020016040518060400160405280600a81526020017f57697a617264204861740000000000000000000000000000000000000000000081525081526020016040518060400160405280600981526020017f44756e636520436170000000000000000000000000000000000000000000000081525081526020016040518060400160405280600b81526020017f4c696f6e2773204d616e65000000000000000000000000000000000000000000815250815250600f90600f62000b6a929190620025ea565b50604051806101e001604052806040518060400160405280600c81526020017f5574696c697479205961726e000000000000000000000000000000000000000081525081526020016040518060400160405280600a81526020017f4d6574616c205961726e0000000000000000000000000000000000000000000081525081526020016040518060400160405280600d81526020017f436f6c6f7266756c205961726e0000000000000000000000000000000000000081525081526020016040518060400160405280601081526020017f537061676865747469204e6f6f646c650000000000000000000000000000000081525081526020016040518060400160405280600981526020017f486f6c79205961726e000000000000000000000000000000000000000000000081525081526020016040518060400160405280600a81526020017f446576696c205961726e0000000000000000000000000000000000000000000081525081526020016040518060400160405280600c81526020017f4c656174686572205961726e000000000000000000000000000000000000000081525081526020016040518060400160405280601481526020017f53747564646564204c656174686572205961726e00000000000000000000000081525081526020016040518060400160405280600e81526020017f426564617a7a6c6564205961726e00000000000000000000000000000000000081525081526020016040518060400160405280601181526020017f426c6f6f64737461696e6564205961726e00000000000000000000000000000081525081526020016040518060400160405280600a81526020017f4d61676963205961726e0000000000000000000000000000000000000000000081525081526020016040518060400160405280600b81526020017f4e6f726d616c205961726e00000000000000000000000000000000000000000081525081526020016040518060400160405280601081526020017f526164696f616374697665205961726e0000000000000000000000000000000081525081526020016040518060400160405280600b81526020017f476f6c64656e205961726e00000000000000000000000000000000000000000081525081526020016040518060400160405280600881526020017f4f6c64205961726e000000000000000000000000000000000000000000000000815250815250601090600f62000efc929190620025ea565b50604051806101e001604052806040518060400160405280600981526020017f4e61696c2043617073000000000000000000000000000000000000000000000081525081526020016040518060400160405280601081526020017f53696c69636f6e6520426f6f746965730000000000000000000000000000000081525081526020016040518060400160405280600d81526020017f4d6574616c20426f6f746965730000000000000000000000000000000000000081525081526020016040518060400160405280600f81526020017f5261696e626f7720426f6f74696573000000000000000000000000000000000081525081526020016040518060400160405280600f81526020017f4c65617468657220426f6f74696573000000000000000000000000000000000081525081526020016040518060400160405280600d81526020017f436c6f746820426f6f746965730000000000000000000000000000000000000081525081526020016040518060400160405280600c81526020017f4576696c20426f6f74696573000000000000000000000000000000000000000081525081526020016040518060400160405280600c81526020017f486f6c7920426f6f74696573000000000000000000000000000000000000000081525081526020016040518060400160405280601381526020017f526164696f61637469766520426f6f746965730000000000000000000000000081525081526020016040518060400160405280601481526020017f426c6f6f64737461696e656420426f6f7469657300000000000000000000000081525081526020016040518060400160405280600e81526020017f476f6c64656e20426f6f7469657300000000000000000000000000000000000081525081526020016040518060400160405280600e81526020017f4e6f726d616c20426f6f7469657300000000000000000000000000000000000081525081526020016040518060400160405280600d81526020017f5368696e7920426f6f746965730000000000000000000000000000000000000081525081526020016040518060400160405280600b81526020017f4f6c6420426f6f7469657300000000000000000000000000000000000000000081525081526020016040518060400160405280601181526020017f496e76697369626c6520426f6f74696573000000000000000000000000000000815250815250601190600f6200128e929190620025ea565b50604051806101e001604052806040518060400160405280600581526020017f596f2d796f00000000000000000000000000000000000000000000000000000081525081526020016040518060400160405280600881526020017f4d696c6b204a756700000000000000000000000000000000000000000000000081525081526020016040518060400160405280600b81526020017f53717565616b7920546f7900000000000000000000000000000000000000000081525081526020016040518060400160405280600981526020017f436967617265747465000000000000000000000000000000000000000000000081525081526020016040518060400160405280600f81526020017f53637261746368696e6720506f7374000000000000000000000000000000000081525081526020016040518060400160405280600581526020017f507572736500000000000000000000000000000000000000000000000000000081525081526020016040518060400160405280600881526020017f4261636b7061636b00000000000000000000000000000000000000000000000081525081526020016040518060400160405280600e81526020017f53757065726865726f204361706500000000000000000000000000000000000081525081526020016040518060400160405280600c81526020017f4361746e6970204a6f696e74000000000000000000000000000000000000000081525081526020016040518060400160405280600d81526020017f4c6173657220506f696e7465720000000000000000000000000000000000000081525081526020016040518060400160405280600981526020017f486169726272757368000000000000000000000000000000000000000000000081525081526020016040518060400160405280600d81526020017f426f78206f66205472656174730000000000000000000000000000000000000081525081526020016040518060400160405280600981526020017f436174204772617373000000000000000000000000000000000000000000000081525081526020016040518060400160405280600b81526020017f416e67656c2057696e677300000000000000000000000000000000000000000081525081526020016040518060400160405280600b81526020017f446576696c2057696e6773000000000000000000000000000000000000000000815250815250601290600f62001620929190620025ea565b5060405180606001604052806040518060400160405280600681526020017f436f6c6c6172000000000000000000000000000000000000000000000000000081525081526020016040518060400160405280600581526020017f436861696e00000000000000000000000000000000000000000000000000000081525081526020016040518060400160405280600681526020017f426f7774696500000000000000000000000000000000000000000000000000008152508152506013906003620016ed92919062002651565b506040518060a001604052806040518060400160405280600c81526020017f476f6c642045617272696e67000000000000000000000000000000000000000081525081526020016040518060400160405280600e81526020017f53696c7665722045617272696e6700000000000000000000000000000000000081525081526020016040518060400160405280600e81526020017f42726f6e7a652045617272696e6700000000000000000000000000000000000081525081526020016040518060400160405280601081526020017f506c6174696e756d2045617272696e670000000000000000000000000000000081525081526020016040518060400160405280601081526020017f546974616e69756d2045617272696e6700000000000000000000000000000000815250815250601490600562001830929190620026b8565b506040518061020001604052806040518060400160405280600b81526020017f6f6620746865204e696e6500000000000000000000000000000000000000000081525081526020016040518060400160405280600d81526020017f6f6620507572726761746f72790000000000000000000000000000000000000081525081526020016040518060400160405280600c81526020017f6f662074686520416c6c6579000000000000000000000000000000000000000081525081526020016040518060400160405280600a81526020017f6f66205a6f6f6d6965730000000000000000000000000000000000000000000081525081526020016040518060400160405280600d81526020017f6f662050657266656374696f6e0000000000000000000000000000000000000081525081526020016040518060400160405280601081526020017f6f66207468652043656c65737469616c0000000000000000000000000000000081525081526020016040518060400160405280601081526020017f6f6620456e6c69676874656e6d656e740000000000000000000000000000000081525081526020016040518060400160405280600d81526020017f6f662050726f74656374696f6e0000000000000000000000000000000000000081525081526020016040518060400160405280600b81526020017f6f662074686520486f6c7900000000000000000000000000000000000000000081525081526020016040518060400160405280600c81526020017f6f662074686520446576696c000000000000000000000000000000000000000081525081526020016040518060400160405280600881526020017f6f6620536c6f746800000000000000000000000000000000000000000000000081525081526020016040518060400160405280600a81526020017f6f6620537465616c74680000000000000000000000000000000000000000000081525081526020016040518060400160405280600d81526020017f6f66207468652046656c696e650000000000000000000000000000000000000081525081526020016040518060400160405280600a81526020017f6f6620526576656e67650000000000000000000000000000000000000000000081525081526020016040518060400160405280600d81526020017f6f66205265666c656374696f6e0000000000000000000000000000000000000081525081526020016040518060400160405280600a81526020017f6f6620746865204f6e6500000000000000000000000000000000000000000000815250815250601590601062001bfd9291906200271f565b50604051806101c001604052806040518060400160405280600781526020017f467565676f27730000000000000000000000000000000000000000000000000081525081526020016040518060400160405280600881526020017f4e6562756c61277300000000000000000000000000000000000000000000000081525081526020016040518060400160405280600881526020017f5475726b656c277300000000000000000000000000000000000000000000000081525081526020016040518060400160405280600681526020017f446f6f662773000000000000000000000000000000000000000000000000000081525081526020016040518060400160405280600881526020017f43686565746f277300000000000000000000000000000000000000000000000081525081526020016040518060400160405280600a81526020017f537072696e6b6c6527730000000000000000000000000000000000000000000081525081526020016040518060400160405280600e81526020017f50756d7065726e69636b656c277300000000000000000000000000000000000081525081526020016040518060400160405280600881526020017f5068696c6970277300000000000000000000000000000000000000000000000081525081526020016040518060400160405280600a81526020017f537568676172726f27730000000000000000000000000000000000000000000081525081526020016040518060400160405280600781526020017f417374657227730000000000000000000000000000000000000000000000000081525081526020016040518060400160405280600781526020017f4a6572727927730000000000000000000000000000000000000000000000000081525081526020016040518060400160405280600a81526020017f54696d6f7468656527730000000000000000000000000000000000000000000081525081526020016040518060400160405280600a81526020017f53636f72626f746827730000000000000000000000000000000000000000000081525081526020016040518060400160405280600681526020017f4361726c27730000000000000000000000000000000000000000000000000000815250815250601690600e62001f5492919062002786565b506040518061024001604052806040518060400160405280600881526020017f426c657373696e6700000000000000000000000000000000000000000000000081525081526020016040518060400160405280600581526020017f4661766f7200000000000000000000000000000000000000000000000000000081525081526020016040518060400160405280600481526020017f426974650000000000000000000000000000000000000000000000000000000081525081526020016040518060400160405280600481526020017f4c75636b0000000000000000000000000000000000000000000000000000000081525081526020016040518060400160405280600581526020017f537065656400000000000000000000000000000000000000000000000000000081525081526020016040518060400160405280600781526020017f526576656e67650000000000000000000000000000000000000000000000000081525081526020016040518060400160405280600581526020017f577261746800000000000000000000000000000000000000000000000000000081525081526020016040518060400160405280600481526020017f526f61720000000000000000000000000000000000000000000000000000000081525081526020016040518060400160405280600581526020017f426c61646500000000000000000000000000000000000000000000000000000081525081526020016040518060400160405280600681526020017f536861646f77000000000000000000000000000000000000000000000000000081525081526020016040518060400160405280600781526020017f576869737065720000000000000000000000000000000000000000000000000081525081526020016040518060400160405280600481526020017f486973730000000000000000000000000000000000000000000000000000000081525081526020016040518060400160405280600581526020017f47726f776c00000000000000000000000000000000000000000000000000000081525081526020016040518060400160405280600581526020017f476c61726500000000000000000000000000000000000000000000000000000081525081526020016040518060400160405280600581526020017f426f6f737400000000000000000000000000000000000000000000000000000081525081526020016040518060400160405280600681526020017f42616e6e6572000000000000000000000000000000000000000000000000000081525081526020016040518060400160405280600481526020017f47617a650000000000000000000000000000000000000000000000000000000081525081526020016040518060400160405280600581526020017f416e67657200000000000000000000000000000000000000000000000000000081525081525060179060126200239792919062002583565b50348015620023a557600080fd5b506040518060400160405280600781526020017f4361744c6f6f74000000000000000000000000000000000000000000000000008152506040518060400160405280600781526020017f4341544c4f4f540000000000000000000000000000000000000000000000000081525081600090805190602001906200242a929190620027ed565b50806001908051906020019062002443929190620027ed565b5050506001600a819055506200246e62002462620024b560201b60201c565b620024bd60201b60201c565b33600c60006101000a81548173ffffffffffffffffffffffffffffffffffffffff021916908373ffffffffffffffffffffffffffffffffffffffff16021790555062002970565b600033905090565b6000600b60009054906101000a900473ffffffffffffffffffffffffffffffffffffffff16905081600b60006101000a81548173ffffffffffffffffffffffffffffffffffffffff021916908373ffffffffffffffffffffffffffffffffffffffff1602179055508173ffffffffffffffffffffffffffffffffffffffff168173ffffffffffffffffffffffffffffffffffffffff167f8be0079c531659141344cd1fd0a4f28419497f9722a3daafe3b4186f6b6457e060405160405180910390a35050565b828054828255906000526020600020908101928215620025d7579160200282015b82811115620025d6578251829080519060200190620025c5929190620027ed565b5091602001919060010190620025a4565b5b509050620025e691906200287e565b5090565b8280548282559060005260206000209081019282156200263e579160200282015b828111156200263d5782518290805190602001906200262c929190620027ed565b50916020019190600101906200260b565b5b5090506200264d91906200287e565b5090565b828054828255906000526020600020908101928215620026a5579160200282015b82811115620026a457825182908051906020019062002693929190620027ed565b509160200191906001019062002672565b5b509050620026b491906200287e565b5090565b8280548282559060005260206000209081019282156200270c579160200282015b828111156200270b578251829080519060200190620026fa929190620027ed565b5091602001919060010190620026d9565b5b5090506200271b91906200287e565b5090565b82805482825590600052602060002090810192821562002773579160200282015b828111156200277257825182908051906020019062002761929190620027ed565b509160200191906001019062002740565b5b5090506200278291906200287e565b5090565b828054828255906000526020600020908101928215620027da579160200282015b82811115620027d9578251829080519060200190620027c8929190620027ed565b5091602001919060010190620027a7565b5b509050620027e991906200287e565b5090565b828054620027fb906200293a565b90600052602060002090601f0160209004810192826200281f57600085556200286b565b82601f106200283a57805160ff19168380011785556200286b565b828001600101855582156200286b579182015b828111156200286a5782518255916020019190600101906200284d565b5b5090506200287a9190620028a6565b5090565b5b80821115620028a25760008181620028989190620028c5565b506001016200287f565b5090565b5b80821115620028c1576000816000905550600101620028a7565b5090565b508054620028d3906200293a565b6000825580601f10620028e7575062002908565b601f016020900490600052602060002090810190620029079190620028a6565b5b50565b7f4e487b7100000000000000000000000000000000000000000000000000000000600052602260045260246000fd5b600060028204905060018216806200295357607f821691505b602082108114156200296a57620029696200290b565b5b50919050565b615a9980620029806000396000f3fe6080604052600436106101e35760003560e01c8063715018a611610102578063b88d4fde11610095578063da09c72c11610064578063da09c72c14610767578063e985e9c514610792578063eff7dfdf146107cf578063f2fde38b146107fa576101e3565b8063b88d4fde1461069b578063c87b56dd146106c4578063d1412db114610701578063d477f05f1461073e576101e3565b80639776d4b7116100d15780639776d4b7146105e15780639e41b73f146105f8578063a22cb46514610635578063aa9ee30b1461065e576101e3565b8063715018a6146105375780638da5cb5b1461054e57806395d89b41146105795780639720c969146105a4576101e3565b80632f745c591161017a5780634f6ccce7116101495780634f6ccce7146104435780636352211e1461048057806367209aa8146104bd57806370a08231146104fa576101e3565b80632f745c5914610384578063379607f5146103c157806342842e0e146103dd5780634dd35e9e14610406576101e3565b8063095ea7b3116101b6578063095ea7b3146102ca57806309c1c6da146102f357806318160ddd1461033057806323b872dd1461035b576101e3565b806301ffc9a7146101e857806306fdde0314610225578063081812fc1461025057806308244a9b1461028d575b600080fd5b3480156101f457600080fd5b5061020f600480360381019061020a9190613c48565b610823565b60405161021c9190613c90565b60405180910390f35b34801561023157600080fd5b5061023a61089d565b6040516102479190613d44565b60405180910390f35b34801561025c57600080fd5b5061027760048036038101906102729190613d9c565b61092f565b6040516102849190613e0a565b60405180910390f35b34801561029957600080fd5b506102b460048036038101906102af9190613d9c565b6109b4565b6040516102c19190613d44565b60405180910390f35b3480156102d657600080fd5b506102f160048036038101906102ec9190613e51565b610ace565b005b3480156102ff57600080fd5b5061031a60048036038101906103159190613d9c565b610be6565b6040516103279190613d44565b60405180910390f35b34801561033c57600080fd5b50610345610d00565b6040516103529190613ea0565b60405180910390f35b34801561036757600080fd5b50610382600480360381019061037d9190613ebb565b610d0d565b005b34801561039057600080fd5b506103ab60048036038101906103a69190613e51565b610d6d565b6040516103b89190613ea0565b60405180910390f35b6103db60048036038101906103d69190613d9c565b610e12565b005b3480156103e957600080fd5b5061040460048036038101906103ff9190613ebb565b611052565b005b34801561041257600080fd5b5061042d60048036038101906104289190613d9c565b611072565b60405161043a9190613d44565b60405180910390f35b34801561044f57600080fd5b5061046a60048036038101906104659190613d9c565b61118c565b6040516104779190613ea0565b60405180910390f35b34801561048c57600080fd5b506104a760048036038101906104a29190613d9c565b6111fd565b6040516104b49190613e0a565b60405180910390f35b3480156104c957600080fd5b506104e460048036038101906104df9190613d9c565b6112af565b6040516104f19190613d44565b60405180910390f35b34801561050657600080fd5b50610521600480360381019061051c9190613f0e565b6113c9565b60405161052e9190613ea0565b60405180910390f35b34801561054357600080fd5b5061054c611481565b005b34801561055a57600080fd5b50610563611509565b6040516105709190613e0a565b60405180910390f35b34801561058557600080fd5b5061058e611533565b60405161059b9190613d44565b60405180910390f35b3480156105b057600080fd5b506105cb60048036038101906105c69190613d9c565b6115c5565b6040516105d89190613d44565b60405180910390f35b3480156105ed57600080fd5b506105f66116df565b005b34801561060457600080fd5b5061061f600480360381019061061a9190613d9c565b6117fa565b60405161062c9190613d44565b60405180910390f35b34801561064157600080fd5b5061065c60048036038101906106579190613f67565b611914565b005b34801561066a57600080fd5b5061068560048036038101906106809190613d9c565b61192a565b6040516106929190613d44565b60405180910390f35b3480156106a757600080fd5b506106c260048036038101906106bd91906140dc565b611a44565b005b3480156106d057600080fd5b506106eb60048036038101906106e69190613d9c565b611aa6565b6040516106f89190613d44565b60405180910390f35b34801561070d57600080fd5b5061072860048036038101906107239190613d9c565b61203c565b6040516107359190613d44565b60405180910390f35b34801561074a57600080fd5b506107656004803603810190610760919061419d565b612156565b005b34801561077357600080fd5b5061077c612286565b60405161078991906141d9565b60405180910390f35b34801561079e57600080fd5b506107b960048036038101906107b491906141f4565b6122ac565b6040516107c69190613c90565b60405180910390f35b3480156107db57600080fd5b506107e4612340565b6040516107f19190613ea0565b60405180910390f35b34801561080657600080fd5b50610821600480360381019061081c9190613f0e565b61234c565b005b60007f780e9d63000000000000000000000000000000000000000000000000000000007bffffffffffffffffffffffffffffffffffffffffffffffffffffffff1916827bffffffffffffffffffffffffffffffffffffffffffffffffffffffff19161480610896575061089582612444565b5b9050919050565b6060600080546108ac90614263565b80601f01602080910402602001604051908101604052809291908181526020018280546108d890614263565b80156109255780601f106108fa57610100808354040283529160200191610925565b820191906000526020600020905b81548152906001019060200180831161090857829003601f168201915b5050505050905090565b600061093a82612526565b610979576040517f08c379a000000000000000000000000000000000000000000000000000000000815260040161097090614307565b60405180910390fd5b6004600083815260200190815260200160002060009054906101000a900473ffffffffffffffffffffffffffffffffffffffff169050919050565b6060610ac7826040518060400160405280600781526020017f45415252494e47000000000000000000000000000000000000000000000000008152506014805480602002602001604051908101604052809291908181526020016000905b82821015610abe578382906000526020600020018054610a3190614263565b80601f0160208091040260200160405190810160405280929190818152602001828054610a5d90614263565b8015610aaa5780601f10610a7f57610100808354040283529160200191610aaa565b820191906000526020600020905b815481529060010190602001808311610a8d57829003601f168201915b505050505081526020019060010190610a12565b50505050612592565b9050919050565b6000610ad9826111fd565b90508073ffffffffffffffffffffffffffffffffffffffff168373ffffffffffffffffffffffffffffffffffffffff161415610b4a576040517f08c379a0000000000000000000000000000000000000000000000000000000008152600401610b4190614399565b60405180910390fd5b8073ffffffffffffffffffffffffffffffffffffffff16610b69612927565b73ffffffffffffffffffffffffffffffffffffffff161480610b985750610b9781610b92612927565b6122ac565b5b610bd7576040517f08c379a0000000000000000000000000000000000000000000000000000000008152600401610bce9061442b565b60405180910390fd5b610be1838361292f565b505050565b6060610cf9826040518060400160405280600381526020017f4655520000000000000000000000000000000000000000000000000000000000815250600e805480602002602001604051908101604052809291908181526020016000905b82821015610cf0578382906000526020600020018054610c6390614263565b80601f0160208091040260200160405190810160405280929190818152602001828054610c8f90614263565b8015610cdc5780601f10610cb157610100808354040283529160200191610cdc565b820191906000526020600020905b815481529060010190602001808311610cbf57829003601f168201915b505050505081526020019060010190610c44565b50505050612592565b9050919050565b6000600880549050905090565b610d1e610d18612927565b826129e8565b610d5d576040517f08c379a0000000000000000000000000000000000000000000000000000000008152600401610d54906144bd565b60405180910390fd5b610d68838383612ac6565b505050565b6000610d78836113c9565b8210610db9576040517f08c379a0000000000000000000000000000000000000000000000000000000008152600401610db09061454f565b60405180910390fd5b600660008473ffffffffffffffffffffffffffffffffffffffff1673ffffffffffffffffffffffffffffffffffffffff168152602001908152602001600020600083815260200190815260200160002054905092915050565b6002600a541415610e58576040517f08c379a0000000000000000000000000000000000000000000000000000000008152600401610e4f906145bb565b60405180910390fd5b6002600a81905550612710610e7d82610e6f610d00565b612d2d90919063ffffffff16565b1115610ebe576040517f08c379a0000000000000000000000000000000000000000000000000000000008152600401610eb590614627565b60405180910390fd5b60008111610f01576040517f08c379a0000000000000000000000000000000000000000000000000000000008152600401610ef890614693565b60405180910390fd5b600a811115610f45576040517f08c379a0000000000000000000000000000000000000000000000000000000008152600401610f3c906146ff565b60405180910390fd5b34610f61826703782dace9d90000612d4390919063ffffffff16565b14610fa1576040517f08c379a0000000000000000000000000000000000000000000000000000000008152600401610f989061476b565b60405180910390fd5b600c60009054906101000a900473ffffffffffffffffffffffffffffffffffffffff1673ffffffffffffffffffffffffffffffffffffffff166108fc349081150290604051600060405180830381858888f19350505050158015611009573d6000803e3d6000fd5b5060005b8181101561104657600061101f610d00565b905061103261102c612927565b82612d59565b50808061103e906147ba565b91505061100d565b506001600a8190555050565b61106d83838360405180602001604052806000815250611a44565b505050565b6060611185826040518060400160405280600981526020017f57414953545941524e00000000000000000000000000000000000000000000008152506010805480602002602001604051908101604052809291908181526020016000905b8282101561117c5783829060005260206000200180546110ef90614263565b80601f016020809104026020016040519081016040528092919081815260200182805461111b90614263565b80156111685780601f1061113d57610100808354040283529160200191611168565b820191906000526020600020905b81548152906001019060200180831161114b57829003601f168201915b5050505050815260200190600101906110d0565b50505050612592565b9050919050565b6000611196610d00565b82106111d7576040517f08c379a00000000000000000000000000000000000000000000000000000000081526004016111ce90614875565b60405180910390fd5b600882815481106111eb576111ea614895565b5b90600052602060002001549050919050565b6000806002600084815260200190815260200160002060009054906101000a900473ffffffffffffffffffffffffffffffffffffffff169050600073ffffffffffffffffffffffffffffffffffffffff168173ffffffffffffffffffffffffffffffffffffffff1614156112a6576040517f08c379a000000000000000000000000000000000000000000000000000000000815260040161129d90614936565b60405180910390fd5b80915050919050565b60606113c2826040518060400160405280600481526020017f4e45434b000000000000000000000000000000000000000000000000000000008152506013805480602002602001604051908101604052809291908181526020016000905b828210156113b957838290600052602060002001805461132c90614263565b80601f016020809104026020016040519081016040528092919081815260200182805461135890614263565b80156113a55780601f1061137a576101008083540402835291602001916113a5565b820191906000526020600020905b81548152906001019060200180831161138857829003601f168201915b50505050508152602001906001019061130d565b50505050612592565b9050919050565b60008073ffffffffffffffffffffffffffffffffffffffff168273ffffffffffffffffffffffffffffffffffffffff16141561143a576040517f08c379a0000000000000000000000000000000000000000000000000000000008152600401611431906149c8565b60405180910390fd5b600360008373ffffffffffffffffffffffffffffffffffffffff1673ffffffffffffffffffffffffffffffffffffffff168152602001908152602001600020549050919050565b611489612927565b73ffffffffffffffffffffffffffffffffffffffff166114a7611509565b73ffffffffffffffffffffffffffffffffffffffff16146114fd576040517f08c379a00000000000000000000000000000000000000000000000000000000081526004016114f490614a34565b60405180910390fd5b6115076000612d77565b565b6000600b60009054906101000a900473ffffffffffffffffffffffffffffffffffffffff16905090565b60606001805461154290614263565b80601f016020809104026020016040519081016040528092919081815260200182805461156e90614263565b80156115bb5780601f10611590576101008083540402835291602001916115bb565b820191906000526020600020905b81548152906001019060200180831161159e57829003601f168201915b5050505050905090565b60606116d8826040518060400160405280600481526020017f4845414400000000000000000000000000000000000000000000000000000000815250600f805480602002602001604051908101604052809291908181526020016000905b828210156116cf57838290600052602060002001805461164290614263565b80601f016020809104026020016040519081016040528092919081815260200182805461166e90614263565b80156116bb5780601f10611690576101008083540402835291602001916116bb565b820191906000526020600020905b81548152906001019060200180831161169e57829003601f168201915b505050505081526020019060010190611623565b50505050612592565b9050919050565b6116e7612927565b73ffffffffffffffffffffffffffffffffffffffff16611705611509565b73ffffffffffffffffffffffffffffffffffffffff161461175b576040517f08c379a000000000000000000000000000000000000000000000000000000000815260040161175290614a34565b60405180910390fd5b6002600a5414156117a1576040517f08c379a0000000000000000000000000000000000000000000000000000000008152600401611798906145bb565b60405180910390fd5b6002600a819055503373ffffffffffffffffffffffffffffffffffffffff166108fc479081150290604051600060405180830381858888f193505050501580156117ef573d6000803e3d6000fd5b506001600a81905550565b606061190d826040518060400160405280600681526020017f574541504f4e0000000000000000000000000000000000000000000000000000815250600d805480602002602001604051908101604052809291908181526020016000905b8282101561190457838290600052602060002001805461187790614263565b80601f01602080910402602001604051908101604052809291908181526020018280546118a390614263565b80156118f05780601f106118c5576101008083540402835291602001916118f0565b820191906000526020600020905b8154815290600101906020018083116118d357829003601f168201915b505050505081526020019060010190611858565b50505050612592565b9050919050565b61192661191f612927565b8383612e3d565b5050565b6060611a3d826040518060400160405280600981526020017f4143434553534f525900000000000000000000000000000000000000000000008152506012805480602002602001604051908101604052809291908181526020016000905b82821015611a345783829060005260206000200180546119a790614263565b80601f01602080910402602001604051908101604052809291908181526020018280546119d390614263565b8015611a205780601f106119f557610100808354040283529160200191611a20565b820191906000526020600020905b815481529060010190602001808311611a0357829003601f168201915b505050505081526020019060010190611988565b50505050612592565b9050919050565b611a55611a4f612927565b836129e8565b611a94576040517f08c379a0000000000000000000000000000000000000000000000000000000008152600401611a8b906144bd565b60405180910390fd5b611aa084848484612faa565b50505050565b6060611ab0613b8d565b60405180610120016040528060fd81526020016158d660fd913981600060118110611ade57611add614895565b5b6020020181905250611aef836117fa565b81600160118110611b0357611b02614895565b5b6020020181905250604051806060016040528060288152602001615a3c6028913981600260118110611b3857611b37614895565b5b6020020181905250611b4983610be6565b81600360118110611b5d57611b5c614895565b5b602002018190525060405180606001604052806028815260200161580b6028913981600460118110611b9257611b91614895565b5b6020020181905250611ba3836115c5565b81600560118110611bb757611bb6614895565b5b60200201819052506040518060600160405280602881526020016158856028913981600660118110611bec57611beb614895565b5b6020020181905250611bfd83611072565b81600760118110611c1157611c10614895565b5b60200201819052506040518060600160405280602981526020016158ad6029913981600860118110611c4657611c45614895565b5b6020020181905250611c578361203c565b81600960118110611c6b57611c6a614895565b5b602002018190525060405180606001604052806029815260200161585c6029913981600a60118110611ca057611c9f614895565b5b6020020181905250611cb18361192a565b81600b60118110611cc557611cc4614895565b5b60200201819052506040518060600160405280602981526020016159d36029913981600c60118110611cfa57611cf9614895565b5b6020020181905250611d0b836112af565b81600d60118110611d1f57611d1e614895565b5b60200201819052506040518060600160405280602981526020016158336029913981600e60118110611d5457611d53614895565b5b6020020181905250611d65836109b4565b81600f60118110611d7957611d78614895565b5b60200201819052506040518060400160405280600d81526020017f3c2f746578743e3c2f7376673e0000000000000000000000000000000000000081525081601060118110611dcb57611dca614895565b5b6020020181905250600081600060118110611de957611de8614895565b5b602002015182600160118110611e0257611e01614895565b5b602002015183600260118110611e1b57611e1a614895565b5b602002015184600360118110611e3457611e33614895565b5b602002015185600460118110611e4d57611e4c614895565b5b602002015186600560118110611e6657611e65614895565b5b602002015187600660118110611e7f57611e7e614895565b5b602002015188600760118110611e9857611e97614895565b5b602002015189600860118110611eb157611eb0614895565b5b6020020151604051602001611ece99989796959493929190614a90565b60405160208183030381529060405290508082600960118110611ef457611ef3614895565b5b602002015183600a60118110611f0d57611f0c614895565b5b602002015184600b60118110611f2657611f25614895565b5b602002015185600c60118110611f3f57611f3e614895565b5b602002015186600d60118110611f5857611f57614895565b5b602002015187600e60118110611f7157611f70614895565b5b602002015188600f60118110611f8a57611f89614895565b5b602002015189601060118110611fa357611fa2614895565b5b6020020151604051602001611fc099989796959493929190614a90565b6040516020818303038152906040529050600061200d611fdf86613006565b611fe884613167565b604051602001611ff9929190614cfd565b604051602081830303815290604052613167565b9050806040516020016120209190614d8e565b6040516020818303038152906040529150819350505050919050565b606061214f826040518060400160405280600781526020017f424f4f54494553000000000000000000000000000000000000000000000000008152506011805480602002602001604051908101604052809291908181526020016000905b828210156121465783829060005260206000200180546120b990614263565b80601f01602080910402602001604051908101604052809291908181526020018280546120e590614263565b80156121325780601f1061210757610100808354040283529160200191612132565b820191906000526020600020905b81548152906001019060200180831161211557829003601f168201915b50505050508152602001906001019061209a565b50505050612592565b9050919050565b61215e612927565b73ffffffffffffffffffffffffffffffffffffffff1661217c611509565b73ffffffffffffffffffffffffffffffffffffffff16146121d2576040517f08c379a00000000000000000000000000000000000000000000000000000000081526004016121c990614a34565b60405180910390fd5b600073ffffffffffffffffffffffffffffffffffffffff168173ffffffffffffffffffffffffffffffffffffffff161415612242576040517f08c379a000000000000000000000000000000000000000000000000000000000815260040161223990614dfc565b60405180910390fd5b80600c60006101000a81548173ffffffffffffffffffffffffffffffffffffffff021916908373ffffffffffffffffffffffffffffffffffffffff16021790555050565b600c60009054906101000a900473ffffffffffffffffffffffffffffffffffffffff1681565b6000600560008473ffffffffffffffffffffffffffffffffffffffff1673ffffffffffffffffffffffffffffffffffffffff16815260200190815260200160002060008373ffffffffffffffffffffffffffffffffffffffff1673ffffffffffffffffffffffffffffffffffffffff16815260200190815260200160002060009054906101000a900460ff16905092915050565b6703782dace9d9000081565b612354612927565b73ffffffffffffffffffffffffffffffffffffffff16612372611509565b73ffffffffffffffffffffffffffffffffffffffff16146123c8576040517f08c379a00000000000000000000000000000000000000000000000000000000081526004016123bf90614a34565b60405180910390fd5b600073ffffffffffffffffffffffffffffffffffffffff168173ffffffffffffffffffffffffffffffffffffffff161415612438576040517f08c379a000000000000000000000000000000000000000000000000000000000815260040161242f90614e8e565b60405180910390fd5b61244181612d77565b50565b60007f80ac58cd000000000000000000000000000000000000000000000000000000007bffffffffffffffffffffffffffffffffffffffffffffffffffffffff1916827bffffffffffffffffffffffffffffffffffffffffffffffffffffffff1916148061250f57507f5b5e139f000000000000000000000000000000000000000000000000000000007bffffffffffffffffffffffffffffffffffffffffffffffffffffffff1916827bffffffffffffffffffffffffffffffffffffffffffffffffffffffff1916145b8061251f575061251e826132ec565b5b9050919050565b60008073ffffffffffffffffffffffffffffffffffffffff166002600084815260200190815260200160002060009054906101000a900473ffffffffffffffffffffffffffffffffffffffff1673ffffffffffffffffffffffffffffffffffffffff1614159050919050565b606061259c610d00565b84106125dd576040517f08c379a00000000000000000000000000000000000000000000000000000000081526004016125d490614efa565b60405180910390fd5b6000612611846125ec87613006565b6040516020016125fd929190614f1a565b604051602081830303815290604052613356565b90506000838451836126239190614f6d565b8151811061263457612633614895565b5b60200260200101519050600060158361264d9190614f6d565b9050600e8111156126a95781601580805490508561266b9190614f6d565b8154811061267c5761267b614895565b5b9060005260206000200160405160200161269792919061507e565b60405160208183030381529060405291505b6013811061291a576126b9613bb5565b60168080549050856126cb9190614f6d565b815481106126dc576126db614895565b5b9060005260206000200180546126f190614263565b80601f016020809104026020016040519081016040528092919081815260200182805461271d90614263565b801561276a5780601f1061273f5761010080835404028352916020019161276a565b820191906000526020600020905b81548152906001019060200180831161274d57829003601f168201915b50505050508160006002811061278357612782614895565b5b6020020181905250601780805490508561279d9190614f6d565b815481106127ae576127ad614895565b5b9060005260206000200180546127c390614263565b80601f01602080910402602001604051908101604052809291908181526020018280546127ef90614263565b801561283c5780601f106128115761010080835404028352916020019161283c565b820191906000526020600020905b81548152906001019060200180831161281f57829003601f168201915b50505050508160016002811061285557612854614895565b5b602002018190525060138214156128c1578060006002811061287a57612879614895565b5b60200201518160016002811061289357612892614895565b5b6020020151846040516020016128ab93929190615145565b6040516020818303038152906040529250612918565b806000600281106128d5576128d4614895565b5b6020020151816001600281106128ee576128ed614895565b5b602002015184604051602001612906939291906151e3565b60405160208183030381529060405292505b505b8193505050509392505050565b600033905090565b816004600083815260200190815260200160002060006101000a81548173ffffffffffffffffffffffffffffffffffffffff021916908373ffffffffffffffffffffffffffffffffffffffff160217905550808273ffffffffffffffffffffffffffffffffffffffff166129a2836111fd565b73ffffffffffffffffffffffffffffffffffffffff167f8c5be1e5ebec7d5bd14f71427d1e84f3dd0314c0f7b2291e5b200ac8c7c3b92560405160405180910390a45050565b60006129f382612526565b612a32576040517f08c379a0000000000000000000000000000000000000000000000000000000008152600401612a29906152b2565b60405180910390fd5b6000612a3d836111fd565b90508073ffffffffffffffffffffffffffffffffffffffff168473ffffffffffffffffffffffffffffffffffffffff161480612aac57508373ffffffffffffffffffffffffffffffffffffffff16612a948461092f565b73ffffffffffffffffffffffffffffffffffffffff16145b80612abd5750612abc81856122ac565b5b91505092915050565b8273ffffffffffffffffffffffffffffffffffffffff16612ae6826111fd565b73ffffffffffffffffffffffffffffffffffffffff1614612b3c576040517f08c379a0000000000000000000000000000000000000000000000000000000008152600401612b3390615344565b60405180910390fd5b600073ffffffffffffffffffffffffffffffffffffffff168273ffffffffffffffffffffffffffffffffffffffff161415612bac576040517f08c379a0000000000000000000000000000000000000000000000000000000008152600401612ba3906153d6565b60405180910390fd5b612bb7838383613389565b612bc260008261292f565b6001600360008573ffffffffffffffffffffffffffffffffffffffff1673ffffffffffffffffffffffffffffffffffffffff1681526020019081526020016000206000828254612c1291906153f6565b925050819055506001600360008473ffffffffffffffffffffffffffffffffffffffff1673ffffffffffffffffffffffffffffffffffffffff1681526020019081526020016000206000828254612c69919061542a565b92505081905550816002600083815260200190815260200160002060006101000a81548173ffffffffffffffffffffffffffffffffffffffff021916908373ffffffffffffffffffffffffffffffffffffffff160217905550808273ffffffffffffffffffffffffffffffffffffffff168473ffffffffffffffffffffffffffffffffffffffff167fddf252ad1be2c89b69c2b068fc378daa952ba7f163c4a11628f55a4df523b3ef60405160405180910390a4612d2883838361349d565b505050565b60008183612d3b919061542a565b905092915050565b60008183612d519190615480565b905092915050565b612d738282604051806020016040528060008152506134a2565b5050565b6000600b60009054906101000a900473ffffffffffffffffffffffffffffffffffffffff16905081600b60006101000a81548173ffffffffffffffffffffffffffffffffffffffff021916908373ffffffffffffffffffffffffffffffffffffffff1602179055508173ffffffffffffffffffffffffffffffffffffffff168173ffffffffffffffffffffffffffffffffffffffff167f8be0079c531659141344cd1fd0a4f28419497f9722a3daafe3b4186f6b6457e060405160405180910390a35050565b8173ffffffffffffffffffffffffffffffffffffffff168373ffffffffffffffffffffffffffffffffffffffff161415612eac576040517f08c379a0000000000000000000000000000000000000000000000000000000008152600401612ea390615526565b60405180910390fd5b80600560008573ffffffffffffffffffffffffffffffffffffffff1673ffffffffffffffffffffffffffffffffffffffff16815260200190815260200160002060008473ffffffffffffffffffffffffffffffffffffffff1673ffffffffffffffffffffffffffffffffffffffff16815260200190815260200160002060006101000a81548160ff0219169083151502179055508173ffffffffffffffffffffffffffffffffffffffff168373ffffffffffffffffffffffffffffffffffffffff167f17307eab39ab6107e8899845ad3d59bd9653f200f220920489ca2b5937696c3183604051612f9d9190613c90565b60405180910390a3505050565b612fb5848484612ac6565b612fc1848484846134fd565b613000576040517f08c379a0000000000000000000000000000000000000000000000000000000008152600401612ff7906155b8565b60405180910390fd5b50505050565b6060600082141561304e576040518060400160405280600181526020017f30000000000000000000000000000000000000000000000000000000000000008152509050613162565b600082905060005b60008214613080578080613069906147ba565b915050600a8261307991906155d8565b9150613056565b60008167ffffffffffffffff81111561309c5761309b613fb1565b5b6040519080825280601f01601f1916602001820160405280156130ce5781602001600182028036833780820191505090505b5090505b6000851461315b576001826130e791906153f6565b9150600a856130f69190614f6d565b6030613102919061542a565b60f81b81838151811061311857613117614895565b5b60200101907effffffffffffffffffffffffffffffffffffffffffffffffffffffffffffff1916908160001a905350600a8561315491906155d8565b94506130d2565b8093505050505b919050565b606060008251141561318a576040518060200160405280600081525090506132e7565b60006040518060600160405280604081526020016159fc60409139905060006003600285516131b9919061542a565b6131c391906155d8565b60046131cf9190615480565b905060006020826131e0919061542a565b67ffffffffffffffff8111156131f9576131f8613fb1565b5b6040519080825280601f01601f19166020018201604052801561322b5781602001600182028036833780820191505090505b509050818152600183018586518101602084015b818310156132a6576003830192508251603f8160121c1685015160f81b8252600182019150603f81600c1c1685015160f81b8252600182019150603f8160061c1685015160f81b8252600182019150603f811685015160f81b82526001820191505061323f565b6003895106600181146132c057600281146132d0576132db565b613d3d60f01b60028303526132db565b603d60f81b60018303525b50505050508093505050505b919050565b60007f01ffc9a7000000000000000000000000000000000000000000000000000000007bffffffffffffffffffffffffffffffffffffffffffffffffffffffff1916827bffffffffffffffffffffffffffffffffffffffffffffffffffffffff1916149050919050565b6000816040516020016133699190615609565b6040516020818303038152906040528051906020012060001c9050919050565b613394838383613685565b600073ffffffffffffffffffffffffffffffffffffffff168373ffffffffffffffffffffffffffffffffffffffff1614156133d7576133d28161368a565b613416565b8173ffffffffffffffffffffffffffffffffffffffff168373ffffffffffffffffffffffffffffffffffffffff16146134155761341483826136d3565b5b5b600073ffffffffffffffffffffffffffffffffffffffff168273ffffffffffffffffffffffffffffffffffffffff1614156134595761345481613840565b613498565b8273ffffffffffffffffffffffffffffffffffffffff168273ffffffffffffffffffffffffffffffffffffffff1614613497576134968282613911565b5b5b505050565b505050565b6134ac8383613990565b6134b960008484846134fd565b6134f8576040517f08c379a00000000000000000000000000000000000000000000000000000000081526004016134ef906155b8565b60405180910390fd5b505050565b600061351e8473ffffffffffffffffffffffffffffffffffffffff16613b6a565b15613678578373ffffffffffffffffffffffffffffffffffffffff1663150b7a02613547612927565b8786866040518563ffffffff1660e01b81526004016135699493929190615675565b6020604051808303816000875af19250505080156135a557506040513d601f19601f820116820180604052508101906135a291906156d6565b60015b613628573d80600081146135d5576040519150601f19603f3d011682016040523d82523d6000602084013e6135da565b606091505b50600081511415613620576040517f08c379a0000000000000000000000000000000000000000000000000000000008152600401613617906155b8565b60405180910390fd5b805181602001fd5b63150b7a0260e01b7bffffffffffffffffffffffffffffffffffffffffffffffffffffffff1916817bffffffffffffffffffffffffffffffffffffffffffffffffffffffff19161491505061367d565b600190505b949350505050565b505050565b6008805490506009600083815260200190815260200160002081905550600881908060018154018082558091505060019003906000526020600020016000909190919091505550565b600060016136e0846113c9565b6136ea91906153f6565b90506000600760008481526020019081526020016000205490508181146137cf576000600660008673ffffffffffffffffffffffffffffffffffffffff1673ffffffffffffffffffffffffffffffffffffffff168152602001908152602001600020600084815260200190815260200160002054905080600660008773ffffffffffffffffffffffffffffffffffffffff1673ffffffffffffffffffffffffffffffffffffffff168152602001908152602001600020600084815260200190815260200160002081905550816007600083815260200190815260200160002081905550505b6007600084815260200190815260200160002060009055600660008573ffffffffffffffffffffffffffffffffffffffff1673ffffffffffffffffffffffffffffffffffffffff16815260200190815260200160002060008381526020019081526020016000206000905550505050565b6000600160088054905061385491906153f6565b905060006009600084815260200190815260200160002054905060006008838154811061388457613883614895565b5b9060005260206000200154905080600883815481106138a6576138a5614895565b5b9060005260206000200181905550816009600083815260200190815260200160002081905550600960008581526020019081526020016000206000905560088054806138f5576138f4615703565b5b6001900381819060005260206000200160009055905550505050565b600061391c836113c9565b905081600660008573ffffffffffffffffffffffffffffffffffffffff1673ffffffffffffffffffffffffffffffffffffffff168152602001908152602001600020600083815260200190815260200160002081905550806007600084815260200190815260200160002081905550505050565b600073ffffffffffffffffffffffffffffffffffffffff168273ffffffffffffffffffffffffffffffffffffffff161415613a00576040517f08c379a00000000000000000000000000000000000000000000000000000000081526004016139f79061577e565b60405180910390fd5b613a0981612526565b15613a49576040517f08c379a0000000000000000000000000000000000000000000000000000000008152600401613a40906157ea565b60405180910390fd5b613a5560008383613389565b6001600360008473ffffffffffffffffffffffffffffffffffffffff1673ffffffffffffffffffffffffffffffffffffffff1681526020019081526020016000206000828254613aa5919061542a565b92505081905550816002600083815260200190815260200160002060006101000a81548173ffffffffffffffffffffffffffffffffffffffff021916908373ffffffffffffffffffffffffffffffffffffffff160217905550808273ffffffffffffffffffffffffffffffffffffffff16600073ffffffffffffffffffffffffffffffffffffffff167fddf252ad1be2c89b69c2b068fc378daa952ba7f163c4a11628f55a4df523b3ef60405160405180910390a4613b666000838361349d565b5050565b6000808273ffffffffffffffffffffffffffffffffffffffff163b119050919050565b6040518061022001604052806011905b6060815260200190600190039081613b9d5790505090565b60405180604001604052806002905b6060815260200190600190039081613bc45790505090565b6000604051905090565b600080fd5b600080fd5b60007fffffffff0000000000000000000000000000000000000000000000000000000082169050919050565b613c2581613bf0565b8114613c3057600080fd5b50565b600081359050613c4281613c1c565b92915050565b600060208284031215613c5e57613c5d613be6565b5b6000613c6c84828501613c33565b91505092915050565b60008115159050919050565b613c8a81613c75565b82525050565b6000602082019050613ca56000830184613c81565b92915050565b600081519050919050565b600082825260208201905092915050565b60005b83811015613ce5578082015181840152602081019050613cca565b83811115613cf4576000848401525b50505050565b6000601f19601f8301169050919050565b6000613d1682613cab565b613d208185613cb6565b9350613d30818560208601613cc7565b613d3981613cfa565b840191505092915050565b60006020820190508181036000830152613d5e8184613d0b565b905092915050565b6000819050919050565b613d7981613d66565b8114613d8457600080fd5b50565b600081359050613d9681613d70565b92915050565b600060208284031215613db257613db1613be6565b5b6000613dc084828501613d87565b91505092915050565b600073ffffffffffffffffffffffffffffffffffffffff82169050919050565b6000613df482613dc9565b9050919050565b613e0481613de9565b82525050565b6000602082019050613e1f6000830184613dfb565b92915050565b613e2e81613de9565b8114613e3957600080fd5b50565b600081359050613e4b81613e25565b92915050565b60008060408385031215613e6857613e67613be6565b5b6000613e7685828601613e3c565b9250506020613e8785828601613d87565b9150509250929050565b613e9a81613d66565b82525050565b6000602082019050613eb56000830184613e91565b92915050565b600080600060608486031215613ed457613ed3613be6565b5b6000613ee286828701613e3c565b9350506020613ef386828701613e3c565b9250506040613f0486828701613d87565b9150509250925092565b600060208284031215613f2457613f23613be6565b5b6000613f3284828501613e3c565b91505092915050565b613f4481613c75565b8114613f4f57600080fd5b50565b600081359050613f6181613f3b565b92915050565b60008060408385031215613f7e57613f7d613be6565b5b6000613f8c85828601613e3c565b9250506020613f9d85828601613f52565b9150509250929050565b600080fd5b600080fd5b7f4e487b7100000000000000000000000000000000000000000000000000000000600052604160045260246000fd5b613fe982613cfa565b810181811067ffffffffffffffff8211171561400857614007613fb1565b5b80604052505050565b600061401b613bdc565b90506140278282613fe0565b919050565b600067ffffffffffffffff82111561404757614046613fb1565b5b61405082613cfa565b9050602081019050919050565b82818337600083830152505050565b600061407f61407a8461402c565b614011565b90508281526020810184848401111561409b5761409a613fac565b5b6140a684828561405d565b509392505050565b600082601f8301126140c3576140c2613fa7565b5b81356140d384826020860161406c565b91505092915050565b600080600080608085870312156140f6576140f5613be6565b5b600061410487828801613e3c565b945050602061411587828801613e3c565b935050604061412687828801613d87565b925050606085013567ffffffffffffffff81111561414757614146613beb565b5b614153878288016140ae565b91505092959194509250565b600061416a82613dc9565b9050919050565b61417a8161415f565b811461418557600080fd5b50565b60008135905061419781614171565b92915050565b6000602082840312156141b3576141b2613be6565b5b60006141c184828501614188565b91505092915050565b6141d38161415f565b82525050565b60006020820190506141ee60008301846141ca565b92915050565b6000806040838503121561420b5761420a613be6565b5b600061421985828601613e3c565b925050602061422a85828601613e3c565b9150509250929050565b7f4e487b7100000000000000000000000000000000000000000000000000000000600052602260045260246000fd5b6000600282049050600182168061427b57607f821691505b6020821081141561428f5761428e614234565b5b50919050565b7f4552433732313a20617070726f76656420717565727920666f72206e6f6e657860008201527f697374656e7420746f6b656e0000000000000000000000000000000000000000602082015250565b60006142f1602c83613cb6565b91506142fc82614295565b604082019050919050565b60006020820190508181036000830152614320816142e4565b9050919050565b7f4552433732313a20617070726f76616c20746f2063757272656e74206f776e6560008201527f7200000000000000000000000000000000000000000000000000000000000000602082015250565b6000614383602183613cb6565b915061438e82614327565b604082019050919050565b600060208201905081810360008301526143b281614376565b9050919050565b7f4552433732313a20617070726f76652063616c6c6572206973206e6f74206f7760008201527f6e6572206e6f7220617070726f76656420666f7220616c6c0000000000000000602082015250565b6000614415603883613cb6565b9150614420826143b9565b604082019050919050565b6000602082019050818103600083015261444481614408565b9050919050565b7f4552433732313a207472616e736665722063616c6c6572206973206e6f74206f60008201527f776e6572206e6f7220617070726f766564000000000000000000000000000000602082015250565b60006144a7603183613cb6565b91506144b28261444b565b604082019050919050565b600060208201905081810360008301526144d68161449a565b9050919050565b7f455243373231456e756d657261626c653a206f776e657220696e646578206f7560008201527f74206f6620626f756e6473000000000000000000000000000000000000000000602082015250565b6000614539602b83613cb6565b9150614544826144dd565b604082019050919050565b600060208201905081810360008301526145688161452c565b9050919050565b7f5265656e7472616e637947756172643a207265656e7472616e742063616c6c00600082015250565b60006145a5601f83613cb6565b91506145b08261456f565b602082019050919050565b600060208201905081810360008301526145d481614598565b9050919050565b7f4f76657220737570706c79000000000000000000000000000000000000000000600082015250565b6000614611600b83613cb6565b915061461c826145db565b602082019050919050565b6000602082019050818103600083015261464081614604565b9050919050565b7f4d696e2031204361744c6f6f74207065722074786e0000000000000000000000600082015250565b600061467d601583613cb6565b915061468882614647565b602082019050919050565b600060208201905081810360008301526146ac81614670565b9050919050565b7f4d6178203130204361744c6f6f74207065722074786e00000000000000000000600082015250565b60006146e9601683613cb6565b91506146f4826146b3565b602082019050919050565b60006020820190508181036000830152614718816146dc565b9050919050565b7f496e636f727265637420424e422076616c756500000000000000000000000000600082015250565b6000614755601383613cb6565b91506147608261471f565b602082019050919050565b6000602082019050818103600083015261478481614748565b9050919050565b7f4e487b7100000000000000000000000000000000000000000000000000000000600052601160045260246000fd5b60006147c582613d66565b91507fffffffffffffffffffffffffffffffffffffffffffffffffffffffffffffffff8214156147f8576147f761478b565b5b600182019050919050565b7f455243373231456e756d657261626c653a20676c6f62616c20696e646578206f60008201527f7574206f6620626f756e64730000000000000000000000000000000000000000602082015250565b600061485f602c83613cb6565b915061486a82614803565b604082019050919050565b6000602082019050818103600083015261488e81614852565b9050919050565b7f4e487b7100000000000000000000000000000000000000000000000000000000600052603260045260246000fd5b7f4552433732313a206f776e657220717565727920666f72206e6f6e657869737460008201527f656e7420746f6b656e0000000000000000000000000000000000000000000000602082015250565b6000614920602983613cb6565b915061492b826148c4565b604082019050919050565b6000602082019050818103600083015261494f81614913565b9050919050565b7f4552433732313a2062616c616e636520717565727920666f7220746865207a6560008201527f726f206164647265737300000000000000000000000000000000000000000000602082015250565b60006149b2602a83613cb6565b91506149bd82614956565b604082019050919050565b600060208201905081810360008301526149e1816149a5565b9050919050565b7f4f776e61626c653a2063616c6c6572206973206e6f7420746865206f776e6572600082015250565b6000614a1e602083613cb6565b9150614a29826149e8565b602082019050919050565b60006020820190508181036000830152614a4d81614a11565b9050919050565b600081905092915050565b6000614a6a82613cab565b614a748185614a54565b9350614a84818560208601613cc7565b80840191505092915050565b6000614a9c828c614a5f565b9150614aa8828b614a5f565b9150614ab4828a614a5f565b9150614ac08289614a5f565b9150614acc8288614a5f565b9150614ad88287614a5f565b9150614ae48286614a5f565b9150614af08285614a5f565b9150614afc8284614a5f565b91508190509a9950505050505050505050565b7f7b226e616d65223a202242616720230000000000000000000000000000000000600082015250565b6000614b45600f83614a54565b9150614b5082614b0f565b600f82019050919050565b7f222c20226465736372697074696f6e223a2022436174204c6f6f74206973207260008201527f616e646f6d697a65642063617420676561722067656e65726174656420616e6460208201527f2073746f726564206f6e20636861696e2e2053746174732c20696d616765732c60408201527f20616e64206f746865722066756e6374696f6e616c6974792061726520696e7460608201527f656e74696f6e616c6c79206f6d697474656420666f72206f746865727320746f60808201527f20696e746572707265742e204665656c206672656520746f20757365204c6f6f60a08201527f7420696e20616e792077617920796f752077616e742e222c2022696d6167652260c08201527f3a2022646174613a696d6167652f7376672b786d6c3b6261736536342c00000060e082015250565b6000614c9b60fd83614a54565b9150614ca682614b5b565b60fd82019050919050565b7f227d000000000000000000000000000000000000000000000000000000000000600082015250565b6000614ce7600283614a54565b9150614cf282614cb1565b600282019050919050565b6000614d0882614b38565b9150614d148285614a5f565b9150614d1f82614c8e565b9150614d2b8284614a5f565b9150614d3682614cda565b91508190509392505050565b7f646174613a6170706c69636174696f6e2f6a736f6e3b6261736536342c000000600082015250565b6000614d78601d83614a54565b9150614d8382614d42565b601d82019050919050565b6000614d9982614d6b565b9150614da58284614a5f565b915081905092915050565b7f44657620776f756c642062652030206164647265737321000000000000000000600082015250565b6000614de6601783613cb6565b9150614df182614db0565b602082019050919050565b60006020820190508181036000830152614e1581614dd9565b9050919050565b7f4f776e61626c653a206e6577206f776e657220697320746865207a65726f206160008201527f6464726573730000000000000000000000000000000000000000000000000000602082015250565b6000614e78602683613cb6565b9150614e8382614e1c565b604082019050919050565b60006020820190508181036000830152614ea781614e6b565b9050919050565b7f4361744c6f6f74206e6f74206d696e7465642079657400000000000000000000600082015250565b6000614ee4601683613cb6565b9150614eef82614eae565b602082019050919050565b60006020820190508181036000830152614f1381614ed7565b9050919050565b6000614f268285614a5f565b9150614f328284614a5f565b91508190509392505050565b7f4e487b7100000000000000000000000000000000000000000000000000000000600052601260045260246000fd5b6000614f7882613d66565b9150614f8383613d66565b925082614f9357614f92614f3e565b5b828206905092915050565b7f2000000000000000000000000000000000000000000000000000000000000000600082015250565b6000614fd4600183614a54565b9150614fdf82614f9e565b600182019050919050565b60008190508160005260206000209050919050565b6000815461500c81614263565b6150168186614a54565b94506001821660008114615031576001811461504257615075565b60ff19831686528186019350615075565b61504b85614fea565b60005b8381101561506d5781548189015260018201915060208101905061504e565b838801955050505b50505092915050565b600061508a8285614a5f565b915061509582614fc7565b91506150a18284614fff565b91508190509392505050565b7f2200000000000000000000000000000000000000000000000000000000000000600082015250565b60006150e3600183614a54565b91506150ee826150ad565b600182019050919050565b7f2220000000000000000000000000000000000000000000000000000000000000600082015250565b600061512f600283614a54565b915061513a826150f9565b600282019050919050565b6000615150826150d6565b915061515c8286614a5f565b915061516782614fc7565b91506151738285614a5f565b915061517e82615122565b915061518a8284614a5f565b9150819050949350505050565b7f202b310000000000000000000000000000000000000000000000000000000000600082015250565b60006151cd600383614a54565b91506151d882615197565b600382019050919050565b60006151ee826150d6565b91506151fa8286614a5f565b915061520582614fc7565b91506152118285614a5f565b915061521c82615122565b91506152288284614a5f565b9150615233826151c0565b9150819050949350505050565b7f4552433732313a206f70657261746f7220717565727920666f72206e6f6e657860008201527f697374656e7420746f6b656e0000000000000000000000000000000000000000602082015250565b600061529c602c83613cb6565b91506152a782615240565b604082019050919050565b600060208201905081810360008301526152cb8161528f565b9050919050565b7f4552433732313a207472616e736665722066726f6d20696e636f72726563742060008201527f6f776e6572000000000000000000000000000000000000000000000000000000602082015250565b600061532e602583613cb6565b9150615339826152d2565b604082019050919050565b6000602082019050818103600083015261535d81615321565b9050919050565b7f4552433732313a207472616e7366657220746f20746865207a65726f2061646460008201527f7265737300000000000000000000000000000000000000000000000000000000602082015250565b60006153c0602483613cb6565b91506153cb82615364565b604082019050919050565b600060208201905081810360008301526153ef816153b3565b9050919050565b600061540182613d66565b915061540c83613d66565b92508282101561541f5761541e61478b565b5b828203905092915050565b600061543582613d66565b915061544083613d66565b9250827fffffffffffffffffffffffffffffffffffffffffffffffffffffffffffffffff038211156154755761547461478b565b5b828201905092915050565b600061548b82613d66565b915061549683613d66565b9250817fffffffffffffffffffffffffffffffffffffffffffffffffffffffffffffffff04831182151516156154cf576154ce61478b565b5b828202905092915050565b7f4552433732313a20617070726f766520746f2063616c6c657200000000000000600082015250565b6000615510601983613cb6565b915061551b826154da565b602082019050919050565b6000602082019050818103600083015261553f81615503565b9050919050565b7f4552433732313a207472616e7366657220746f206e6f6e20455243373231526560008201527f63656976657220696d706c656d656e7465720000000000000000000000000000602082015250565b60006155a2603283613cb6565b91506155ad82615546565b604082019050919050565b600060208201905081810360008301526155d181615595565b9050919050565b60006155e382613d66565b91506155ee83613d66565b9250826155fe576155fd614f3e565b5b828204905092915050565b60006156158284614a5f565b915081905092915050565b600081519050919050565b600082825260208201905092915050565b600061564782615620565b615651818561562b565b9350615661818560208601613cc7565b61566a81613cfa565b840191505092915050565b600060808201905061568a6000830187613dfb565b6156976020830186613dfb565b6156a46040830185613e91565b81810360608301526156b6818461563c565b905095945050505050565b6000815190506156d081613c1c565b92915050565b6000602082840312156156ec576156eb613be6565b5b60006156fa848285016156c1565b91505092915050565b7f4e487b7100000000000000000000000000000000000000000000000000000000600052603160045260246000fd5b7f4552433732313a206d696e7420746f20746865207a65726f2061646472657373600082015250565b6000615768602083613cb6565b915061577382615732565b602082019050919050565b600060208201905081810360008301526157978161575b565b9050919050565b7f4552433732313a20746f6b656e20616c7265616479206d696e74656400000000600082015250565b60006157d4601c83613cb6565b91506157df8261579e565b602082019050919050565b60006020820190508181036000830152615803816157c7565b905091905056fe3c2f746578743e3c7465787420783d2231302220793d2236302220636c6173733d2262617365223e3c2f746578743e3c7465787420783d2231302220793d223136302220636c6173733d2262617365223e3c2f746578743e3c7465787420783d2231302220793d223132302220636c6173733d2262617365223e3c2f746578743e3c7465787420783d2231302220793d2238302220636c6173733d2262617365223e3c2f746578743e3c7465787420783d2231302220793d223130302220636c6173733d2262617365223e3c73766720786d6c6e733d22687474703a2f2f7777772e77332e6f72672f323030302f73766722207072657365727665417370656374526174696f3d22784d696e594d696e206d656574222076696577426f783d223020302033353020333530223e3c7374796c653e2e62617365207b2066696c6c3a2077686974653b20666f6e742d66616d696c793a2073657269663b20666f6e742d73697a653a20313470783b207d3c2f7374796c653e3c726563742077696474683d223130302522206865696768743d2231303025222066696c6c3d22626c61636b22202f3e3c7465787420783d2231302220793d2232302220636c6173733d2262617365223e3c2f746578743e3c7465787420783d2231302220793d223134302220636c6173733d2262617365223e4142434445464748494a4b4c4d4e4f505152535455565758595a6162636465666768696a6b6c6d6e6f707172737475767778797a303132333435363738392b2f3c2f746578743e3c7465787420783d2231302220793d2234302220636c6173733d2262617365223ea26469706673582212207e4b612ccbc819fde3d0903c5f07ab6678e867288336f6137baf280258f2258964736f6c634300080b0033",
  "immutableReferences": {},
  "source": "// SPDX-License-Identifier: MIT\n\npragma solidity >=0.5.0;\n\nimport \"@openzeppelin/contracts/token/ERC721/ERC721.sol\";\nimport \"@openzeppelin/contracts/token/ERC721/extensions/ERC721URIStorage.sol\";\nimport \"@openzeppelin/contracts/token/ERC721/extensions/ERC721Burnable.sol\";\nimport \"@openzeppelin/contracts/access/Ownable.sol\";\nimport \"@openzeppelin/contracts/token/ERC721/extensions/ERC721Enumerable.sol\";\nimport \"@openzeppelin/contracts/security/ReentrancyGuard.sol\";\nimport \"@openzeppelin/contracts/utils/math/SafeMath.sol\";\n\ncontract CatLoot is ERC721Enumerable, ReentrancyGuard, Ownable {\n    using SafeMath for uint256;\n    uint256 public constant catLootPrice = 0.25 ether;\n    address payable public devAddr;\n    using Address for address;\n\n    string[] private weapons = [\n        \"Claws\",\n        \"Teeth\",\n        \"Laser Eyes\",\n        \"Catnip Gun\",\n        \"Knife\",\n        \"Mittens\",\n        \"Hairball\",\n        \"Projectile Vomit\",\n        \"Boxing Gloves\",\n        \"Tail Spikes\",\n        \"Loud Meow\",\n        \"Catarang\",\n        \"Mousetrap\",\n        \"Headbutt\",\n        \"Hair Spikes\",\n        \"Hiss\",\n        \"Growl\",\n        \"Sharp Whiskers\"\n    ];\n    \n    string[] private catFur = [\n        \"Thick Fur\",\n        \"Soft Fur\",\n        \"Flaming Fur\",\n        \"Normal Fur\",\n        \"Reflective Fur\",\n        \"Radioactive Fur\",\n        \"Rainbow Fur\",\n        \"Leather Fur\",\n        \"Iron Fur\",\n        \"Devil Fur\",\n        \"Holy Fur\",\n        \"Matted Fur\",\n        \"Sharp Fur\",\n        \"Icy Fur\",\n        \"Shining Fur\"\n    ];\n    \n    string[] private headArmor = [\n        \"Halo\",\n        \"Devil Horns\",\n        \"Ski Mask\",\n        \"Ear Muffs\",\n        \"Cowboy Hat\",\n        \"Flaming Crown\",\n        \"3D Glasses\",\n        \"VR Headset\",\n        \"Headphones\",\n        \"Plate Helmet\",\n        \"Baseball Cap\",\n        \"Hardhat\",\n        \"Wizard Hat\",\n        \"Dunce Cap\",\n        \"Lion's Mane\"\n    ];\n    \n    string[] private waistYarn = [\n        \"Utility Yarn\",\n        \"Metal Yarn\",\n        \"Colorful Yarn\",\n        \"Spaghetti Noodle\",\n        \"Holy Yarn\",\n        \"Devil Yarn\",\n        \"Leather Yarn\",\n        \"Studded Leather Yarn\",\n        \"Bedazzled Yarn\",\n        \"Bloodstained Yarn\",\n        \"Magic Yarn\",\n        \"Normal Yarn\",\n        \"Radioactive Yarn\",\n        \"Golden Yarn\",\n        \"Old Yarn\"\n    ];\n    \n    string[] private footBooties = [\n        \"Nail Caps\",\n        \"Silicone Booties\",\n        \"Metal Booties\",\n        \"Rainbow Booties\",\n        \"Leather Booties\",\n        \"Cloth Booties\",\n        \"Evil Booties\",\n        \"Holy Booties\",\n        \"Radioactive Booties\",\n        \"Bloodstained Booties\",\n        \"Golden Booties\",\n        \"Normal Booties\",\n        \"Shiny Booties\",\n        \"Old Booties\",\n        \"Invisible Booties\"\n    ];\n    \n    string[] private catAccessory = [\n        \"Yo-yo\",\n        \"Milk Jug\",\n        \"Squeaky Toy\",\n        \"Cigarette\",\n        \"Scratching Post\",\n        \"Purse\",\n        \"Backpack\",\n        \"Superhero Cape\",\n        \"Catnip Joint\",\n        \"Laser Pointer\",\n        \"Hairbrush\",\n        \"Box of Treats\",\n        \"Cat Grass\",\n        \"Angel Wings\",\n        \"Devil Wings\"\n    ];\n    \n    string[] private necklaces = [\n        \"Collar\",\n        \"Chain\",\n        \"Bowtie\"\n    ];\n    \n    string[] private earrings = [\n        \"Gold Earring\",\n        \"Silver Earring\",\n        \"Bronze Earring\",\n        \"Platinum Earring\",\n        \"Titanium Earring\"\n    ];\n    \n    string[] private suffixes = [\n        \"of the Nine\",\n        \"of Purrgatory\",\n        \"of the Alley\",\n        \"of Zoomies\",\n        \"of Perfection\",\n        \"of the Celestial\",\n        \"of Enlightenment\",\n        \"of Protection\",\n        \"of the Holy\",\n        \"of the Devil\",\n        \"of Sloth\",\n        \"of Stealth\",\n        \"of the Feline\",\n        \"of Revenge\",\n        \"of Reflection\",\n        \"of the One\"\n    ];\n    \n    string[] private namePrefixes = [\n        \"Fuego's\", \"Nebula's\", \"Turkel's\", \"Doof's\", \"Cheeto's\", \"Sprinkle's\", \"Pumpernickel's\", \"Philip's\", \n        \"Suhgarro's\", \"Aster's\", \"Jerry's\", \"Timothee's\", \"Scorboth's\", \"Carl's\"\n    ];\n    \n    string[] private nameSuffixes = [\n        \"Blessing\",\n        \"Favor\",\n        \"Bite\",\n        \"Luck\",\n        \"Speed\",\n        \"Revenge\",\n        \"Wrath\",\n        \"Roar\",\n        \"Blade\",\n        \"Shadow\",\n        \"Whisper\",\n        \"Hiss\",\n        \"Growl\",\n        \"Glare\",\n        \"Boost\",\n        \"Banner\",\n        \"Gaze\",\n        \"Anger\"\n    ];\n    \n    function random(string memory input) internal pure returns (uint256) {\n        return uint256(keccak256(abi.encodePacked(input)));\n    }\n\n    function withdrawDevFunds() public onlyOwner nonReentrant {\n        payable(msg.sender).transfer(address(this).balance);\n    }\n\n    function setDev(address payable _devAddr) external onlyOwner {\n        require(_devAddr != address(0), \"Dev would be 0 address!\");\n        devAddr = _devAddr;\n    }\n    \n    function getWeapon(uint256 tokenId) public view returns (string memory) {\n        return pluck(tokenId, \"WEAPON\", weapons);\n    }\n    \n    function getFur(uint256 tokenId) public view returns (string memory) {\n        return pluck(tokenId, \"FUR\", catFur);\n    }\n    \n    function getHead(uint256 tokenId) public view returns (string memory) {\n        return pluck(tokenId, \"HEAD\", headArmor);\n    }\n    \n    function getWaistYarn(uint256 tokenId) public view returns (string memory) {\n        return pluck(tokenId, \"WAISTYARN\", waistYarn);\n    }\n\n    function getFootBooties(uint256 tokenId) public view returns (string memory) {\n        return pluck(tokenId, \"BOOTIES\", footBooties);\n    }\n    \n    function getCatAccessory(uint256 tokenId) public view returns (string memory) {\n        return pluck(tokenId, \"ACCESSORY\", catAccessory);\n    }\n    \n    function getNeck(uint256 tokenId) public view returns (string memory) {\n        return pluck(tokenId, \"NECK\", necklaces);\n    }\n    \n    function getEarring(uint256 tokenId) public view returns (string memory) {\n        return pluck(tokenId, \"EARRING\", earrings);\n    }\n    \n    function pluck(uint256 tokenId, string memory keyPrefix, string[] memory sourceArray) internal view returns (string memory) {\n        require(tokenId < totalSupply(), \"CatLoot not minted yet\");\n        \n        uint256 rand = random(string(abi.encodePacked(keyPrefix, toString(tokenId))));\n        string memory output = sourceArray[rand % sourceArray.length];\n        uint256 greatness = rand % 21;\n        if (greatness > 14) {\n            output = string(abi.encodePacked(output, \" \", suffixes[rand % suffixes.length]));\n        }\n        if (greatness >= 19) {\n            string[2] memory name;\n            name[0] = namePrefixes[rand % namePrefixes.length];\n            name[1] = nameSuffixes[rand % nameSuffixes.length];\n            if (greatness == 19) {\n                output = string(abi.encodePacked('\"', name[0], ' ', name[1], '\" ', output));\n            } else {\n                output = string(abi.encodePacked('\"', name[0], ' ', name[1], '\" ', output, \" +1\"));\n            }\n        }\n        return output;\n    }\n\n    function tokenURI(uint256 tokenId) override public view returns (string memory) {\n        string[17] memory parts;\n        parts[0] = '<svg xmlns=\"http://www.w3.org/2000/svg\" preserveAspectRatio=\"xMinYMin meet\" viewBox=\"0 0 350 350\"><style>.base { fill: white; font-family: serif; font-size: 14px; }</style><rect width=\"100%\" height=\"100%\" fill=\"black\" /><text x=\"10\" y=\"20\" class=\"base\">';\n\n        parts[1] = getWeapon(tokenId);\n\n        parts[2] = '</text><text x=\"10\" y=\"40\" class=\"base\">';\n\n        parts[3] = getFur(tokenId);\n\n        parts[4] = '</text><text x=\"10\" y=\"60\" class=\"base\">';\n\n        parts[5] = getHead(tokenId);\n\n        parts[6] = '</text><text x=\"10\" y=\"80\" class=\"base\">';\n\n        parts[7] = getWaistYarn(tokenId);\n\n        parts[8] = '</text><text x=\"10\" y=\"100\" class=\"base\">';\n\n        parts[9] = getFootBooties(tokenId);\n\n        parts[10] = '</text><text x=\"10\" y=\"120\" class=\"base\">';\n\n        parts[11] = getCatAccessory(tokenId);\n\n        parts[12] = '</text><text x=\"10\" y=\"140\" class=\"base\">';\n\n        parts[13] = getNeck(tokenId);\n\n        parts[14] = '</text><text x=\"10\" y=\"160\" class=\"base\">';\n\n        parts[15] = getEarring(tokenId);\n\n        parts[16] = '</text></svg>';\n\n        string memory output = string(abi.encodePacked(parts[0], parts[1], parts[2], parts[3], parts[4], parts[5], parts[6], parts[7], parts[8]));\n        output = string(abi.encodePacked(output, parts[9], parts[10], parts[11], parts[12], parts[13], parts[14], parts[15], parts[16]));\n        \n        string memory json = Base64.encode(bytes(string(abi.encodePacked('{\"name\": \"Bag #', toString(tokenId), '\", \"description\": \"Cat Loot is randomized cat gear generated and stored on chain. Stats, images, and other functionality are intentionally omitted for others to interpret. Feel free to use Loot in any way you want.\", \"image\": \"data:image/svg+xml;base64,', Base64.encode(bytes(output)), '\"}'))));\n        output = string(abi.encodePacked('data:application/json;base64,', json));\n\n        return output;\n    }\n\n    function claim(uint256 _numberOfCatLoot) public payable nonReentrant {\n        require(totalSupply().add(_numberOfCatLoot) <= 10000, \"Over supply\");\n        require(_numberOfCatLoot > 0, \"Min 1 CatLoot per txn\");\n        require(_numberOfCatLoot <= 10, \"Max 10 CatLoot per txn\");\n        require(catLootPrice.mul(_numberOfCatLoot) == msg.value, \"Incorrect BNB value\");\n        \n        devAddr.transfer(msg.value);\n\n        for (uint256 i = 0; i < _numberOfCatLoot; i++) {\n            uint256 tokenID = totalSupply();\n            _safeMint(_msgSender(), tokenID);\n            }\n    }\n    \n    function toString(uint256 value) internal pure returns (string memory) {\n    // Inspired by OraclizeAPI's implementation - MIT license\n    // https://github.com/oraclize/ethereum-api/blob/b42146b063c7d6ee1358846c198246239e9360e8/oraclizeAPI_0.4.25.sol\n\n        if (value == 0) {\n            return \"0\";\n        }\n        uint256 temp = value;\n        uint256 digits;\n        while (temp != 0) {\n            digits++;\n            temp /= 10;\n        }\n        bytes memory buffer = new bytes(digits);\n        while (value != 0) {\n            digits -= 1;\n            buffer[digits] = bytes1(uint8(48 + uint256(value % 10)));\n            value /= 10;\n        }\n        return string(buffer);\n    }\n    \n    constructor() ERC721(\"CatLoot\", \"CATLOOT\") Ownable() {\n        devAddr = payable(msg.sender);\n    }\n}\n\nlibrary Base64 {\n    string internal constant TABLE = 'ABCDEFGHIJKLMNOPQRSTUVWXYZabcdefghijklmnopqrstuvwxyz0123456789+/';\n\n    function encode(bytes memory data) internal pure returns (string memory) {\n        if (data.length == 0) return '';\n        \n        // load the table into memory\n        string memory table = TABLE;\n\n        // multiply by 4/3 rounded up\n        uint256 encodedLen = 4 * ((data.length + 2) / 3);\n\n        // add some extra buffer at the end required for the writing\n        string memory result = new string(encodedLen + 32);\n\n        assembly {\n            // set the actual output length\n            mstore(result, encodedLen)\n            \n            // prepare the lookup table\n            let tablePtr := add(table, 1)\n            \n            // input ptr\n            let dataPtr := data\n            let endPtr := add(dataPtr, mload(data))\n            \n            // result ptr, jump over length\n            let resultPtr := add(result, 32)\n            \n            // run over the input, 3 bytes at a time\n            for {} lt(dataPtr, endPtr) {}\n            {\n               dataPtr := add(dataPtr, 3)\n               \n               // read 3 bytes\n               let input := mload(dataPtr)\n               \n               // write 4 characters\n               mstore(resultPtr, shl(248, mload(add(tablePtr, and(shr(18, input), 0x3F)))))\n               resultPtr := add(resultPtr, 1)\n               mstore(resultPtr, shl(248, mload(add(tablePtr, and(shr(12, input), 0x3F)))))\n               resultPtr := add(resultPtr, 1)\n               mstore(resultPtr, shl(248, mload(add(tablePtr, and(shr( 6, input), 0x3F)))))\n               resultPtr := add(resultPtr, 1)\n               mstore(resultPtr, shl(248, mload(add(tablePtr, and(        input,  0x3F)))))\n               resultPtr := add(resultPtr, 1)\n            }\n            \n            // padding with '='\n            switch mod(mload(data), 3)\n            case 1 { mstore(sub(resultPtr, 2), shl(240, 0x3d3d)) }\n            case 2 { mstore(sub(resultPtr, 1), shl(248, 0x3d)) }\n        }\n        \n        return result;\n    }\n}",
  "sourcePath": "/home/rani/truffle-project/contracts/CatLoot.sol",
  "compiler": {
    "name": "solc",
    "version": "0.8.11+commit.d7f03943.Emscripten.clang"
  },
  "schemaVersion": "3.4.4",
  "updatedAt": "2022-02-10T11:02:03.767Z",
  "networkType": "ethereum",
  "devdoc": {
    "kind": "dev",
    "methods": {
      "approve(address,uint256)": {
        "details": "See {IERC721-approve}."
      },
      "balanceOf(address)": {
        "details": "See {IERC721-balanceOf}."
      },
      "getApproved(uint256)": {
        "details": "See {IERC721-getApproved}."
      },
      "isApprovedForAll(address,address)": {
        "details": "See {IERC721-isApprovedForAll}."
      },
      "name()": {
        "details": "See {IERC721Metadata-name}."
      },
      "owner()": {
        "details": "Returns the address of the current owner."
      },
      "ownerOf(uint256)": {
        "details": "See {IERC721-ownerOf}."
      },
      "renounceOwnership()": {
        "details": "Leaves the contract without owner. It will not be possible to call `onlyOwner` functions anymore. Can only be called by the current owner. NOTE: Renouncing ownership will leave the contract without an owner, thereby removing any functionality that is only available to the owner."
      },
      "safeTransferFrom(address,address,uint256)": {
        "details": "See {IERC721-safeTransferFrom}."
      },
      "safeTransferFrom(address,address,uint256,bytes)": {
        "details": "See {IERC721-safeTransferFrom}."
      },
      "setApprovalForAll(address,bool)": {
        "details": "See {IERC721-setApprovalForAll}."
      },
      "supportsInterface(bytes4)": {
        "details": "See {IERC165-supportsInterface}."
      },
      "symbol()": {
        "details": "See {IERC721Metadata-symbol}."
      },
      "tokenByIndex(uint256)": {
        "details": "See {IERC721Enumerable-tokenByIndex}."
      },
      "tokenOfOwnerByIndex(address,uint256)": {
        "details": "See {IERC721Enumerable-tokenOfOwnerByIndex}."
      },
      "tokenURI(uint256)": {
        "details": "See {IERC721Metadata-tokenURI}."
      },
      "totalSupply()": {
        "details": "See {IERC721Enumerable-totalSupply}."
      },
      "transferFrom(address,address,uint256)": {
        "details": "See {IERC721-transferFrom}."
      },
      "transferOwnership(address)": {
        "details": "Transfers ownership of the contract to a new account (`newOwner`). Can only be called by the current owner."
      }
    },
    "version": 1
  },
  "userdoc": {
    "kind": "user",
    "methods": {},
    "version": 1
  }
}