{
  "contractName": "YetiMinter",
  "abi": [
    {
      "inputs": [],
      "stateMutability": "nonpayable",
      "type": "constructor"
    },
    {
      "anonymous": false,
      "inputs": [
        {
          "indexed": true,
          "internalType": "address",
          "name": "owner",
          "type": "address"
        },
        {
          "indexed": true,
          "internalType": "address",
          "name": "approved",
          "type": "address"
        },
        {
          "indexed": true,
          "internalType": "uint256",
          "name": "tokenId",
          "type": "uint256"
        }
      ],
      "name": "Approval",
      "type": "event"
    },
    {
      "anonymous": false,
      "inputs": [
        {
          "indexed": true,
          "internalType": "address",
          "name": "owner",
          "type": "address"
        },
        {
          "indexed": true,
          "internalType": "address",
          "name": "operator",
          "type": "address"
        },
        {
          "indexed": false,
          "internalType": "bool",
          "name": "approved",
          "type": "bool"
        }
      ],
      "name": "ApprovalForAll",
      "type": "event"
    },
    {
      "anonymous": false,
      "inputs": [
        {
          "indexed": true,
          "internalType": "address",
          "name": "from",
          "type": "address"
        },
        {
          "indexed": true,
          "internalType": "address",
          "name": "to",
          "type": "address"
        },
        {
          "indexed": true,
          "internalType": "uint256",
          "name": "tokenId",
          "type": "uint256"
        }
      ],
      "name": "Transfer",
      "type": "event"
    },
    {
      "inputs": [
        {
          "internalType": "address",
          "name": "to",
          "type": "address"
        },
        {
          "internalType": "uint256",
          "name": "tokenId",
          "type": "uint256"
        }
      ],
      "name": "approve",
      "outputs": [],
      "stateMutability": "nonpayable",
      "type": "function"
    },
    {
      "inputs": [
        {
          "internalType": "address",
          "name": "owner",
          "type": "address"
        }
      ],
      "name": "balanceOf",
      "outputs": [
        {
          "internalType": "uint256",
          "name": "",
          "type": "uint256"
        }
      ],
      "stateMutability": "view",
      "type": "function"
    },
    {
      "inputs": [
        {
          "internalType": "uint256",
          "name": "tokenId",
          "type": "uint256"
        }
      ],
      "name": "getApproved",
      "outputs": [
        {
          "internalType": "address",
          "name": "",
          "type": "address"
        }
      ],
      "stateMutability": "view",
      "type": "function"
    },
    {
      "inputs": [
        {
          "internalType": "address",
          "name": "owner",
          "type": "address"
        },
        {
          "internalType": "address",
          "name": "operator",
          "type": "address"
        }
      ],
      "name": "isApprovedForAll",
      "outputs": [
        {
          "internalType": "bool",
          "name": "",
          "type": "bool"
        }
      ],
      "stateMutability": "view",
      "type": "function"
    },
    {
      "inputs": [],
      "name": "name",
      "outputs": [
        {
          "internalType": "string",
          "name": "",
          "type": "string"
        }
      ],
      "stateMutability": "view",
      "type": "function"
    },
    {
      "inputs": [
        {
          "internalType": "uint256",
          "name": "tokenId",
          "type": "uint256"
        }
      ],
      "name": "ownerOf",
      "outputs": [
        {
          "internalType": "address",
          "name": "",
          "type": "address"
        }
      ],
      "stateMutability": "view",
      "type": "function"
    },
    {
      "inputs": [
        {
          "internalType": "address",
          "name": "from",
          "type": "address"
        },
        {
          "internalType": "address",
          "name": "to",
          "type": "address"
        },
        {
          "internalType": "uint256",
          "name": "tokenId",
          "type": "uint256"
        }
      ],
      "name": "safeTransferFrom",
      "outputs": [],
      "stateMutability": "nonpayable",
      "type": "function"
    },
    {
      "inputs": [
        {
          "internalType": "address",
          "name": "from",
          "type": "address"
        },
        {
          "internalType": "address",
          "name": "to",
          "type": "address"
        },
        {
          "internalType": "uint256",
          "name": "tokenId",
          "type": "uint256"
        },
        {
          "internalType": "bytes",
          "name": "_data",
          "type": "bytes"
        }
      ],
      "name": "safeTransferFrom",
      "outputs": [],
      "stateMutability": "nonpayable",
      "type": "function"
    },
    {
      "inputs": [
        {
          "internalType": "address",
          "name": "operator",
          "type": "address"
        },
        {
          "internalType": "bool",
          "name": "approved",
          "type": "bool"
        }
      ],
      "name": "setApprovalForAll",
      "outputs": [],
      "stateMutability": "nonpayable",
      "type": "function"
    },
    {
      "inputs": [
        {
          "internalType": "bytes4",
          "name": "interfaceId",
          "type": "bytes4"
        }
      ],
      "name": "supportsInterface",
      "outputs": [
        {
          "internalType": "bool",
          "name": "",
          "type": "bool"
        }
      ],
      "stateMutability": "view",
      "type": "function"
    },
    {
      "inputs": [],
      "name": "symbol",
      "outputs": [
        {
          "internalType": "string",
          "name": "",
          "type": "string"
        }
      ],
      "stateMutability": "view",
      "type": "function"
    },
    {
      "inputs": [
        {
          "internalType": "uint256",
          "name": "index",
          "type": "uint256"
        }
      ],
      "name": "tokenByIndex",
      "outputs": [
        {
          "internalType": "uint256",
          "name": "",
          "type": "uint256"
        }
      ],
      "stateMutability": "view",
      "type": "function"
    },
    {
      "inputs": [
        {
          "internalType": "address",
          "name": "owner",
          "type": "address"
        },
        {
          "internalType": "uint256",
          "name": "index",
          "type": "uint256"
        }
      ],
      "name": "tokenOfOwnerByIndex",
      "outputs": [
        {
          "internalType": "uint256",
          "name": "",
          "type": "uint256"
        }
      ],
      "stateMutability": "view",
      "type": "function"
    },
    {
      "inputs": [
        {
          "internalType": "uint256",
          "name": "tokenId",
          "type": "uint256"
        }
      ],
      "name": "tokenURI",
      "outputs": [
        {
          "internalType": "string",
          "name": "",
          "type": "string"
        }
      ],
      "stateMutability": "view",
      "type": "function"
    },
    {
      "inputs": [],
      "name": "totalSupply",
      "outputs": [
        {
          "internalType": "uint256",
          "name": "",
          "type": "uint256"
        }
      ],
      "stateMutability": "view",
      "type": "function"
    },
    {
      "inputs": [
        {
          "internalType": "address",
          "name": "from",
          "type": "address"
        },
        {
          "internalType": "address",
          "name": "to",
          "type": "address"
        },
        {
          "internalType": "uint256",
          "name": "tokenId",
          "type": "uint256"
        }
      ],
      "name": "transferFrom",
      "outputs": [],
      "stateMutability": "nonpayable",
      "type": "function"
    },
    {
      "inputs": [
        {
          "internalType": "uint256",
          "name": "",
          "type": "uint256"
        }
      ],
      "name": "yetis",
      "outputs": [
        {
          "internalType": "string",
          "name": "accessory",
          "type": "string"
        },
        {
          "internalType": "string",
          "name": "eyes",
          "type": "string"
        },
        {
          "internalType": "string",
          "name": "fur",
          "type": "string"
        },
        {
          "internalType": "string",
          "name": "horns",
          "type": "string"
        },
        {
          "internalType": "string",
          "name": "mouth",
          "type": "string"
        },
        {
          "internalType": "string",
          "name": "skin",
          "type": "string"
        }
      ],
      "stateMutability": "view",
      "type": "function"
    },
    {
      "inputs": [],
      "name": "mintYeti",
      "outputs": [],
      "stateMutability": "nonpayable",
      "type": "function"
    }
  ],
  "bytecode": "0x60806040526040518060e001604052806040518060400160405280600681526020017f4265616e6965000000000000000000000000000000000000000000000000000081525081526020016040518060400160405280600681526020017f426f77746965000000000000000000000000000000000000000000000000000081525081526020016040518060400160405280600981526020017f436967617265747465000000000000000000000000000000000000000000000081525081526020016040518060400160405280600981526020017f4661737420466f6f64000000000000000000000000000000000000000000000081525081526020016040518060400160405280600a81526020017f4865616470686f6e65730000000000000000000000000000000000000000000081525081526020016040518060400160405280600481526020017f4e6f6e650000000000000000000000000000000000000000000000000000000081525081526020016040518060400160405280600d81526020017f4e6f7365205069657263696e6700000000000000000000000000000000000000815250815250600b906007620001bc92919062000b86565b506040518061012001604052806040518060400160405280600a81526020017f416e67727920457965730000000000000000000000000000000000000000000081525081526020016040518060400160405280600a81526020017f426f72656420457965730000000000000000000000000000000000000000000081525081526020016040518060400160405280600981526020017f457965205061746368000000000000000000000000000000000000000000000081525081526020016040518060400160405280600781526020017f476c61737365730000000000000000000000000000000000000000000000000081525081526020016040518060400160405280600a81526020017f486170707920457965730000000000000000000000000000000000000000000081525081526020016040518060400160405280600b81526020017f4e6f726d616c204579657300000000000000000000000000000000000000000081525081526020016040518060400160405280600b81526020017f506973736564204579657300000000000000000000000000000000000000000081525081526020016040518060400160405280600681526020017f536861646573000000000000000000000000000000000000000000000000000081525081526020016040518060400160405280600d81526020017f536c656570696e67204579657300000000000000000000000000000000000000815250815250600c906009620003ec92919062000bed565b506040518061014001604052806040518060400160405280600981526020017f426569676520467572000000000000000000000000000000000000000000000081525081526020016040518060400160405280600881526020017f426c75652046757200000000000000000000000000000000000000000000000081525081526020016040518060400160405280601081526020017f426c75652046757220537472697065640000000000000000000000000000000081525081526020016040518060400160405280600881526020017f477261792046757200000000000000000000000000000000000000000000000081525081526020016040518060400160405280601281526020017f477261792046757220436865636b65726564000000000000000000000000000081525081526020016040518060400160405280600881526020017f477261792046757200000000000000000000000000000000000000000000000081525081526020016040518060400160405280600d81526020017f506978656c61746564204675720000000000000000000000000000000000000081525081526020016040518060400160405280600b81526020017f5261696e626f772046757200000000000000000000000000000000000000000081525081526020016040518060400160405280600981526020017f576869746520467572000000000000000000000000000000000000000000000081525081526020016040518060400160405280601181526020017f5768697465204675722053747269706564000000000000000000000000000000815250815250600d90600a6200065792919062000c54565b506040518060a001604052806040518060400160405280600b81526020017f426c61636b20486f726e7300000000000000000000000000000000000000000081525081526020016040518060400160405280600a81526020017f426c756520486f726e730000000000000000000000000000000000000000000081525081526020016040518060400160405280600c81526020017f4f72616e676520486f726e73000000000000000000000000000000000000000081525081526020016040518060400160405280600981526020017f52656420486f726e73000000000000000000000000000000000000000000000081525081526020016040518060400160405280600c81526020017f59656c6c6f7720486f726e730000000000000000000000000000000000000000815250815250600e9060056200079a92919062000cbb565b506040518060e001604052806040518060400160405280600b81526020017f4861707079204d6f75746800000000000000000000000000000000000000000081525081526020016040518060400160405280600c81526020017f4e6f726d616c204d6f757468000000000000000000000000000000000000000081525081526020016040518060400160405280600d81526020017f5261696e626f77204d6f7574680000000000000000000000000000000000000081525081526020016040518060400160405280601481526020017f5261696e626f77204d6f7574682057617665203100000000000000000000000081525081526020016040518060400160405280601481526020017f5261696e626f77204d6f7574682057617665203200000000000000000000000081525081526020016040518060400160405280600981526020017f536164204d6f757468000000000000000000000000000000000000000000000081525081526020016040518060400160405280600581526020017f5465657468000000000000000000000000000000000000000000000000000000815250815250600f9060076200095392919062000b86565b506040518060c001604052806040518060400160405280600981526020017f426c756520536b696e000000000000000000000000000000000000000000000081525081526020016040518060400160405280600e81526020017f4461726b20426c756520536b696e00000000000000000000000000000000000081525081526020016040518060400160405280600a81526020017f477265656e20536b696e0000000000000000000000000000000000000000000081525081526020016040518060400160405280600b81526020017f4f72616e676520536b696e00000000000000000000000000000000000000000081525081526020016040518060400160405280600981526020017f50696e6b20536b696e000000000000000000000000000000000000000000000081525081526020016040518060400160405280600b81526020017f507572706c6520536b696e000000000000000000000000000000000000000000815250815250601090600662000ad192919062000d22565b5034801562000adf57600080fd5b506040518060400160405280600781526020017f546573744e4654000000000000000000000000000000000000000000000000008152506040518060400160405280600281526020017f544e000000000000000000000000000000000000000000000000000000000000815250816000908051906020019062000b6492919062000d89565b50806001908051906020019062000b7d92919062000d89565b50505062000f0c565b82805482825590600052602060002090810192821562000bda579160200282015b8281111562000bd957825182908051906020019062000bc892919062000d89565b509160200191906001019062000ba7565b5b50905062000be9919062000e1a565b5090565b82805482825590600052602060002090810192821562000c41579160200282015b8281111562000c4057825182908051906020019062000c2f92919062000d89565b509160200191906001019062000c0e565b5b50905062000c50919062000e1a565b5090565b82805482825590600052602060002090810192821562000ca8579160200282015b8281111562000ca757825182908051906020019062000c9692919062000d89565b509160200191906001019062000c75565b5b50905062000cb7919062000e1a565b5090565b82805482825590600052602060002090810192821562000d0f579160200282015b8281111562000d0e57825182908051906020019062000cfd92919062000d89565b509160200191906001019062000cdc565b5b50905062000d1e919062000e1a565b5090565b82805482825590600052602060002090810192821562000d76579160200282015b8281111562000d7557825182908051906020019062000d6492919062000d89565b509160200191906001019062000d43565b5b50905062000d85919062000e1a565b5090565b82805462000d979062000ed6565b90600052602060002090601f01602090048101928262000dbb576000855562000e07565b82601f1062000dd657805160ff191683800117855562000e07565b8280016001018555821562000e07579182015b8281111562000e0657825182559160200191906001019062000de9565b5b50905062000e16919062000e42565b5090565b5b8082111562000e3e576000818162000e34919062000e61565b5060010162000e1b565b5090565b5b8082111562000e5d57600081600090555060010162000e43565b5090565b50805462000e6f9062000ed6565b6000825580601f1062000e83575062000ea4565b601f01602090049060005260206000209081019062000ea3919062000e42565b5b50565b7f4e487b7100000000000000000000000000000000000000000000000000000000600052602260045260246000fd5b6000600282049050600182168062000eef57607f821691505b6020821081141562000f065762000f0562000ea7565b5b50919050565b6141148062000f1c6000396000f3fe608060405234801561001057600080fd5b50600436106101165760003560e01c8063453f4830116100a257806395d89b411161007157806395d89b411461030a578063a22cb46514610328578063b88d4fde14610344578063c87b56dd14610360578063e985e9c51461039057610116565b8063453f4830146102705780634f6ccce71461027a5780636352211e146102aa57806370a08231146102da57610116565b80630dc532a9116100e95780630dc532a9146101b557806318160ddd146101ea57806323b872dd146102085780632f745c591461022457806342842e0e1461025457610116565b806301ffc9a71461011b57806306fdde031461014b578063081812fc14610169578063095ea7b314610199575b600080fd5b61013560048036038101906101309190612ea2565b6103c0565b6040516101429190612eea565b60405180910390f35b61015361043a565b6040516101609190612f9e565b60405180910390f35b610183600480360381019061017e9190612ff6565b6104cc565b6040516101909190613064565b60405180910390f35b6101b360048036038101906101ae91906130ab565b610551565b005b6101cf60048036038101906101ca9190612ff6565b610669565b6040516101e1969594939291906130eb565b60405180910390f35b6101f26109e5565b6040516101ff9190613185565b60405180910390f35b610222600480360381019061021d91906131a0565b6109f2565b005b61023e600480360381019061023991906130ab565b610a52565b60405161024b9190613185565b60405180910390f35b61026e600480360381019061026991906131a0565b610af7565b005b610278610b17565b005b610294600480360381019061028f9190612ff6565b61167c565b6040516102a19190613185565b60405180910390f35b6102c460048036038101906102bf9190612ff6565b6116ed565b6040516102d19190613064565b60405180910390f35b6102f460048036038101906102ef91906131f3565b61179f565b6040516103019190613185565b60405180910390f35b610312611857565b60405161031f9190612f9e565b60405180910390f35b610342600480360381019061033d919061324c565b6118e9565b005b61035e600480360381019061035991906133c1565b6118ff565b005b61037a60048036038101906103759190612ff6565b611961565b6040516103879190612f9e565b60405180910390f35b6103aa60048036038101906103a59190613444565b611a08565b6040516103b79190612eea565b60405180910390f35b60007f780e9d63000000000000000000000000000000000000000000000000000000007bffffffffffffffffffffffffffffffffffffffffffffffffffffffff1916827bffffffffffffffffffffffffffffffffffffffffffffffffffffffff19161480610433575061043282611a9c565b5b9050919050565b606060008054610449906134b3565b80601f0160208091040260200160405190810160405280929190818152602001828054610475906134b3565b80156104c25780601f10610497576101008083540402835291602001916104c2565b820191906000526020600020905b8154815290600101906020018083116104a557829003601f168201915b5050505050905090565b60006104d782611b7e565b610516576040517f08c379a000000000000000000000000000000000000000000000000000000000815260040161050d90613557565b60405180910390fd5b6004600083815260200190815260200160002060009054906101000a900473ffffffffffffffffffffffffffffffffffffffff169050919050565b600061055c826116ed565b90508073ffffffffffffffffffffffffffffffffffffffff168373ffffffffffffffffffffffffffffffffffffffff1614156105cd576040517f08c379a00000000000000000000000000000000000000000000000000000000081526004016105c4906135e9565b60405180910390fd5b8073ffffffffffffffffffffffffffffffffffffffff166105ec611bea565b73ffffffffffffffffffffffffffffffffffffffff16148061061b575061061a81610615611bea565b611a08565b5b61065a576040517f08c379a00000000000000000000000000000000000000000000000000000000081526004016106519061367b565b60405180910390fd5b6106648383611bf2565b505050565b600a818154811061067957600080fd5b906000526020600020906006020160009150905080600001805461069c906134b3565b80601f01602080910402602001604051908101604052809291908181526020018280546106c8906134b3565b80156107155780601f106106ea57610100808354040283529160200191610715565b820191906000526020600020905b8154815290600101906020018083116106f857829003601f168201915b50505050509080600101805461072a906134b3565b80601f0160208091040260200160405190810160405280929190818152602001828054610756906134b3565b80156107a35780601f10610778576101008083540402835291602001916107a3565b820191906000526020600020905b81548152906001019060200180831161078657829003601f168201915b5050505050908060020180546107b8906134b3565b80601f01602080910402602001604051908101604052809291908181526020018280546107e4906134b3565b80156108315780601f1061080657610100808354040283529160200191610831565b820191906000526020600020905b81548152906001019060200180831161081457829003601f168201915b505050505090806003018054610846906134b3565b80601f0160208091040260200160405190810160405280929190818152602001828054610872906134b3565b80156108bf5780601f10610894576101008083540402835291602001916108bf565b820191906000526020600020905b8154815290600101906020018083116108a257829003601f168201915b5050505050908060040180546108d4906134b3565b80601f0160208091040260200160405190810160405280929190818152602001828054610900906134b3565b801561094d5780601f106109225761010080835404028352916020019161094d565b820191906000526020600020905b81548152906001019060200180831161093057829003601f168201915b505050505090806005018054610962906134b3565b80601f016020809104026020016040519081016040528092919081815260200182805461098e906134b3565b80156109db5780601f106109b0576101008083540402835291602001916109db565b820191906000526020600020905b8154815290600101906020018083116109be57829003601f168201915b5050505050905086565b6000600880549050905090565b610a036109fd611bea565b82611cab565b610a42576040517f08c379a0000000000000000000000000000000000000000000000000000000008152600401610a399061370d565b60405180910390fd5b610a4d838383611d89565b505050565b6000610a5d8361179f565b8210610a9e576040517f08c379a0000000000000000000000000000000000000000000000000000000008152600401610a959061379f565b60405180910390fd5b600660008473ffffffffffffffffffffffffffffffffffffffff1673ffffffffffffffffffffffffffffffffffffffff168152602001908152602001600020600083815260200190815260200160002054905092915050565b610b12838383604051806020016040528060008152506118ff565b505050565b6000610b216109e5565b9050600a6040518060c00160405280600b610c43856040518060400160405280600b81526020017f4143434553534f52494553000000000000000000000000000000000000000000815250600b805480602002602001604051908101604052809291908181526020016000905b82821015610c3a578382906000526020600020018054610bad906134b3565b80601f0160208091040260200160405190810160405280929190818152602001828054610bd9906134b3565b8015610c265780601f10610bfb57610100808354040283529160200191610c26565b820191906000526020600020905b815481529060010190602001808311610c0957829003601f168201915b505050505081526020019060010190610b8e565b50505050611ff0565b81548110610c5457610c536137bf565b5b906000526020600020018054610c69906134b3565b80601f0160208091040260200160405190810160405280929190818152602001828054610c95906134b3565b8015610ce25780601f10610cb757610100808354040283529160200191610ce2565b820191906000526020600020905b815481529060010190602001808311610cc557829003601f168201915b50505050508152602001600c610dff856040518060400160405280600481526020017f4559455300000000000000000000000000000000000000000000000000000000815250600c805480602002602001604051908101604052809291908181526020016000905b82821015610df6578382906000526020600020018054610d69906134b3565b80601f0160208091040260200160405190810160405280929190818152602001828054610d95906134b3565b8015610de25780601f10610db757610100808354040283529160200191610de2565b820191906000526020600020905b815481529060010190602001808311610dc557829003601f168201915b505050505081526020019060010190610d4a565b50505050611ff0565b81548110610e1057610e0f6137bf565b5b906000526020600020018054610e25906134b3565b80601f0160208091040260200160405190810160405280929190818152602001828054610e51906134b3565b8015610e9e5780601f10610e7357610100808354040283529160200191610e9e565b820191906000526020600020905b815481529060010190602001808311610e8157829003601f168201915b50505050508152602001600d610fbb856040518060400160405280600381526020017f4655520000000000000000000000000000000000000000000000000000000000815250600d805480602002602001604051908101604052809291908181526020016000905b82821015610fb2578382906000526020600020018054610f25906134b3565b80601f0160208091040260200160405190810160405280929190818152602001828054610f51906134b3565b8015610f9e5780601f10610f7357610100808354040283529160200191610f9e565b820191906000526020600020905b815481529060010190602001808311610f8157829003601f168201915b505050505081526020019060010190610f06565b50505050611ff0565b81548110610fcc57610fcb6137bf565b5b906000526020600020018054610fe1906134b3565b80601f016020809104026020016040519081016040528092919081815260200182805461100d906134b3565b801561105a5780601f1061102f5761010080835404028352916020019161105a565b820191906000526020600020905b81548152906001019060200180831161103d57829003601f168201915b50505050508152602001600e611177856040518060400160405280600581526020017f484f524e53000000000000000000000000000000000000000000000000000000815250600e805480602002602001604051908101604052809291908181526020016000905b8282101561116e5783829060005260206000200180546110e1906134b3565b80601f016020809104026020016040519081016040528092919081815260200182805461110d906134b3565b801561115a5780601f1061112f5761010080835404028352916020019161115a565b820191906000526020600020905b81548152906001019060200180831161113d57829003601f168201915b5050505050815260200190600101906110c2565b50505050611ff0565b81548110611188576111876137bf565b5b90600052602060002001805461119d906134b3565b80601f01602080910402602001604051908101604052809291908181526020018280546111c9906134b3565b80156112165780601f106111eb57610100808354040283529160200191611216565b820191906000526020600020905b8154815290600101906020018083116111f957829003601f168201915b50505050508152602001600f611333856040518060400160405280600581526020017f4d4f555448000000000000000000000000000000000000000000000000000000815250600f805480602002602001604051908101604052809291908181526020016000905b8282101561132a57838290600052602060002001805461129d906134b3565b80601f01602080910402602001604051908101604052809291908181526020018280546112c9906134b3565b80156113165780601f106112eb57610100808354040283529160200191611316565b820191906000526020600020905b8154815290600101906020018083116112f957829003601f168201915b50505050508152602001906001019061127e565b50505050611ff0565b81548110611344576113436137bf565b5b906000526020600020018054611359906134b3565b80601f0160208091040260200160405190810160405280929190818152602001828054611385906134b3565b80156113d25780601f106113a7576101008083540402835291602001916113d2565b820191906000526020600020905b8154815290600101906020018083116113b557829003601f168201915b5050505050815260200160106114ef856040518060400160405280600481526020017f534b494e000000000000000000000000000000000000000000000000000000008152506010805480602002602001604051908101604052809291908181526020016000905b828210156114e6578382906000526020600020018054611459906134b3565b80601f0160208091040260200160405190810160405280929190818152602001828054611485906134b3565b80156114d25780601f106114a7576101008083540402835291602001916114d2565b820191906000526020600020905b8154815290600101906020018083116114b557829003601f168201915b50505050508152602001906001019061143a565b50505050611ff0565b81548110611500576114ff6137bf565b5b906000526020600020018054611515906134b3565b80601f0160208091040260200160405190810160405280929190818152602001828054611541906134b3565b801561158e5780601f106115635761010080835404028352916020019161158e565b820191906000526020600020905b81548152906001019060200180831161157157829003601f168201915b5050505050815250908060018154018082558091505060019003906000526020600020906006020160009091909190915060008201518160000190805190602001906115db929190612d93565b5060208201518160010190805190602001906115f8929190612d93565b506040820151816002019080519060200190611615929190612d93565b506060820151816003019080519060200190611632929190612d93565b50608082015181600401908051906020019061164f929190612d93565b5060a082015181600501908051906020019061166c929190612d93565b5050506116793382612065565b50565b60006116866109e5565b82106116c7576040517f08c379a00000000000000000000000000000000000000000000000000000000081526004016116be90613860565b60405180910390fd5b600882815481106116db576116da6137bf565b5b90600052602060002001549050919050565b6000806002600084815260200190815260200160002060009054906101000a900473ffffffffffffffffffffffffffffffffffffffff169050600073ffffffffffffffffffffffffffffffffffffffff168173ffffffffffffffffffffffffffffffffffffffff161415611796576040517f08c379a000000000000000000000000000000000000000000000000000000000815260040161178d906138f2565b60405180910390fd5b80915050919050565b60008073ffffffffffffffffffffffffffffffffffffffff168273ffffffffffffffffffffffffffffffffffffffff161415611810576040517f08c379a000000000000000000000000000000000000000000000000000000000815260040161180790613984565b60405180910390fd5b600360008373ffffffffffffffffffffffffffffffffffffffff1673ffffffffffffffffffffffffffffffffffffffff168152602001908152602001600020549050919050565b606060018054611866906134b3565b80601f0160208091040260200160405190810160405280929190818152602001828054611892906134b3565b80156118df5780601f106118b4576101008083540402835291602001916118df565b820191906000526020600020905b8154815290600101906020018083116118c257829003601f168201915b5050505050905090565b6118fb6118f4611bea565b8383612083565b5050565b61191061190a611bea565b83611cab565b61194f576040517f08c379a00000000000000000000000000000000000000000000000000000000081526004016119469061370d565b60405180910390fd5b61195b848484846121f0565b50505050565b606061196c82611b7e565b6119ab576040517f08c379a00000000000000000000000000000000000000000000000000000000081526004016119a290613a16565b60405180910390fd5b60006119b561224c565b905060008151116119d55760405180602001604052806000815250611a00565b806119df84612263565b6040516020016119f0929190613a72565b6040516020818303038152906040525b915050919050565b6000600560008473ffffffffffffffffffffffffffffffffffffffff1673ffffffffffffffffffffffffffffffffffffffff16815260200190815260200160002060008373ffffffffffffffffffffffffffffffffffffffff1673ffffffffffffffffffffffffffffffffffffffff16815260200190815260200160002060009054906101000a900460ff16905092915050565b60007f80ac58cd000000000000000000000000000000000000000000000000000000007bffffffffffffffffffffffffffffffffffffffffffffffffffffffff1916827bffffffffffffffffffffffffffffffffffffffffffffffffffffffff19161480611b6757507f5b5e139f000000000000000000000000000000000000000000000000000000007bffffffffffffffffffffffffffffffffffffffffffffffffffffffff1916827bffffffffffffffffffffffffffffffffffffffffffffffffffffffff1916145b80611b775750611b76826123c4565b5b9050919050565b60008073ffffffffffffffffffffffffffffffffffffffff166002600084815260200190815260200160002060009054906101000a900473ffffffffffffffffffffffffffffffffffffffff1673ffffffffffffffffffffffffffffffffffffffff1614159050919050565b600033905090565b816004600083815260200190815260200160002060006101000a81548173ffffffffffffffffffffffffffffffffffffffff021916908373ffffffffffffffffffffffffffffffffffffffff160217905550808273ffffffffffffffffffffffffffffffffffffffff16611c65836116ed565b73ffffffffffffffffffffffffffffffffffffffff167f8c5be1e5ebec7d5bd14f71427d1e84f3dd0314c0f7b2291e5b200ac8c7c3b92560405160405180910390a45050565b6000611cb682611b7e565b611cf5576040517f08c379a0000000000000000000000000000000000000000000000000000000008152600401611cec90613b08565b60405180910390fd5b6000611d00836116ed565b90508073ffffffffffffffffffffffffffffffffffffffff168473ffffffffffffffffffffffffffffffffffffffff161480611d6f57508373ffffffffffffffffffffffffffffffffffffffff16611d57846104cc565b73ffffffffffffffffffffffffffffffffffffffff16145b80611d805750611d7f8185611a08565b5b91505092915050565b8273ffffffffffffffffffffffffffffffffffffffff16611da9826116ed565b73ffffffffffffffffffffffffffffffffffffffff1614611dff576040517f08c379a0000000000000000000000000000000000000000000000000000000008152600401611df690613b9a565b60405180910390fd5b600073ffffffffffffffffffffffffffffffffffffffff168273ffffffffffffffffffffffffffffffffffffffff161415611e6f576040517f08c379a0000000000000000000000000000000000000000000000000000000008152600401611e6690613c2c565b60405180910390fd5b611e7a83838361242e565b611e85600082611bf2565b6001600360008573ffffffffffffffffffffffffffffffffffffffff1673ffffffffffffffffffffffffffffffffffffffff1681526020019081526020016000206000828254611ed59190613c7b565b925050819055506001600360008473ffffffffffffffffffffffffffffffffffffffff1673ffffffffffffffffffffffffffffffffffffffff1681526020019081526020016000206000828254611f2c9190613caf565b92505081905550816002600083815260200190815260200160002060006101000a81548173ffffffffffffffffffffffffffffffffffffffff021916908373ffffffffffffffffffffffffffffffffffffffff160217905550808273ffffffffffffffffffffffffffffffffffffffff168473ffffffffffffffffffffffffffffffffffffffff167fddf252ad1be2c89b69c2b068fc378daa952ba7f163c4a11628f55a4df523b3ef60405160405180910390a4611feb838383612542565b505050565b600080611ffc85612547565b8460405160200161200e929190613a72565b60405160208183030381529060405290506000816040516020016120329190613d05565b6040516020818303038152906040528051906020012060001c905083518161205a9190613d4b565b925050509392505050565b61207f8282604051806020016040528060008152506126a8565b5050565b8173ffffffffffffffffffffffffffffffffffffffff168373ffffffffffffffffffffffffffffffffffffffff1614156120f2576040517f08c379a00000000000000000000000000000000000000000000000000000000081526004016120e990613dc8565b60405180910390fd5b80600560008573ffffffffffffffffffffffffffffffffffffffff1673ffffffffffffffffffffffffffffffffffffffff16815260200190815260200160002060008473ffffffffffffffffffffffffffffffffffffffff1673ffffffffffffffffffffffffffffffffffffffff16815260200190815260200160002060006101000a81548160ff0219169083151502179055508173ffffffffffffffffffffffffffffffffffffffff168373ffffffffffffffffffffffffffffffffffffffff167f17307eab39ab6107e8899845ad3d59bd9653f200f220920489ca2b5937696c31836040516121e39190612eea565b60405180910390a3505050565b6121fb848484611d89565b61220784848484612703565b612246576040517f08c379a000000000000000000000000000000000000000000000000000000000815260040161223d90613e5a565b60405180910390fd5b50505050565b606060405180602001604052806000815250905090565b606060008214156122ab576040518060400160405280600181526020017f300000000000000000000000000000000000000000000000000000000000000081525090506123bf565b600082905060005b600082146122dd5780806122c690613e7a565b915050600a826122d69190613ec3565b91506122b3565b60008167ffffffffffffffff8111156122f9576122f8613296565b5b6040519080825280601f01601f19166020018201604052801561232b5781602001600182028036833780820191505090505b5090505b600085146123b8576001826123449190613c7b565b9150600a856123539190613d4b565b603061235f9190613caf565b60f81b818381518110612375576123746137bf565b5b60200101907effffffffffffffffffffffffffffffffffffffffffffffffffffffffffffff1916908160001a905350600a856123b19190613ec3565b945061232f565b8093505050505b919050565b60007f01ffc9a7000000000000000000000000000000000000000000000000000000007bffffffffffffffffffffffffffffffffffffffffffffffffffffffff1916827bffffffffffffffffffffffffffffffffffffffffffffffffffffffff1916149050919050565b61243983838361288b565b600073ffffffffffffffffffffffffffffffffffffffff168373ffffffffffffffffffffffffffffffffffffffff16141561247c5761247781612890565b6124bb565b8173ffffffffffffffffffffffffffffffffffffffff168373ffffffffffffffffffffffffffffffffffffffff16146124ba576124b983826128d9565b5b5b600073ffffffffffffffffffffffffffffffffffffffff168273ffffffffffffffffffffffffffffffffffffffff1614156124fe576124f981612a46565b61253d565b8273ffffffffffffffffffffffffffffffffffffffff168273ffffffffffffffffffffffffffffffffffffffff161461253c5761253b8282612b17565b5b5b505050565b505050565b6060600082141561258f576040518060400160405280600181526020017f300000000000000000000000000000000000000000000000000000000000000081525090506126a3565b600082905060005b600082146125c15780806125aa90613e7a565b915050600a826125ba9190613ec3565b9150612597565b60008167ffffffffffffffff8111156125dd576125dc613296565b5b6040519080825280601f01601f19166020018201604052801561260f5781602001600182028036833780820191505090505b5090505b6000851461269c576001826126289190613c7b565b9150600a856126379190613d4b565b60306126439190613caf565b60f81b818381518110612659576126586137bf565b5b60200101907effffffffffffffffffffffffffffffffffffffffffffffffffffffffffffff1916908160001a905350600a856126959190613ec3565b9450612613565b8093505050505b919050565b6126b28383612b96565b6126bf6000848484612703565b6126fe576040517f08c379a00000000000000000000000000000000000000000000000000000000081526004016126f590613e5a565b60405180910390fd5b505050565b60006127248473ffffffffffffffffffffffffffffffffffffffff16612d70565b1561287e578373ffffffffffffffffffffffffffffffffffffffff1663150b7a0261274d611bea565b8786866040518563ffffffff1660e01b815260040161276f9493929190613f49565b6020604051808303816000875af19250505080156127ab57506040513d601f19601f820116820180604052508101906127a89190613faa565b60015b61282e573d80600081146127db576040519150601f19603f3d011682016040523d82523d6000602084013e6127e0565b606091505b50600081511415612826576040517f08c379a000000000000000000000000000000000000000000000000000000000815260040161281d90613e5a565b60405180910390fd5b805181602001fd5b63150b7a0260e01b7bffffffffffffffffffffffffffffffffffffffffffffffffffffffff1916817bffffffffffffffffffffffffffffffffffffffffffffffffffffffff191614915050612883565b600190505b949350505050565b505050565b6008805490506009600083815260200190815260200160002081905550600881908060018154018082558091505060019003906000526020600020016000909190919091505550565b600060016128e68461179f565b6128f09190613c7b565b90506000600760008481526020019081526020016000205490508181146129d5576000600660008673ffffffffffffffffffffffffffffffffffffffff1673ffffffffffffffffffffffffffffffffffffffff168152602001908152602001600020600084815260200190815260200160002054905080600660008773ffffffffffffffffffffffffffffffffffffffff1673ffffffffffffffffffffffffffffffffffffffff168152602001908152602001600020600084815260200190815260200160002081905550816007600083815260200190815260200160002081905550505b6007600084815260200190815260200160002060009055600660008573ffffffffffffffffffffffffffffffffffffffff1673ffffffffffffffffffffffffffffffffffffffff16815260200190815260200160002060008381526020019081526020016000206000905550505050565b60006001600880549050612a5a9190613c7b565b9050600060096000848152602001908152602001600020549050600060088381548110612a8a57612a896137bf565b5b906000526020600020015490508060088381548110612aac57612aab6137bf565b5b906000526020600020018190555081600960008381526020019081526020016000208190555060096000858152602001908152602001600020600090556008805480612afb57612afa613fd7565b5b6001900381819060005260206000200160009055905550505050565b6000612b228361179f565b905081600660008573ffffffffffffffffffffffffffffffffffffffff1673ffffffffffffffffffffffffffffffffffffffff168152602001908152602001600020600083815260200190815260200160002081905550806007600084815260200190815260200160002081905550505050565b600073ffffffffffffffffffffffffffffffffffffffff168273ffffffffffffffffffffffffffffffffffffffff161415612c06576040517f08c379a0000000000000000000000000000000000000000000000000000000008152600401612bfd90614052565b60405180910390fd5b612c0f81611b7e565b15612c4f576040517f08c379a0000000000000000000000000000000000000000000000000000000008152600401612c46906140be565b60405180910390fd5b612c5b6000838361242e565b6001600360008473ffffffffffffffffffffffffffffffffffffffff1673ffffffffffffffffffffffffffffffffffffffff1681526020019081526020016000206000828254612cab9190613caf565b92505081905550816002600083815260200190815260200160002060006101000a81548173ffffffffffffffffffffffffffffffffffffffff021916908373ffffffffffffffffffffffffffffffffffffffff160217905550808273ffffffffffffffffffffffffffffffffffffffff16600073ffffffffffffffffffffffffffffffffffffffff167fddf252ad1be2c89b69c2b068fc378daa952ba7f163c4a11628f55a4df523b3ef60405160405180910390a4612d6c60008383612542565b5050565b6000808273ffffffffffffffffffffffffffffffffffffffff163b119050919050565b828054612d9f906134b3565b90600052602060002090601f016020900481019282612dc15760008555612e08565b82601f10612dda57805160ff1916838001178555612e08565b82800160010185558215612e08579182015b82811115612e07578251825591602001919060010190612dec565b5b509050612e159190612e19565b5090565b5b80821115612e32576000816000905550600101612e1a565b5090565b6000604051905090565b600080fd5b600080fd5b60007fffffffff0000000000000000000000000000000000000000000000000000000082169050919050565b612e7f81612e4a565b8114612e8a57600080fd5b50565b600081359050612e9c81612e76565b92915050565b600060208284031215612eb857612eb7612e40565b5b6000612ec684828501612e8d565b91505092915050565b60008115159050919050565b612ee481612ecf565b82525050565b6000602082019050612eff6000830184612edb565b92915050565b600081519050919050565b600082825260208201905092915050565b60005b83811015612f3f578082015181840152602081019050612f24565b83811115612f4e576000848401525b50505050565b6000601f19601f8301169050919050565b6000612f7082612f05565b612f7a8185612f10565b9350612f8a818560208601612f21565b612f9381612f54565b840191505092915050565b60006020820190508181036000830152612fb88184612f65565b905092915050565b6000819050919050565b612fd381612fc0565b8114612fde57600080fd5b50565b600081359050612ff081612fca565b92915050565b60006020828403121561300c5761300b612e40565b5b600061301a84828501612fe1565b91505092915050565b600073ffffffffffffffffffffffffffffffffffffffff82169050919050565b600061304e82613023565b9050919050565b61305e81613043565b82525050565b60006020820190506130796000830184613055565b92915050565b61308881613043565b811461309357600080fd5b50565b6000813590506130a58161307f565b92915050565b600080604083850312156130c2576130c1612e40565b5b60006130d085828601613096565b92505060206130e185828601612fe1565b9150509250929050565b600060c08201905081810360008301526131058189612f65565b905081810360208301526131198188612f65565b9050818103604083015261312d8187612f65565b905081810360608301526131418186612f65565b905081810360808301526131558185612f65565b905081810360a08301526131698184612f65565b9050979650505050505050565b61317f81612fc0565b82525050565b600060208201905061319a6000830184613176565b92915050565b6000806000606084860312156131b9576131b8612e40565b5b60006131c786828701613096565b93505060206131d886828701613096565b92505060406131e986828701612fe1565b9150509250925092565b60006020828403121561320957613208612e40565b5b600061321784828501613096565b91505092915050565b61322981612ecf565b811461323457600080fd5b50565b60008135905061324681613220565b92915050565b6000806040838503121561326357613262612e40565b5b600061327185828601613096565b925050602061328285828601613237565b9150509250929050565b600080fd5b600080fd5b7f4e487b7100000000000000000000000000000000000000000000000000000000600052604160045260246000fd5b6132ce82612f54565b810181811067ffffffffffffffff821117156132ed576132ec613296565b5b80604052505050565b6000613300612e36565b905061330c82826132c5565b919050565b600067ffffffffffffffff82111561332c5761332b613296565b5b61333582612f54565b9050602081019050919050565b82818337600083830152505050565b600061336461335f84613311565b6132f6565b9050828152602081018484840111156133805761337f613291565b5b61338b848285613342565b509392505050565b600082601f8301126133a8576133a761328c565b5b81356133b8848260208601613351565b91505092915050565b600080600080608085870312156133db576133da612e40565b5b60006133e987828801613096565b94505060206133fa87828801613096565b935050604061340b87828801612fe1565b925050606085013567ffffffffffffffff81111561342c5761342b612e45565b5b61343887828801613393565b91505092959194509250565b6000806040838503121561345b5761345a612e40565b5b600061346985828601613096565b925050602061347a85828601613096565b9150509250929050565b7f4e487b7100000000000000000000000000000000000000000000000000000000600052602260045260246000fd5b600060028204905060018216806134cb57607f821691505b602082108114156134df576134de613484565b5b50919050565b7f4552433732313a20617070726f76656420717565727920666f72206e6f6e657860008201527f697374656e7420746f6b656e0000000000000000000000000000000000000000602082015250565b6000613541602c83612f10565b915061354c826134e5565b604082019050919050565b6000602082019050818103600083015261357081613534565b9050919050565b7f4552433732313a20617070726f76616c20746f2063757272656e74206f776e6560008201527f7200000000000000000000000000000000000000000000000000000000000000602082015250565b60006135d3602183612f10565b91506135de82613577565b604082019050919050565b60006020820190508181036000830152613602816135c6565b9050919050565b7f4552433732313a20617070726f76652063616c6c6572206973206e6f74206f7760008201527f6e6572206e6f7220617070726f76656420666f7220616c6c0000000000000000602082015250565b6000613665603883612f10565b915061367082613609565b604082019050919050565b6000602082019050818103600083015261369481613658565b9050919050565b7f4552433732313a207472616e736665722063616c6c6572206973206e6f74206f60008201527f776e6572206e6f7220617070726f766564000000000000000000000000000000602082015250565b60006136f7603183612f10565b91506137028261369b565b604082019050919050565b60006020820190508181036000830152613726816136ea565b9050919050565b7f455243373231456e756d657261626c653a206f776e657220696e646578206f7560008201527f74206f6620626f756e6473000000000000000000000000000000000000000000602082015250565b6000613789602b83612f10565b91506137948261372d565b604082019050919050565b600060208201905081810360008301526137b88161377c565b9050919050565b7f4e487b7100000000000000000000000000000000000000000000000000000000600052603260045260246000fd5b7f455243373231456e756d657261626c653a20676c6f62616c20696e646578206f60008201527f7574206f6620626f756e64730000000000000000000000000000000000000000602082015250565b600061384a602c83612f10565b9150613855826137ee565b604082019050919050565b600060208201905081810360008301526138798161383d565b9050919050565b7f4552433732313a206f776e657220717565727920666f72206e6f6e657869737460008201527f656e7420746f6b656e0000000000000000000000000000000000000000000000602082015250565b60006138dc602983612f10565b91506138e782613880565b604082019050919050565b6000602082019050818103600083015261390b816138cf565b9050919050565b7f4552433732313a2062616c616e636520717565727920666f7220746865207a6560008201527f726f206164647265737300000000000000000000000000000000000000000000602082015250565b600061396e602a83612f10565b915061397982613912565b604082019050919050565b6000602082019050818103600083015261399d81613961565b9050919050565b7f4552433732314d657461646174613a2055524920717565727920666f72206e6f60008201527f6e6578697374656e7420746f6b656e0000000000000000000000000000000000602082015250565b6000613a00602f83612f10565b9150613a0b826139a4565b604082019050919050565b60006020820190508181036000830152613a2f816139f3565b9050919050565b600081905092915050565b6000613a4c82612f05565b613a568185613a36565b9350613a66818560208601612f21565b80840191505092915050565b6000613a7e8285613a41565b9150613a8a8284613a41565b91508190509392505050565b7f4552433732313a206f70657261746f7220717565727920666f72206e6f6e657860008201527f697374656e7420746f6b656e0000000000000000000000000000000000000000602082015250565b6000613af2602c83612f10565b9150613afd82613a96565b604082019050919050565b60006020820190508181036000830152613b2181613ae5565b9050919050565b7f4552433732313a207472616e736665722066726f6d20696e636f72726563742060008201527f6f776e6572000000000000000000000000000000000000000000000000000000602082015250565b6000613b84602583612f10565b9150613b8f82613b28565b604082019050919050565b60006020820190508181036000830152613bb381613b77565b9050919050565b7f4552433732313a207472616e7366657220746f20746865207a65726f2061646460008201527f7265737300000000000000000000000000000000000000000000000000000000602082015250565b6000613c16602483612f10565b9150613c2182613bba565b604082019050919050565b60006020820190508181036000830152613c4581613c09565b9050919050565b7f4e487b7100000000000000000000000000000000000000000000000000000000600052601160045260246000fd5b6000613c8682612fc0565b9150613c9183612fc0565b925082821015613ca457613ca3613c4c565b5b828203905092915050565b6000613cba82612fc0565b9150613cc583612fc0565b9250827fffffffffffffffffffffffffffffffffffffffffffffffffffffffffffffffff03821115613cfa57613cf9613c4c565b5b828201905092915050565b6000613d118284613a41565b915081905092915050565b7f4e487b7100000000000000000000000000000000000000000000000000000000600052601260045260246000fd5b6000613d5682612fc0565b9150613d6183612fc0565b925082613d7157613d70613d1c565b5b828206905092915050565b7f4552433732313a20617070726f766520746f2063616c6c657200000000000000600082015250565b6000613db2601983612f10565b9150613dbd82613d7c565b602082019050919050565b60006020820190508181036000830152613de181613da5565b9050919050565b7f4552433732313a207472616e7366657220746f206e6f6e20455243373231526560008201527f63656976657220696d706c656d656e7465720000000000000000000000000000602082015250565b6000613e44603283612f10565b9150613e4f82613de8565b604082019050919050565b60006020820190508181036000830152613e7381613e37565b9050919050565b6000613e8582612fc0565b91507fffffffffffffffffffffffffffffffffffffffffffffffffffffffffffffffff821415613eb857613eb7613c4c565b5b600182019050919050565b6000613ece82612fc0565b9150613ed983612fc0565b925082613ee957613ee8613d1c565b5b828204905092915050565b600081519050919050565b600082825260208201905092915050565b6000613f1b82613ef4565b613f258185613eff565b9350613f35818560208601612f21565b613f3e81612f54565b840191505092915050565b6000608082019050613f5e6000830187613055565b613f6b6020830186613055565b613f786040830185613176565b8181036060830152613f8a8184613f10565b905095945050505050565b600081519050613fa481612e76565b92915050565b600060208284031215613fc057613fbf612e40565b5b6000613fce84828501613f95565b91505092915050565b7f4e487b7100000000000000000000000000000000000000000000000000000000600052603160045260246000fd5b7f4552433732313a206d696e7420746f20746865207a65726f2061646472657373600082015250565b600061403c602083612f10565b915061404782614006565b602082019050919050565b6000602082019050818103600083015261406b8161402f565b9050919050565b7f4552433732313a20746f6b656e20616c7265616479206d696e74656400000000600082015250565b60006140a8601c83612f10565b91506140b382614072565b602082019050919050565b600060208201905081810360008301526140d78161409b565b905091905056fea26469706673582212200eb3037a98335008f2ee8a500eb9248a34b465776e6063cfd06ffa1a3d05e1f864736f6c634300080b0033",
  "immutableReferences": {},
  "source": "// SPDX-License-Identifier: MIT\npragma solidity >= 0.5.0;\n\nimport \"@openzeppelin/contracts/token/ERC721/extensions/ERC721Enumerable.sol\";\nimport \"@openzeppelin/contracts/access/Ownable.sol\";\nimport \"@openzeppelin/contracts/utils/math/SafeMath.sol\";\n// import \"@openzeppelin/contracts/token/ERC721/ERC721.sol\";\n\ncontract YetiMinter is ERC721Enumerable{\n\tusing SafeMath for uint256;\n\t\n\tstruct Yeti {\n\t\tstring accessory;\n\t\tstring eyes;\n\t\tstring fur;\n\t\tstring horns;\n\t\tstring mouth;\n\t\tstring skin;\n\t}\n\n\tYeti[] public yetis;\n\n\tstring[] private accessories = [\"Beanie\", \"Bowtie\", \"Cigarette\", \"Fast Food\",\"Headphones\", \"None\", \"Nose Piercing\"];\n\tstring[] private eyes = [\"Angry Eyes\",\"Bored Eyes\", \"Eye Patch\", \"Glasses\", \"Happy Eyes\", \"Normal Eyes\", \"Pissed Eyes\", \"Shades\", \"Sleeping Eyes\"];\n\tstring[] private fur = [\"Beige Fur\", \"Blue Fur\", \"Blue Fur Striped\", \"Gray Fur\", \"Gray Fur Checkered\", \"Gray Fur\", \"Pixelated Fur\", \"Rainbow Fur\", \"White Fur\", \"White Fur Striped\"];\n\tstring[] private horns = [\"Black Horns\", \"Blue Horns\", \"Orange Horns\", \"Red Horns\", \"Yellow Horns\"];\n\tstring[] private mouth = [\"Happy Mouth\", \"Normal Mouth\", \"Rainbow Mouth\", \"Rainbow Mouth Wave 1\", \"Rainbow Mouth Wave 2\", \"Sad Mouth\", \"Teeth\"];\n\tstring[] private skin = [\"Blue Skin\", \"Dark Blue Skin\", \"Green Skin\",  \"Orange Skin\", \"Pink Skin\", \"Purple Skin\"];\n\n\n\tconstructor() ERC721('TestNFT', 'TN') {\n\t\t\n\t}\n\n\n\t// Function to mint A new Yeti NFT.\n\tfunction mintYeti() public{\n\n\t\tuint256 mintIndex = totalSupply();\n\n\t\tyetis.push(Yeti(\n\t\t\taccessories[_generateRandomAttribute(mintIndex, \"ACCESSORIES\", accessories)],\n\t\t\teyes[_generateRandomAttribute(mintIndex, \"EYES\", eyes)], \n\t\t\tfur[_generateRandomAttribute(mintIndex, \"FUR\", fur)],\n\t\t\thorns[_generateRandomAttribute(mintIndex, \"HORNS\", horns)], \n\t\t\tmouth[_generateRandomAttribute(mintIndex, \"MOUTH\", mouth)], \n\t\t\tskin[_generateRandomAttribute(mintIndex, \"SKIN\", skin)]\n\t\t\t));\n\n\t\t_safeMint(msg.sender, mintIndex);\n\n\n\t}\n\n\tfunction _generateRandomAttribute(uint256 _yetiId, string memory _attribute, string[] memory _attributeList) private view returns(uint256) {\n\t\t// Use attribute name and NFT number to generate randomness.\n\t\t// string yetiId = toString(_yetiId);\n\t\t// string str = string( abi.encodePacked(_attribute, yetiId) );\n\t\tstring memory str = string(abi.encodePacked(toString(_yetiId), _attribute));\n\t\tuint256 rand = uint256(keccak256(abi.encodePacked(str)));\n\t\treturn rand % _attributeList.length;\n\t}\n\n\t// Function for converting uint256 to string\n\tfunction toString(uint256 value) internal pure returns (string memory) {\n\t    // Inspired by OraclizeAPI's implementation - MIT license\n\t    // https://github.com/oraclize/ethereum-api/blob/b42146b063c7d6ee1358846c198246239e9360e8/oraclizeAPI_0.4.25.sol\n\n\t        if (value == 0) {\n\t            return \"0\";\n\t        }\n\t        uint256 temp = value;\n\t        uint256 digits;\n\t        while (temp != 0) {\n\t            digits++;\n\t            temp /= 10;\n\t        }\n\t        bytes memory buffer = new bytes(digits);\n\t        while (value != 0) {\n\t            digits -= 1;\n\t            buffer[digits] = bytes1(uint8(48 + uint256(value % 10)));\n\t            value /= 10;\n\t        }\n\t        return string(buffer);\n\t    }\n\n}\n\n",
  "sourcePath": "/home/rani/truffle-project/contracts/YetiMinter.sol",
  "compiler": {
    "name": "solc",
    "version": "0.8.11+commit.d7f03943.Emscripten.clang"
  },
  "schemaVersion": "3.4.4",
  "updatedAt": "2022-02-10T13:06:33.585Z",
  "devdoc": {
    "kind": "dev",
    "methods": {
      "approve(address,uint256)": {
        "details": "See {IERC721-approve}."
      },
      "balanceOf(address)": {
        "details": "See {IERC721-balanceOf}."
      },
      "getApproved(uint256)": {
        "details": "See {IERC721-getApproved}."
      },
      "isApprovedForAll(address,address)": {
        "details": "See {IERC721-isApprovedForAll}."
      },
      "name()": {
        "details": "See {IERC721Metadata-name}."
      },
      "ownerOf(uint256)": {
        "details": "See {IERC721-ownerOf}."
      },
      "safeTransferFrom(address,address,uint256)": {
        "details": "See {IERC721-safeTransferFrom}."
      },
      "safeTransferFrom(address,address,uint256,bytes)": {
        "details": "See {IERC721-safeTransferFrom}."
      },
      "setApprovalForAll(address,bool)": {
        "details": "See {IERC721-setApprovalForAll}."
      },
      "supportsInterface(bytes4)": {
        "details": "See {IERC165-supportsInterface}."
      },
      "symbol()": {
        "details": "See {IERC721Metadata-symbol}."
      },
      "tokenByIndex(uint256)": {
        "details": "See {IERC721Enumerable-tokenByIndex}."
      },
      "tokenOfOwnerByIndex(address,uint256)": {
        "details": "See {IERC721Enumerable-tokenOfOwnerByIndex}."
      },
      "tokenURI(uint256)": {
        "details": "See {IERC721Metadata-tokenURI}."
      },
      "totalSupply()": {
        "details": "See {IERC721Enumerable-totalSupply}."
      },
      "transferFrom(address,address,uint256)": {
        "details": "See {IERC721-transferFrom}."
      }
    },
    "version": 1
  },
  "userdoc": {
    "kind": "user",
    "methods": {},
    "version": 1
  }
}