{
  "contractName": "YetiMinter",
  "abi": [
    {
      "inputs": [],
      "name": "mintYeti",
      "outputs": [],
      "stateMutability": "nonpayable",
      "type": "function"
    }
  ],
  "bytecode": "0x60806040526040518061012001604052806040518060400160405280600a81526020017f416e67727920457965730000000000000000000000000000000000000000000081525081526020016040518060400160405280600a81526020017f426f72656420457965730000000000000000000000000000000000000000000081525081526020016040518060400160405280600981526020017f457965205061746368000000000000000000000000000000000000000000000081525081526020016040518060400160405280600781526020017f476c61737365730000000000000000000000000000000000000000000000000081525081526020016040518060400160405280600a81526020017f486170707920457965730000000000000000000000000000000000000000000081525081526020016040518060400160405280600b81526020017f4e6f726d616c204579657300000000000000000000000000000000000000000081525081526020016040518060400160405280600b81526020017f506973736564204579657300000000000000000000000000000000000000000081525081526020016040518060400160405280600681526020017f536861646573000000000000000000000000000000000000000000000000000081525081526020016040518060400160405280600d81526020017f536c656570696e672045796573000000000000000000000000000000000000008152508152506000906009610231929190610244565b5034801561023e57600080fd5b5061040c565b828054828255906000526020600020908101928215610293579160200282015b828111156102925782518290805190602001906102829291906102a4565b5091602001919060010190610264565b5b5090506102a0919061032a565b5090565b8280546102b0906103da565b90600052602060002090601f0160209004810192826102d25760008555610319565b82601f106102eb57805160ff1916838001178555610319565b82800160010185558215610319579182015b828111156103185782518255916020019190600101906102fd565b5b509050610326919061034e565b5090565b5b8082111561034a5760008181610341919061036b565b5060010161032b565b5090565b5b8082111561036757600081600090555060010161034f565b5090565b508054610377906103da565b6000825580601f1061038957506103a8565b601f0160209004906000526020600020908101906103a7919061034e565b5b50565b7f4e487b7100000000000000000000000000000000000000000000000000000000600052602260045260246000fd5b600060028204905060018216806103f257607f821691505b60208210811415610406576104056103ab565b5b50919050565b606d8061041a6000396000f3fe6080604052348015600f57600080fd5b506004361060285760003560e01c8063453f483014602d575b600080fd5b60336035565b005b56fea2646970667358221220109125cce19d5ac40825f1c2a3612aa3c4ef3565ce78052052e3de8626aa2cb364736f6c634300080b0033",
  "immutableReferences": {},
  "source": "// SPDX-License-Identifier: MIT\npragma solidity >= 0.5.0;\n\nimport \"@openzeppelin/contracts/token/ERC721/extensions/ERC721Enumerable.sol\";\nimport \"@openzeppelin/contracts/access/Ownable.sol\";\nimport \"@openzeppelin/contracts/utils/math/SafeMath.sol\";\nimport \"@openzeppelin/contracts/token/ERC721/ERC721.sol\";\n\ncontract YetiMinter {\n\tusing SafeMath for uint256;\n\t\n\t// struct Yeti {\n\t// \tstring accessory;\n\t// \tstring eyes;\n\t// \tstring fur;\n\t// \tstring horns;\n\t// \tstring mouth;\n\t// \tstring skin;\n\t// }\n\n\t// Yeti[] public yetis;\n\n\tstring[] private eyes = [\n\t\t\"Angry Eyes\",\n\t\t\"Bored Eyes\",\n\t\t\"Eye Patch\",\n\t\t\"Glasses\",\n\t\t\"Happy Eyes\",\n\t\t\"Normal Eyes\",\n\t\t\"Pissed Eyes\",\n\t\t\"Shades\",\n\t\t\"Sleeping Eyes\"];\n\n\t// Function to mint A new Yeti NFT.\n\tfunction mintYeti() public {\n\n\n\t\t// yetis.push(Yeti(accessory, eyes, fur, horns, mouth, skin));\n\t}\n\n\tfunction _generateRandomAttribute(uint256 _yetiId, string memory _attribute, string[] memory _attributeList) private view returns(uint256) {\n\t\t// Use attribute name and NFT number to generate randomness.\n\t\t// string yetiId = toString(_yetiId);\n\t\t// string str = string( abi.encodePacked(_attribute, yetiId) );\n\t\tstring memory str = string(abi.encodePacked(toString(_yetiId), _attribute));\n\t\tuint256 rand = uint256(keccak256(abi.encodePacked(str)));\n\t\treturn rand % _attributeList.length;\n\t}\n\n\t// Function for converting uint256 to string\n\tfunction toString(uint256 value) internal pure returns (string memory) {\n\t    // Inspired by OraclizeAPI's implementation - MIT license\n\t    // https://github.com/oraclize/ethereum-api/blob/b42146b063c7d6ee1358846c198246239e9360e8/oraclizeAPI_0.4.25.sol\n\n\t        if (value == 0) {\n\t            return \"0\";\n\t        }\n\t        uint256 temp = value;\n\t        uint256 digits;\n\t        while (temp != 0) {\n\t            digits++;\n\t            temp /= 10;\n\t        }\n\t        bytes memory buffer = new bytes(digits);\n\t        while (value != 0) {\n\t            digits -= 1;\n\t            buffer[digits] = bytes1(uint8(48 + uint256(value % 10)));\n\t            value /= 10;\n\t        }\n\t        return string(buffer);\n\t    }\n\n}\n\n",
  "sourcePath": "/home/rani/truffle-project/contracts/YetiMinter.sol",
  "compiler": {
    "name": "solc",
    "version": "0.8.11+commit.d7f03943.Emscripten.clang"
  },
  "schemaVersion": "3.4.4",
  "updatedAt": "2022-02-10T11:02:03.785Z",
  "networkType": "ethereum",
  "devdoc": {
    "kind": "dev",
    "methods": {},
    "version": 1
  },
  "userdoc": {
    "kind": "user",
    "methods": {},
    "version": 1
  }
}