{
  "contractName": "YetiMinter",
  "abi": [
    {
      "inputs": [],
      "stateMutability": "nonpayable",
      "type": "constructor"
    },
    {
      "anonymous": false,
      "inputs": [
        {
          "indexed": true,
          "internalType": "address",
          "name": "owner",
          "type": "address"
        },
        {
          "indexed": true,
          "internalType": "address",
          "name": "approved",
          "type": "address"
        },
        {
          "indexed": true,
          "internalType": "uint256",
          "name": "tokenId",
          "type": "uint256"
        }
      ],
      "name": "Approval",
      "type": "event"
    },
    {
      "anonymous": false,
      "inputs": [
        {
          "indexed": true,
          "internalType": "address",
          "name": "owner",
          "type": "address"
        },
        {
          "indexed": true,
          "internalType": "address",
          "name": "operator",
          "type": "address"
        },
        {
          "indexed": false,
          "internalType": "bool",
          "name": "approved",
          "type": "bool"
        }
      ],
      "name": "ApprovalForAll",
      "type": "event"
    },
    {
      "anonymous": false,
      "inputs": [
        {
          "indexed": true,
          "internalType": "address",
          "name": "from",
          "type": "address"
        },
        {
          "indexed": true,
          "internalType": "address",
          "name": "to",
          "type": "address"
        },
        {
          "indexed": true,
          "internalType": "uint256",
          "name": "tokenId",
          "type": "uint256"
        }
      ],
      "name": "Transfer",
      "type": "event"
    },
    {
      "inputs": [
        {
          "internalType": "address",
          "name": "to",
          "type": "address"
        },
        {
          "internalType": "uint256",
          "name": "tokenId",
          "type": "uint256"
        }
      ],
      "name": "approve",
      "outputs": [],
      "stateMutability": "nonpayable",
      "type": "function"
    },
    {
      "inputs": [
        {
          "internalType": "address",
          "name": "owner",
          "type": "address"
        }
      ],
      "name": "balanceOf",
      "outputs": [
        {
          "internalType": "uint256",
          "name": "",
          "type": "uint256"
        }
      ],
      "stateMutability": "view",
      "type": "function"
    },
    {
      "inputs": [
        {
          "internalType": "uint256",
          "name": "tokenId",
          "type": "uint256"
        }
      ],
      "name": "getApproved",
      "outputs": [
        {
          "internalType": "address",
          "name": "",
          "type": "address"
        }
      ],
      "stateMutability": "view",
      "type": "function"
    },
    {
      "inputs": [
        {
          "internalType": "address",
          "name": "owner",
          "type": "address"
        },
        {
          "internalType": "address",
          "name": "operator",
          "type": "address"
        }
      ],
      "name": "isApprovedForAll",
      "outputs": [
        {
          "internalType": "bool",
          "name": "",
          "type": "bool"
        }
      ],
      "stateMutability": "view",
      "type": "function"
    },
    {
      "inputs": [],
      "name": "name",
      "outputs": [
        {
          "internalType": "string",
          "name": "",
          "type": "string"
        }
      ],
      "stateMutability": "view",
      "type": "function"
    },
    {
      "inputs": [
        {
          "internalType": "uint256",
          "name": "tokenId",
          "type": "uint256"
        }
      ],
      "name": "ownerOf",
      "outputs": [
        {
          "internalType": "address",
          "name": "",
          "type": "address"
        }
      ],
      "stateMutability": "view",
      "type": "function"
    },
    {
      "inputs": [
        {
          "internalType": "address",
          "name": "from",
          "type": "address"
        },
        {
          "internalType": "address",
          "name": "to",
          "type": "address"
        },
        {
          "internalType": "uint256",
          "name": "tokenId",
          "type": "uint256"
        }
      ],
      "name": "safeTransferFrom",
      "outputs": [],
      "stateMutability": "nonpayable",
      "type": "function"
    },
    {
      "inputs": [
        {
          "internalType": "address",
          "name": "from",
          "type": "address"
        },
        {
          "internalType": "address",
          "name": "to",
          "type": "address"
        },
        {
          "internalType": "uint256",
          "name": "tokenId",
          "type": "uint256"
        },
        {
          "internalType": "bytes",
          "name": "_data",
          "type": "bytes"
        }
      ],
      "name": "safeTransferFrom",
      "outputs": [],
      "stateMutability": "nonpayable",
      "type": "function"
    },
    {
      "inputs": [
        {
          "internalType": "address",
          "name": "operator",
          "type": "address"
        },
        {
          "internalType": "bool",
          "name": "approved",
          "type": "bool"
        }
      ],
      "name": "setApprovalForAll",
      "outputs": [],
      "stateMutability": "nonpayable",
      "type": "function"
    },
    {
      "inputs": [
        {
          "internalType": "bytes4",
          "name": "interfaceId",
          "type": "bytes4"
        }
      ],
      "name": "supportsInterface",
      "outputs": [
        {
          "internalType": "bool",
          "name": "",
          "type": "bool"
        }
      ],
      "stateMutability": "view",
      "type": "function"
    },
    {
      "inputs": [],
      "name": "symbol",
      "outputs": [
        {
          "internalType": "string",
          "name": "",
          "type": "string"
        }
      ],
      "stateMutability": "view",
      "type": "function"
    },
    {
      "inputs": [
        {
          "internalType": "uint256",
          "name": "index",
          "type": "uint256"
        }
      ],
      "name": "tokenByIndex",
      "outputs": [
        {
          "internalType": "uint256",
          "name": "",
          "type": "uint256"
        }
      ],
      "stateMutability": "view",
      "type": "function"
    },
    {
      "inputs": [
        {
          "internalType": "address",
          "name": "owner",
          "type": "address"
        },
        {
          "internalType": "uint256",
          "name": "index",
          "type": "uint256"
        }
      ],
      "name": "tokenOfOwnerByIndex",
      "outputs": [
        {
          "internalType": "uint256",
          "name": "",
          "type": "uint256"
        }
      ],
      "stateMutability": "view",
      "type": "function"
    },
    {
      "inputs": [
        {
          "internalType": "uint256",
          "name": "tokenId",
          "type": "uint256"
        }
      ],
      "name": "tokenURI",
      "outputs": [
        {
          "internalType": "string",
          "name": "",
          "type": "string"
        }
      ],
      "stateMutability": "view",
      "type": "function"
    },
    {
      "inputs": [],
      "name": "totalSupply",
      "outputs": [
        {
          "internalType": "uint256",
          "name": "",
          "type": "uint256"
        }
      ],
      "stateMutability": "view",
      "type": "function"
    },
    {
      "inputs": [
        {
          "internalType": "address",
          "name": "from",
          "type": "address"
        },
        {
          "internalType": "address",
          "name": "to",
          "type": "address"
        },
        {
          "internalType": "uint256",
          "name": "tokenId",
          "type": "uint256"
        }
      ],
      "name": "transferFrom",
      "outputs": [],
      "stateMutability": "nonpayable",
      "type": "function"
    },
    {
      "inputs": [],
      "name": "mintYeti",
      "outputs": [],
      "stateMutability": "nonpayable",
      "type": "function"
    }
  ],
  "bytecode": "0x60806040526101a4600a556040518060e001604052806040518060400160405280600681526020017f4265616e6965000000000000000000000000000000000000000000000000000081525081526020016040518060400160405280600681526020017f426f77746965000000000000000000000000000000000000000000000000000081525081526020016040518060400160405280600981526020017f436967617265747465000000000000000000000000000000000000000000000081525081526020016040518060400160405280600981526020017f4661737420466f6f64000000000000000000000000000000000000000000000081525081526020016040518060400160405280600a81526020017f4865616470686f6e65730000000000000000000000000000000000000000000081525081526020016040518060400160405280600481526020017f4e6f6e650000000000000000000000000000000000000000000000000000000081525081526020016040518060400160405280600d81526020017f4e6f7365205069657263696e6700000000000000000000000000000000000000815250815250600c906007620001c292919062002422565b506040518061012001604052806040518060400160405280600a81526020017f416e67727920457965730000000000000000000000000000000000000000000081525081526020016040518060400160405280600a81526020017f426f72656420457965730000000000000000000000000000000000000000000081525081526020016040518060400160405280600981526020017f457965205061746368000000000000000000000000000000000000000000000081525081526020016040518060400160405280600781526020017f476c61737365730000000000000000000000000000000000000000000000000081525081526020016040518060400160405280600a81526020017f486170707920457965730000000000000000000000000000000000000000000081525081526020016040518060400160405280600b81526020017f4e6f726d616c204579657300000000000000000000000000000000000000000081525081526020016040518060400160405280600b81526020017f506973736564204579657300000000000000000000000000000000000000000081525081526020016040518060400160405280600681526020017f536861646573000000000000000000000000000000000000000000000000000081525081526020016040518060400160405280600d81526020017f536c656570696e67204579657300000000000000000000000000000000000000815250815250600d906009620003f292919062002489565b506040518061014001604052806040518060400160405280600981526020017f426569676520467572000000000000000000000000000000000000000000000081525081526020016040518060400160405280600881526020017f426c75652046757200000000000000000000000000000000000000000000000081525081526020016040518060400160405280601081526020017f426c75652046757220537472697065640000000000000000000000000000000081525081526020016040518060400160405280600881526020017f477261792046757200000000000000000000000000000000000000000000000081525081526020016040518060400160405280601281526020017f477261792046757220436865636b65726564000000000000000000000000000081525081526020016040518060400160405280600881526020017f477261792046757200000000000000000000000000000000000000000000000081525081526020016040518060400160405280600d81526020017f506978656c61746564204675720000000000000000000000000000000000000081525081526020016040518060400160405280600b81526020017f5261696e626f772046757200000000000000000000000000000000000000000081525081526020016040518060400160405280600981526020017f576869746520467572000000000000000000000000000000000000000000000081525081526020016040518060400160405280601181526020017f5768697465204675722053747269706564000000000000000000000000000000815250815250600e90600a6200065d929190620024f0565b506040518060a001604052806040518060400160405280600b81526020017f426c61636b20486f726e7300000000000000000000000000000000000000000081525081526020016040518060400160405280600a81526020017f426c756520486f726e730000000000000000000000000000000000000000000081525081526020016040518060400160405280600c81526020017f4f72616e676520486f726e73000000000000000000000000000000000000000081525081526020016040518060400160405280600981526020017f52656420486f726e73000000000000000000000000000000000000000000000081525081526020016040518060400160405280600c81526020017f59656c6c6f7720486f726e730000000000000000000000000000000000000000815250815250600f906005620007a092919062002557565b506040518060e001604052806040518060400160405280600b81526020017f4861707079204d6f75746800000000000000000000000000000000000000000081525081526020016040518060400160405280600c81526020017f4e6f726d616c204d6f757468000000000000000000000000000000000000000081525081526020016040518060400160405280600d81526020017f5261696e626f77204d6f7574680000000000000000000000000000000000000081525081526020016040518060400160405280601481526020017f5261696e626f77204d6f7574682057617665203100000000000000000000000081525081526020016040518060400160405280601481526020017f5261696e626f77204d6f7574682057617665203200000000000000000000000081525081526020016040518060400160405280600981526020017f536164204d6f757468000000000000000000000000000000000000000000000081525081526020016040518060400160405280600581526020017f546565746800000000000000000000000000000000000000000000000000000081525081525060109060076200095992919062002422565b506040518060c001604052806040518060400160405280600981526020017f426c756520536b696e000000000000000000000000000000000000000000000081525081526020016040518060400160405280600e81526020017f4461726b20426c756520536b696e00000000000000000000000000000000000081525081526020016040518060400160405280600a81526020017f477265656e20536b696e0000000000000000000000000000000000000000000081525081526020016040518060400160405280600b81526020017f4f72616e676520536b696e00000000000000000000000000000000000000000081525081526020016040518060400160405280600981526020017f50696e6b20536b696e000000000000000000000000000000000000000000000081525081526020016040518060400160405280600b81526020017f507572706c6520536b696e000000000000000000000000000000000000000000815250815250601190600662000ad7929190620025be565b5034801562000ae557600080fd5b506040518060400160405280600781526020017f546573744e4654000000000000000000000000000000000000000000000000008152506040518060400160405280600281526020017f544e000000000000000000000000000000000000000000000000000000000000815250816000908051906020019062000b6a92919062002625565b50806001908051906020019062000b8392919062002625565b50505060005b600a5481101562000bba5762000ba462000bc160201b60201c565b808062000bb1906200277c565b91505062000b89565b5062002e88565b600a5462000bd46200180f60201b60201c565b111562000be057600080fd5b600062000bf26200180f60201b60201c565b9050600b6040518060c00160405280600c62000d26856040518060400160405280600b81526020017f4143434553534f52494553000000000000000000000000000000000000000000815250600c805480602002602001604051908101604052809291908181526020016000905b8282101562000d1657838290600052602060002001805462000c8290620027f9565b80601f016020809104026020016040519081016040528092919081815260200182805462000cb090620027f9565b801562000d015780601f1062000cd55761010080835404028352916020019162000d01565b820191906000526020600020905b81548152906001019060200180831162000ce357829003601f168201915b50505050508152602001906001019062000c60565b505050506200181c60201b60201c565b8154811062000d3a5762000d396200282f565b5b90600052602060002001805462000d5190620027f9565b80601f016020809104026020016040519081016040528092919081815260200182805462000d7f90620027f9565b801562000dd05780601f1062000da45761010080835404028352916020019162000dd0565b820191906000526020600020905b81548152906001019060200180831162000db257829003601f168201915b50505050508152602001600d62000eff856040518060400160405280600481526020017f4559455300000000000000000000000000000000000000000000000000000000815250600d805480602002602001604051908101604052809291908181526020016000905b8282101562000eef57838290600052602060002001805462000e5b90620027f9565b80601f016020809104026020016040519081016040528092919081815260200182805462000e8990620027f9565b801562000eda5780601f1062000eae5761010080835404028352916020019162000eda565b820191906000526020600020905b81548152906001019060200180831162000ebc57829003601f168201915b50505050508152602001906001019062000e39565b505050506200181c60201b60201c565b8154811062000f135762000f126200282f565b5b90600052602060002001805462000f2a90620027f9565b80601f016020809104026020016040519081016040528092919081815260200182805462000f5890620027f9565b801562000fa95780601f1062000f7d5761010080835404028352916020019162000fa9565b820191906000526020600020905b81548152906001019060200180831162000f8b57829003601f168201915b50505050508152602001600e620010d8856040518060400160405280600381526020017f4655520000000000000000000000000000000000000000000000000000000000815250600e805480602002602001604051908101604052809291908181526020016000905b82821015620010c85783829060005260206000200180546200103490620027f9565b80601f01602080910402602001604051908101604052809291908181526020018280546200106290620027f9565b8015620010b35780601f106200108757610100808354040283529160200191620010b3565b820191906000526020600020905b8154815290600101906020018083116200109557829003601f168201915b50505050508152602001906001019062001012565b505050506200181c60201b60201c565b81548110620010ec57620010eb6200282f565b5b9060005260206000200180546200110390620027f9565b80601f01602080910402602001604051908101604052809291908181526020018280546200113190620027f9565b8015620011825780601f10620011565761010080835404028352916020019162001182565b820191906000526020600020905b8154815290600101906020018083116200116457829003601f168201915b50505050508152602001600f620012b1856040518060400160405280600581526020017f484f524e53000000000000000000000000000000000000000000000000000000815250600f805480602002602001604051908101604052809291908181526020016000905b82821015620012a15783829060005260206000200180546200120d90620027f9565b80601f01602080910402602001604051908101604052809291908181526020018280546200123b90620027f9565b80156200128c5780601f1062001260576101008083540402835291602001916200128c565b820191906000526020600020905b8154815290600101906020018083116200126e57829003601f168201915b505050505081526020019060010190620011eb565b505050506200181c60201b60201c565b81548110620012c557620012c46200282f565b5b906000526020600020018054620012dc90620027f9565b80601f01602080910402602001604051908101604052809291908181526020018280546200130a90620027f9565b80156200135b5780601f106200132f576101008083540402835291602001916200135b565b820191906000526020600020905b8154815290600101906020018083116200133d57829003601f168201915b5050505050815260200160106200148a856040518060400160405280600581526020017f4d4f5554480000000000000000000000000000000000000000000000000000008152506010805480602002602001604051908101604052809291908181526020016000905b828210156200147a578382906000526020600020018054620013e690620027f9565b80601f01602080910402602001604051908101604052809291908181526020018280546200141490620027f9565b8015620014655780601f10620014395761010080835404028352916020019162001465565b820191906000526020600020905b8154815290600101906020018083116200144757829003601f168201915b505050505081526020019060010190620013c4565b505050506200181c60201b60201c565b815481106200149e576200149d6200282f565b5b906000526020600020018054620014b590620027f9565b80601f0160208091040260200160405190810160405280929190818152602001828054620014e390620027f9565b8015620015345780601f10620015085761010080835404028352916020019162001534565b820191906000526020600020905b8154815290600101906020018083116200151657829003601f168201915b50505050508152602001601162001663856040518060400160405280600481526020017f534b494e000000000000000000000000000000000000000000000000000000008152506011805480602002602001604051908101604052809291908181526020016000905b8282101562001653578382906000526020600020018054620015bf90620027f9565b80601f0160208091040260200160405190810160405280929190818152602001828054620015ed90620027f9565b80156200163e5780601f1062001612576101008083540402835291602001916200163e565b820191906000526020600020905b8154815290600101906020018083116200162057829003601f168201915b5050505050815260200190600101906200159d565b505050506200181c60201b60201c565b815481106200167757620016766200282f565b5b9060005260206000200180546200168e90620027f9565b80601f0160208091040260200160405190810160405280929190818152602001828054620016bc90620027f9565b80156200170d5780601f10620016e1576101008083540402835291602001916200170d565b820191906000526020600020905b815481529060010190602001808311620016ef57829003601f168201915b5050505050815250908060018154018082558091505060019003906000526020600020906006020160009091909190915060008201518160000190805190602001906200175c92919062002625565b5060208201518160010190805190602001906200177b92919062002625565b5060408201518160020190805190602001906200179a92919062002625565b506060820151816003019080519060200190620017b992919062002625565b506080820151816004019080519060200190620017d892919062002625565b5060a0820151816005019080519060200190620017f792919062002625565b5050506200180c33826200189f60201b60201c565b50565b6000600880549050905090565b6000806200183085620018c560201b60201c565b8460405160200162001844929190620028e1565b60405160208183030381529060405290506000816040516020016200186a919062002909565b6040516020818303038152906040528051906020012060001c905083518162001894919062002951565b925050509392505050565b620018c182826040518060200160405280600081525062001a3f60201b60201c565b5050565b606060008214156200190f576040518060400160405280600181526020017f3000000000000000000000000000000000000000000000000000000000000000815250905062001a3a565b600082905060005b60008214620019475780806200192d906200277c565b915050600a826200193f919062002989565b915062001917565b60008167ffffffffffffffff811115620019665762001965620029c1565b5b6040519080825280601f01601f191660200182016040528015620019995781602001600182028036833780820191505090505b5090505b6000851462001a3357600182620019b59190620029f0565b9150600a85620019c6919062002951565b6030620019d4919062002a2b565b60f81b818381518110620019ed57620019ec6200282f565b5b60200101907effffffffffffffffffffffffffffffffffffffffffffffffffffffffffffff1916908160001a905350600a8562001a2b919062002989565b94506200199d565b8093505050505b919050565b62001a51838362001aad60201b60201c565b62001a66600084848462001ca760201b60201c565b62001aa8576040517f08c379a000000000000000000000000000000000000000000000000000000000815260040162001a9f9062002b0f565b60405180910390fd5b505050565b600073ffffffffffffffffffffffffffffffffffffffff168273ffffffffffffffffffffffffffffffffffffffff16141562001b20576040517f08c379a000000000000000000000000000000000000000000000000000000000815260040162001b179062002b81565b60405180910390fd5b62001b318162001e5160201b60201c565b1562001b74576040517f08c379a000000000000000000000000000000000000000000000000000000000815260040162001b6b9062002bf3565b60405180910390fd5b62001b886000838362001ebd60201b60201c565b6001600360008473ffffffffffffffffffffffffffffffffffffffff1673ffffffffffffffffffffffffffffffffffffffff168152602001908152602001600020600082825462001bda919062002a2b565b92505081905550816002600083815260200190815260200160002060006101000a81548173ffffffffffffffffffffffffffffffffffffffff021916908373ffffffffffffffffffffffffffffffffffffffff160217905550808273ffffffffffffffffffffffffffffffffffffffff16600073ffffffffffffffffffffffffffffffffffffffff167fddf252ad1be2c89b69c2b068fc378daa952ba7f163c4a11628f55a4df523b3ef60405160405180910390a462001ca3600083836200200460201b60201c565b5050565b600062001cd58473ffffffffffffffffffffffffffffffffffffffff166200200960201b620016f61760201c565b1562001e44578373ffffffffffffffffffffffffffffffffffffffff1663150b7a0262001d076200202c60201b60201c565b8786866040518563ffffffff1660e01b815260040162001d2b949392919062002cd9565b6020604051808303816000875af192505050801562001d6a57506040513d601f19601f8201168201806040525081019062001d67919062002d8f565b60015b62001df3573d806000811462001d9d576040519150601f19603f3d011682016040523d82523d6000602084013e62001da2565b606091505b5060008151141562001deb576040517f08c379a000000000000000000000000000000000000000000000000000000000815260040162001de29062002b0f565b60405180910390fd5b805181602001fd5b63150b7a0260e01b7bffffffffffffffffffffffffffffffffffffffffffffffffffffffff1916817bffffffffffffffffffffffffffffffffffffffffffffffffffffffff19161491505062001e49565b600190505b949350505050565b60008073ffffffffffffffffffffffffffffffffffffffff166002600084815260200190815260200160002060009054906101000a900473ffffffffffffffffffffffffffffffffffffffff1673ffffffffffffffffffffffffffffffffffffffff1614159050919050565b62001ed58383836200203460201b620017191760201c565b600073ffffffffffffffffffffffffffffffffffffffff168373ffffffffffffffffffffffffffffffffffffffff16141562001f225762001f1c816200203960201b60201c565b62001f6a565b8173ffffffffffffffffffffffffffffffffffffffff168373ffffffffffffffffffffffffffffffffffffffff161462001f695762001f6883826200208260201b60201c565b5b5b600073ffffffffffffffffffffffffffffffffffffffff168273ffffffffffffffffffffffffffffffffffffffff16141562001fb75762001fb181620021ff60201b60201c565b62001fff565b8273ffffffffffffffffffffffffffffffffffffffff168273ffffffffffffffffffffffffffffffffffffffff161462001ffe5762001ffd8282620022db60201b60201c565b5b5b505050565b505050565b6000808273ffffffffffffffffffffffffffffffffffffffff163b119050919050565b600033905090565b505050565b6008805490506009600083815260200190815260200160002081905550600881908060018154018082558091505060019003906000526020600020016000909190919091505550565b600060016200209c846200236760201b620013f91760201c565b620020a89190620029f0565b90506000600760008481526020019081526020016000205490508181146200218e576000600660008673ffffffffffffffffffffffffffffffffffffffff1673ffffffffffffffffffffffffffffffffffffffff168152602001908152602001600020600084815260200190815260200160002054905080600660008773ffffffffffffffffffffffffffffffffffffffff1673ffffffffffffffffffffffffffffffffffffffff168152602001908152602001600020600084815260200190815260200160002081905550816007600083815260200190815260200160002081905550505b6007600084815260200190815260200160002060009055600660008573ffffffffffffffffffffffffffffffffffffffff1673ffffffffffffffffffffffffffffffffffffffff16815260200190815260200160002060008381526020019081526020016000206000905550505050565b60006001600880549050620022159190620029f0565b90506000600960008481526020019081526020016000205490506000600883815481106200224857620022476200282f565b5b9060005260206000200154905080600883815481106200226d576200226c6200282f565b5b906000526020600020018190555081600960008381526020019081526020016000208190555060096000858152602001908152602001600020600090556008805480620022bf57620022be62002dc1565b5b6001900381819060005260206000200160009055905550505050565b6000620022f3836200236760201b620013f91760201c565b905081600660008573ffffffffffffffffffffffffffffffffffffffff1673ffffffffffffffffffffffffffffffffffffffff168152602001908152602001600020600083815260200190815260200160002081905550806007600084815260200190815260200160002081905550505050565b60008073ffffffffffffffffffffffffffffffffffffffff168273ffffffffffffffffffffffffffffffffffffffff161415620023db576040517f08c379a0000000000000000000000000000000000000000000000000000000008152600401620023d29062002e66565b60405180910390fd5b600360008373ffffffffffffffffffffffffffffffffffffffff1673ffffffffffffffffffffffffffffffffffffffff168152602001908152602001600020549050919050565b82805482825590600052602060002090810192821562002476579160200282015b82811115620024755782518290805190602001906200246492919062002625565b509160200191906001019062002443565b5b509050620024859190620026b6565b5090565b828054828255906000526020600020908101928215620024dd579160200282015b82811115620024dc578251829080519060200190620024cb92919062002625565b5091602001919060010190620024aa565b5b509050620024ec9190620026b6565b5090565b82805482825590600052602060002090810192821562002544579160200282015b82811115620025435782518290805190602001906200253292919062002625565b509160200191906001019062002511565b5b509050620025539190620026b6565b5090565b828054828255906000526020600020908101928215620025ab579160200282015b82811115620025aa5782518290805190602001906200259992919062002625565b509160200191906001019062002578565b5b509050620025ba9190620026b6565b5090565b82805482825590600052602060002090810192821562002612579160200282015b82811115620026115782518290805190602001906200260092919062002625565b5091602001919060010190620025df565b5b509050620026219190620026b6565b5090565b8280546200263390620027f9565b90600052602060002090601f016020900481019282620026575760008555620026a3565b82601f106200267257805160ff1916838001178555620026a3565b82800160010185558215620026a3579182015b82811115620026a257825182559160200191906001019062002685565b5b509050620026b29190620026de565b5090565b5b80821115620026da5760008181620026d09190620026fd565b50600101620026b7565b5090565b5b80821115620026f9576000816000905550600101620026df565b5090565b5080546200270b90620027f9565b6000825580601f106200271f575062002740565b601f0160209004906000526020600020908101906200273f9190620026de565b5b50565b7f4e487b7100000000000000000000000000000000000000000000000000000000600052601160045260246000fd5b6000819050919050565b6000620027898262002772565b91507fffffffffffffffffffffffffffffffffffffffffffffffffffffffffffffffff821415620027bf57620027be62002743565b5b600182019050919050565b7f4e487b7100000000000000000000000000000000000000000000000000000000600052602260045260246000fd5b600060028204905060018216806200281257607f821691505b60208210811415620028295762002828620027ca565b5b50919050565b7f4e487b7100000000000000000000000000000000000000000000000000000000600052603260045260246000fd5b600081519050919050565b600081905092915050565b60005b838110156200289457808201518184015260208101905062002877565b83811115620028a4576000848401525b50505050565b6000620028b7826200285e565b620028c3818562002869565b9350620028d581856020860162002874565b80840191505092915050565b6000620028ef8285620028aa565b9150620028fd8284620028aa565b91508190509392505050565b6000620029178284620028aa565b915081905092915050565b7f4e487b7100000000000000000000000000000000000000000000000000000000600052601260045260246000fd5b60006200295e8262002772565b91506200296b8362002772565b9250826200297e576200297d62002922565b5b828206905092915050565b6000620029968262002772565b9150620029a38362002772565b925082620029b657620029b562002922565b5b828204905092915050565b7f4e487b7100000000000000000000000000000000000000000000000000000000600052604160045260246000fd5b6000620029fd8262002772565b915062002a0a8362002772565b92508282101562002a205762002a1f62002743565b5b828203905092915050565b600062002a388262002772565b915062002a458362002772565b9250827fffffffffffffffffffffffffffffffffffffffffffffffffffffffffffffffff0382111562002a7d5762002a7c62002743565b5b828201905092915050565b600082825260208201905092915050565b7f4552433732313a207472616e7366657220746f206e6f6e20455243373231526560008201527f63656976657220696d706c656d656e7465720000000000000000000000000000602082015250565b600062002af760328362002a88565b915062002b048262002a99565b604082019050919050565b6000602082019050818103600083015262002b2a8162002ae8565b9050919050565b7f4552433732313a206d696e7420746f20746865207a65726f2061646472657373600082015250565b600062002b6960208362002a88565b915062002b768262002b31565b602082019050919050565b6000602082019050818103600083015262002b9c8162002b5a565b9050919050565b7f4552433732313a20746f6b656e20616c7265616479206d696e74656400000000600082015250565b600062002bdb601c8362002a88565b915062002be88262002ba3565b602082019050919050565b6000602082019050818103600083015262002c0e8162002bcc565b9050919050565b600073ffffffffffffffffffffffffffffffffffffffff82169050919050565b600062002c428262002c15565b9050919050565b62002c548162002c35565b82525050565b62002c658162002772565b82525050565b600081519050919050565b600082825260208201905092915050565b6000601f19601f8301169050919050565b600062002ca58262002c6b565b62002cb1818562002c76565b935062002cc381856020860162002874565b62002cce8162002c87565b840191505092915050565b600060808201905062002cf0600083018762002c49565b62002cff602083018662002c49565b62002d0e604083018562002c5a565b818103606083015262002d22818462002c98565b905095945050505050565b600080fd5b60007fffffffff0000000000000000000000000000000000000000000000000000000082169050919050565b62002d698162002d32565b811462002d7557600080fd5b50565b60008151905062002d898162002d5e565b92915050565b60006020828403121562002da85762002da762002d2d565b5b600062002db88482850162002d78565b91505092915050565b7f4e487b7100000000000000000000000000000000000000000000000000000000600052603160045260246000fd5b7f4552433732313a2062616c616e636520717565727920666f7220746865207a6560008201527f726f206164647265737300000000000000000000000000000000000000000000602082015250565b600062002e4e602a8362002a88565b915062002e5b8262002df0565b604082019050919050565b6000602082019050818103600083015262002e818162002e3f565b9050919050565b613ce38062002e986000396000f3fe608060405234801561001057600080fd5b506004361061010b5760003560e01c8063453f4830116100a257806395d89b411161007157806395d89b41146102ca578063a22cb465146102e8578063b88d4fde14610304578063c87b56dd14610320578063e985e9c5146103505761010b565b8063453f4830146102305780634f6ccce71461023a5780636352211e1461026a57806370a082311461029a5761010b565b806318160ddd116100de57806318160ddd146101aa57806323b872dd146101c85780632f745c59146101e457806342842e0e146102145761010b565b806301ffc9a71461011057806306fdde0314610140578063081812fc1461015e578063095ea7b31461018e575b600080fd5b61012a60048036038101906101259190612afc565b610380565b6040516101379190612b44565b60405180910390f35b6101486103fa565b6040516101559190612bf8565b60405180910390f35b61017860048036038101906101739190612c50565b61048c565b6040516101859190612cbe565b60405180910390f35b6101a860048036038101906101a39190612d05565b610511565b005b6101b2610629565b6040516101bf9190612d54565b60405180910390f35b6101e260048036038101906101dd9190612d6f565b610636565b005b6101fe60048036038101906101f99190612d05565b610696565b60405161020b9190612d54565b60405180910390f35b61022e60048036038101906102299190612d6f565b61073b565b005b61023861075b565b005b610254600480360381019061024f9190612c50565b6112d6565b6040516102619190612d54565b60405180910390f35b610284600480360381019061027f9190612c50565b611347565b6040516102919190612cbe565b60405180910390f35b6102b460048036038101906102af9190612dc2565b6113f9565b6040516102c19190612d54565b60405180910390f35b6102d26114b1565b6040516102df9190612bf8565b60405180910390f35b61030260048036038101906102fd9190612e1b565b611543565b005b61031e60048036038101906103199190612f90565b611559565b005b61033a60048036038101906103359190612c50565b6115bb565b6040516103479190612bf8565b60405180910390f35b61036a60048036038101906103659190613013565b611662565b6040516103779190612b44565b60405180910390f35b60007f780e9d63000000000000000000000000000000000000000000000000000000007bffffffffffffffffffffffffffffffffffffffffffffffffffffffff1916827bffffffffffffffffffffffffffffffffffffffffffffffffffffffff191614806103f357506103f28261171e565b5b9050919050565b60606000805461040990613082565b80601f016020809104026020016040519081016040528092919081815260200182805461043590613082565b80156104825780601f1061045757610100808354040283529160200191610482565b820191906000526020600020905b81548152906001019060200180831161046557829003601f168201915b5050505050905090565b600061049782611800565b6104d6576040517f08c379a00000000000000000000000000000000000000000000000000000000081526004016104cd90613126565b60405180910390fd5b6004600083815260200190815260200160002060009054906101000a900473ffffffffffffffffffffffffffffffffffffffff169050919050565b600061051c82611347565b90508073ffffffffffffffffffffffffffffffffffffffff168373ffffffffffffffffffffffffffffffffffffffff16141561058d576040517f08c379a0000000000000000000000000000000000000000000000000000000008152600401610584906131b8565b60405180910390fd5b8073ffffffffffffffffffffffffffffffffffffffff166105ac61186c565b73ffffffffffffffffffffffffffffffffffffffff1614806105db57506105da816105d561186c565b611662565b5b61061a576040517f08c379a00000000000000000000000000000000000000000000000000000000081526004016106119061324a565b60405180910390fd5b6106248383611874565b505050565b6000600880549050905090565b61064761064161186c565b8261192d565b610686576040517f08c379a000000000000000000000000000000000000000000000000000000000815260040161067d906132dc565b60405180910390fd5b610691838383611a0b565b505050565b60006106a1836113f9565b82106106e2576040517f08c379a00000000000000000000000000000000000000000000000000000000081526004016106d99061336e565b60405180910390fd5b600660008473ffffffffffffffffffffffffffffffffffffffff1673ffffffffffffffffffffffffffffffffffffffff168152602001908152602001600020600083815260200190815260200160002054905092915050565b61075683838360405180602001604052806000815250611559565b505050565b600a54610766610629565b111561077157600080fd5b600061077b610629565b9050600b6040518060c00160405280600c61089d856040518060400160405280600b81526020017f4143434553534f52494553000000000000000000000000000000000000000000815250600c805480602002602001604051908101604052809291908181526020016000905b8282101561089457838290600052602060002001805461080790613082565b80601f016020809104026020016040519081016040528092919081815260200182805461083390613082565b80156108805780601f1061085557610100808354040283529160200191610880565b820191906000526020600020905b81548152906001019060200180831161086357829003601f168201915b5050505050815260200190600101906107e8565b50505050611c72565b815481106108ae576108ad61338e565b5b9060005260206000200180546108c390613082565b80601f01602080910402602001604051908101604052809291908181526020018280546108ef90613082565b801561093c5780601f106109115761010080835404028352916020019161093c565b820191906000526020600020905b81548152906001019060200180831161091f57829003601f168201915b50505050508152602001600d610a59856040518060400160405280600481526020017f4559455300000000000000000000000000000000000000000000000000000000815250600d805480602002602001604051908101604052809291908181526020016000905b82821015610a505783829060005260206000200180546109c390613082565b80601f01602080910402602001604051908101604052809291908181526020018280546109ef90613082565b8015610a3c5780601f10610a1157610100808354040283529160200191610a3c565b820191906000526020600020905b815481529060010190602001808311610a1f57829003601f168201915b5050505050815260200190600101906109a4565b50505050611c72565b81548110610a6a57610a6961338e565b5b906000526020600020018054610a7f90613082565b80601f0160208091040260200160405190810160405280929190818152602001828054610aab90613082565b8015610af85780601f10610acd57610100808354040283529160200191610af8565b820191906000526020600020905b815481529060010190602001808311610adb57829003601f168201915b50505050508152602001600e610c15856040518060400160405280600381526020017f4655520000000000000000000000000000000000000000000000000000000000815250600e805480602002602001604051908101604052809291908181526020016000905b82821015610c0c578382906000526020600020018054610b7f90613082565b80601f0160208091040260200160405190810160405280929190818152602001828054610bab90613082565b8015610bf85780601f10610bcd57610100808354040283529160200191610bf8565b820191906000526020600020905b815481529060010190602001808311610bdb57829003601f168201915b505050505081526020019060010190610b60565b50505050611c72565b81548110610c2657610c2561338e565b5b906000526020600020018054610c3b90613082565b80601f0160208091040260200160405190810160405280929190818152602001828054610c6790613082565b8015610cb45780601f10610c8957610100808354040283529160200191610cb4565b820191906000526020600020905b815481529060010190602001808311610c9757829003601f168201915b50505050508152602001600f610dd1856040518060400160405280600581526020017f484f524e53000000000000000000000000000000000000000000000000000000815250600f805480602002602001604051908101604052809291908181526020016000905b82821015610dc8578382906000526020600020018054610d3b90613082565b80601f0160208091040260200160405190810160405280929190818152602001828054610d6790613082565b8015610db45780601f10610d8957610100808354040283529160200191610db4565b820191906000526020600020905b815481529060010190602001808311610d9757829003601f168201915b505050505081526020019060010190610d1c565b50505050611c72565b81548110610de257610de161338e565b5b906000526020600020018054610df790613082565b80601f0160208091040260200160405190810160405280929190818152602001828054610e2390613082565b8015610e705780601f10610e4557610100808354040283529160200191610e70565b820191906000526020600020905b815481529060010190602001808311610e5357829003601f168201915b505050505081526020016010610f8d856040518060400160405280600581526020017f4d4f5554480000000000000000000000000000000000000000000000000000008152506010805480602002602001604051908101604052809291908181526020016000905b82821015610f84578382906000526020600020018054610ef790613082565b80601f0160208091040260200160405190810160405280929190818152602001828054610f2390613082565b8015610f705780601f10610f4557610100808354040283529160200191610f70565b820191906000526020600020905b815481529060010190602001808311610f5357829003601f168201915b505050505081526020019060010190610ed8565b50505050611c72565b81548110610f9e57610f9d61338e565b5b906000526020600020018054610fb390613082565b80601f0160208091040260200160405190810160405280929190818152602001828054610fdf90613082565b801561102c5780601f106110015761010080835404028352916020019161102c565b820191906000526020600020905b81548152906001019060200180831161100f57829003601f168201915b505050505081526020016011611149856040518060400160405280600481526020017f534b494e000000000000000000000000000000000000000000000000000000008152506011805480602002602001604051908101604052809291908181526020016000905b828210156111405783829060005260206000200180546110b390613082565b80601f01602080910402602001604051908101604052809291908181526020018280546110df90613082565b801561112c5780601f106111015761010080835404028352916020019161112c565b820191906000526020600020905b81548152906001019060200180831161110f57829003601f168201915b505050505081526020019060010190611094565b50505050611c72565b8154811061115a5761115961338e565b5b90600052602060002001805461116f90613082565b80601f016020809104026020016040519081016040528092919081815260200182805461119b90613082565b80156111e85780601f106111bd576101008083540402835291602001916111e8565b820191906000526020600020905b8154815290600101906020018083116111cb57829003601f168201915b5050505050815250908060018154018082558091505060019003906000526020600020906006020160009091909190915060008201518160000190805190602001906112359291906129ed565b5060208201518160010190805190602001906112529291906129ed565b50604082015181600201908051906020019061126f9291906129ed565b50606082015181600301908051906020019061128c9291906129ed565b5060808201518160040190805190602001906112a99291906129ed565b5060a08201518160050190805190602001906112c69291906129ed565b5050506112d33382611ce7565b50565b60006112e0610629565b8210611321576040517f08c379a00000000000000000000000000000000000000000000000000000000081526004016113189061342f565b60405180910390fd5b600882815481106113355761133461338e565b5b90600052602060002001549050919050565b6000806002600084815260200190815260200160002060009054906101000a900473ffffffffffffffffffffffffffffffffffffffff169050600073ffffffffffffffffffffffffffffffffffffffff168173ffffffffffffffffffffffffffffffffffffffff1614156113f0576040517f08c379a00000000000000000000000000000000000000000000000000000000081526004016113e7906134c1565b60405180910390fd5b80915050919050565b60008073ffffffffffffffffffffffffffffffffffffffff168273ffffffffffffffffffffffffffffffffffffffff16141561146a576040517f08c379a000000000000000000000000000000000000000000000000000000000815260040161146190613553565b60405180910390fd5b600360008373ffffffffffffffffffffffffffffffffffffffff1673ffffffffffffffffffffffffffffffffffffffff168152602001908152602001600020549050919050565b6060600180546114c090613082565b80601f01602080910402602001604051908101604052809291908181526020018280546114ec90613082565b80156115395780601f1061150e57610100808354040283529160200191611539565b820191906000526020600020905b81548152906001019060200180831161151c57829003601f168201915b5050505050905090565b61155561154e61186c565b8383611d05565b5050565b61156a61156461186c565b8361192d565b6115a9576040517f08c379a00000000000000000000000000000000000000000000000000000000081526004016115a0906132dc565b60405180910390fd5b6115b584848484611e72565b50505050565b60606115c682611800565b611605576040517f08c379a00000000000000000000000000000000000000000000000000000000081526004016115fc906135e5565b60405180910390fd5b600061160f611ece565b9050600081511161162f576040518060200160405280600081525061165a565b8061163984611ee5565b60405160200161164a929190613641565b6040516020818303038152906040525b915050919050565b6000600560008473ffffffffffffffffffffffffffffffffffffffff1673ffffffffffffffffffffffffffffffffffffffff16815260200190815260200160002060008373ffffffffffffffffffffffffffffffffffffffff1673ffffffffffffffffffffffffffffffffffffffff16815260200190815260200160002060009054906101000a900460ff16905092915050565b6000808273ffffffffffffffffffffffffffffffffffffffff163b119050919050565b505050565b60007f80ac58cd000000000000000000000000000000000000000000000000000000007bffffffffffffffffffffffffffffffffffffffffffffffffffffffff1916827bffffffffffffffffffffffffffffffffffffffffffffffffffffffff191614806117e957507f5b5e139f000000000000000000000000000000000000000000000000000000007bffffffffffffffffffffffffffffffffffffffffffffffffffffffff1916827bffffffffffffffffffffffffffffffffffffffffffffffffffffffff1916145b806117f957506117f882612046565b5b9050919050565b60008073ffffffffffffffffffffffffffffffffffffffff166002600084815260200190815260200160002060009054906101000a900473ffffffffffffffffffffffffffffffffffffffff1673ffffffffffffffffffffffffffffffffffffffff1614159050919050565b600033905090565b816004600083815260200190815260200160002060006101000a81548173ffffffffffffffffffffffffffffffffffffffff021916908373ffffffffffffffffffffffffffffffffffffffff160217905550808273ffffffffffffffffffffffffffffffffffffffff166118e783611347565b73ffffffffffffffffffffffffffffffffffffffff167f8c5be1e5ebec7d5bd14f71427d1e84f3dd0314c0f7b2291e5b200ac8c7c3b92560405160405180910390a45050565b600061193882611800565b611977576040517f08c379a000000000000000000000000000000000000000000000000000000000815260040161196e906136d7565b60405180910390fd5b600061198283611347565b90508073ffffffffffffffffffffffffffffffffffffffff168473ffffffffffffffffffffffffffffffffffffffff1614806119f157508373ffffffffffffffffffffffffffffffffffffffff166119d98461048c565b73ffffffffffffffffffffffffffffffffffffffff16145b80611a025750611a018185611662565b5b91505092915050565b8273ffffffffffffffffffffffffffffffffffffffff16611a2b82611347565b73ffffffffffffffffffffffffffffffffffffffff1614611a81576040517f08c379a0000000000000000000000000000000000000000000000000000000008152600401611a7890613769565b60405180910390fd5b600073ffffffffffffffffffffffffffffffffffffffff168273ffffffffffffffffffffffffffffffffffffffff161415611af1576040517f08c379a0000000000000000000000000000000000000000000000000000000008152600401611ae8906137fb565b60405180910390fd5b611afc8383836120b0565b611b07600082611874565b6001600360008573ffffffffffffffffffffffffffffffffffffffff1673ffffffffffffffffffffffffffffffffffffffff1681526020019081526020016000206000828254611b57919061384a565b925050819055506001600360008473ffffffffffffffffffffffffffffffffffffffff1673ffffffffffffffffffffffffffffffffffffffff1681526020019081526020016000206000828254611bae919061387e565b92505081905550816002600083815260200190815260200160002060006101000a81548173ffffffffffffffffffffffffffffffffffffffff021916908373ffffffffffffffffffffffffffffffffffffffff160217905550808273ffffffffffffffffffffffffffffffffffffffff168473ffffffffffffffffffffffffffffffffffffffff167fddf252ad1be2c89b69c2b068fc378daa952ba7f163c4a11628f55a4df523b3ef60405160405180910390a4611c6d8383836121c4565b505050565b600080611c7e856121c9565b84604051602001611c90929190613641565b6040516020818303038152906040529050600081604051602001611cb491906138d4565b6040516020818303038152906040528051906020012060001c9050835181611cdc919061391a565b925050509392505050565b611d0182826040518060200160405280600081525061232a565b5050565b8173ffffffffffffffffffffffffffffffffffffffff168373ffffffffffffffffffffffffffffffffffffffff161415611d74576040517f08c379a0000000000000000000000000000000000000000000000000000000008152600401611d6b90613997565b60405180910390fd5b80600560008573ffffffffffffffffffffffffffffffffffffffff1673ffffffffffffffffffffffffffffffffffffffff16815260200190815260200160002060008473ffffffffffffffffffffffffffffffffffffffff1673ffffffffffffffffffffffffffffffffffffffff16815260200190815260200160002060006101000a81548160ff0219169083151502179055508173ffffffffffffffffffffffffffffffffffffffff168373ffffffffffffffffffffffffffffffffffffffff167f17307eab39ab6107e8899845ad3d59bd9653f200f220920489ca2b5937696c3183604051611e659190612b44565b60405180910390a3505050565b611e7d848484611a0b565b611e8984848484612385565b611ec8576040517f08c379a0000000000000000000000000000000000000000000000000000000008152600401611ebf90613a29565b60405180910390fd5b50505050565b606060405180602001604052806000815250905090565b60606000821415611f2d576040518060400160405280600181526020017f30000000000000000000000000000000000000000000000000000000000000008152509050612041565b600082905060005b60008214611f5f578080611f4890613a49565b915050600a82611f589190613a92565b9150611f35565b60008167ffffffffffffffff811115611f7b57611f7a612e65565b5b6040519080825280601f01601f191660200182016040528015611fad5781602001600182028036833780820191505090505b5090505b6000851461203a57600182611fc6919061384a565b9150600a85611fd5919061391a565b6030611fe1919061387e565b60f81b818381518110611ff757611ff661338e565b5b60200101907effffffffffffffffffffffffffffffffffffffffffffffffffffffffffffff1916908160001a905350600a856120339190613a92565b9450611fb1565b8093505050505b919050565b60007f01ffc9a7000000000000000000000000000000000000000000000000000000007bffffffffffffffffffffffffffffffffffffffffffffffffffffffff1916827bffffffffffffffffffffffffffffffffffffffffffffffffffffffff1916149050919050565b6120bb838383611719565b600073ffffffffffffffffffffffffffffffffffffffff168373ffffffffffffffffffffffffffffffffffffffff1614156120fe576120f98161250d565b61213d565b8173ffffffffffffffffffffffffffffffffffffffff168373ffffffffffffffffffffffffffffffffffffffff161461213c5761213b8382612556565b5b5b600073ffffffffffffffffffffffffffffffffffffffff168273ffffffffffffffffffffffffffffffffffffffff1614156121805761217b816126c3565b6121bf565b8273ffffffffffffffffffffffffffffffffffffffff168273ffffffffffffffffffffffffffffffffffffffff16146121be576121bd8282612794565b5b5b505050565b505050565b60606000821415612211576040518060400160405280600181526020017f30000000000000000000000000000000000000000000000000000000000000008152509050612325565b600082905060005b6000821461224357808061222c90613a49565b915050600a8261223c9190613a92565b9150612219565b60008167ffffffffffffffff81111561225f5761225e612e65565b5b6040519080825280601f01601f1916602001820160405280156122915781602001600182028036833780820191505090505b5090505b6000851461231e576001826122aa919061384a565b9150600a856122b9919061391a565b60306122c5919061387e565b60f81b8183815181106122db576122da61338e565b5b60200101907effffffffffffffffffffffffffffffffffffffffffffffffffffffffffffff1916908160001a905350600a856123179190613a92565b9450612295565b8093505050505b919050565b6123348383612813565b6123416000848484612385565b612380576040517f08c379a000000000000000000000000000000000000000000000000000000000815260040161237790613a29565b60405180910390fd5b505050565b60006123a68473ffffffffffffffffffffffffffffffffffffffff166116f6565b15612500578373ffffffffffffffffffffffffffffffffffffffff1663150b7a026123cf61186c565b8786866040518563ffffffff1660e01b81526004016123f19493929190613b18565b6020604051808303816000875af192505050801561242d57506040513d601f19601f8201168201806040525081019061242a9190613b79565b60015b6124b0573d806000811461245d576040519150601f19603f3d011682016040523d82523d6000602084013e612462565b606091505b506000815114156124a8576040517f08c379a000000000000000000000000000000000000000000000000000000000815260040161249f90613a29565b60405180910390fd5b805181602001fd5b63150b7a0260e01b7bffffffffffffffffffffffffffffffffffffffffffffffffffffffff1916817bffffffffffffffffffffffffffffffffffffffffffffffffffffffff191614915050612505565b600190505b949350505050565b6008805490506009600083815260200190815260200160002081905550600881908060018154018082558091505060019003906000526020600020016000909190919091505550565b60006001612563846113f9565b61256d919061384a565b9050600060076000848152602001908152602001600020549050818114612652576000600660008673ffffffffffffffffffffffffffffffffffffffff1673ffffffffffffffffffffffffffffffffffffffff168152602001908152602001600020600084815260200190815260200160002054905080600660008773ffffffffffffffffffffffffffffffffffffffff1673ffffffffffffffffffffffffffffffffffffffff168152602001908152602001600020600084815260200190815260200160002081905550816007600083815260200190815260200160002081905550505b6007600084815260200190815260200160002060009055600660008573ffffffffffffffffffffffffffffffffffffffff1673ffffffffffffffffffffffffffffffffffffffff16815260200190815260200160002060008381526020019081526020016000206000905550505050565b600060016008805490506126d7919061384a565b90506000600960008481526020019081526020016000205490506000600883815481106127075761270661338e565b5b9060005260206000200154905080600883815481106127295761272861338e565b5b90600052602060002001819055508160096000838152602001908152602001600020819055506009600085815260200190815260200160002060009055600880548061277857612777613ba6565b5b6001900381819060005260206000200160009055905550505050565b600061279f836113f9565b905081600660008573ffffffffffffffffffffffffffffffffffffffff1673ffffffffffffffffffffffffffffffffffffffff168152602001908152602001600020600083815260200190815260200160002081905550806007600084815260200190815260200160002081905550505050565b600073ffffffffffffffffffffffffffffffffffffffff168273ffffffffffffffffffffffffffffffffffffffff161415612883576040517f08c379a000000000000000000000000000000000000000000000000000000000815260040161287a90613c21565b60405180910390fd5b61288c81611800565b156128cc576040517f08c379a00000000000000000000000000000000000000000000000000000000081526004016128c390613c8d565b60405180910390fd5b6128d8600083836120b0565b6001600360008473ffffffffffffffffffffffffffffffffffffffff1673ffffffffffffffffffffffffffffffffffffffff1681526020019081526020016000206000828254612928919061387e565b92505081905550816002600083815260200190815260200160002060006101000a81548173ffffffffffffffffffffffffffffffffffffffff021916908373ffffffffffffffffffffffffffffffffffffffff160217905550808273ffffffffffffffffffffffffffffffffffffffff16600073ffffffffffffffffffffffffffffffffffffffff167fddf252ad1be2c89b69c2b068fc378daa952ba7f163c4a11628f55a4df523b3ef60405160405180910390a46129e9600083836121c4565b5050565b8280546129f990613082565b90600052602060002090601f016020900481019282612a1b5760008555612a62565b82601f10612a3457805160ff1916838001178555612a62565b82800160010185558215612a62579182015b82811115612a61578251825591602001919060010190612a46565b5b509050612a6f9190612a73565b5090565b5b80821115612a8c576000816000905550600101612a74565b5090565b6000604051905090565b600080fd5b600080fd5b60007fffffffff0000000000000000000000000000000000000000000000000000000082169050919050565b612ad981612aa4565b8114612ae457600080fd5b50565b600081359050612af681612ad0565b92915050565b600060208284031215612b1257612b11612a9a565b5b6000612b2084828501612ae7565b91505092915050565b60008115159050919050565b612b3e81612b29565b82525050565b6000602082019050612b596000830184612b35565b92915050565b600081519050919050565b600082825260208201905092915050565b60005b83811015612b99578082015181840152602081019050612b7e565b83811115612ba8576000848401525b50505050565b6000601f19601f8301169050919050565b6000612bca82612b5f565b612bd48185612b6a565b9350612be4818560208601612b7b565b612bed81612bae565b840191505092915050565b60006020820190508181036000830152612c128184612bbf565b905092915050565b6000819050919050565b612c2d81612c1a565b8114612c3857600080fd5b50565b600081359050612c4a81612c24565b92915050565b600060208284031215612c6657612c65612a9a565b5b6000612c7484828501612c3b565b91505092915050565b600073ffffffffffffffffffffffffffffffffffffffff82169050919050565b6000612ca882612c7d565b9050919050565b612cb881612c9d565b82525050565b6000602082019050612cd36000830184612caf565b92915050565b612ce281612c9d565b8114612ced57600080fd5b50565b600081359050612cff81612cd9565b92915050565b60008060408385031215612d1c57612d1b612a9a565b5b6000612d2a85828601612cf0565b9250506020612d3b85828601612c3b565b9150509250929050565b612d4e81612c1a565b82525050565b6000602082019050612d696000830184612d45565b92915050565b600080600060608486031215612d8857612d87612a9a565b5b6000612d9686828701612cf0565b9350506020612da786828701612cf0565b9250506040612db886828701612c3b565b9150509250925092565b600060208284031215612dd857612dd7612a9a565b5b6000612de684828501612cf0565b91505092915050565b612df881612b29565b8114612e0357600080fd5b50565b600081359050612e1581612def565b92915050565b60008060408385031215612e3257612e31612a9a565b5b6000612e4085828601612cf0565b9250506020612e5185828601612e06565b9150509250929050565b600080fd5b600080fd5b7f4e487b7100000000000000000000000000000000000000000000000000000000600052604160045260246000fd5b612e9d82612bae565b810181811067ffffffffffffffff82111715612ebc57612ebb612e65565b5b80604052505050565b6000612ecf612a90565b9050612edb8282612e94565b919050565b600067ffffffffffffffff821115612efb57612efa612e65565b5b612f0482612bae565b9050602081019050919050565b82818337600083830152505050565b6000612f33612f2e84612ee0565b612ec5565b905082815260208101848484011115612f4f57612f4e612e60565b5b612f5a848285612f11565b509392505050565b600082601f830112612f7757612f76612e5b565b5b8135612f87848260208601612f20565b91505092915050565b60008060008060808587031215612faa57612fa9612a9a565b5b6000612fb887828801612cf0565b9450506020612fc987828801612cf0565b9350506040612fda87828801612c3b565b925050606085013567ffffffffffffffff811115612ffb57612ffa612a9f565b5b61300787828801612f62565b91505092959194509250565b6000806040838503121561302a57613029612a9a565b5b600061303885828601612cf0565b925050602061304985828601612cf0565b9150509250929050565b7f4e487b7100000000000000000000000000000000000000000000000000000000600052602260045260246000fd5b6000600282049050600182168061309a57607f821691505b602082108114156130ae576130ad613053565b5b50919050565b7f4552433732313a20617070726f76656420717565727920666f72206e6f6e657860008201527f697374656e7420746f6b656e0000000000000000000000000000000000000000602082015250565b6000613110602c83612b6a565b915061311b826130b4565b604082019050919050565b6000602082019050818103600083015261313f81613103565b9050919050565b7f4552433732313a20617070726f76616c20746f2063757272656e74206f776e6560008201527f7200000000000000000000000000000000000000000000000000000000000000602082015250565b60006131a2602183612b6a565b91506131ad82613146565b604082019050919050565b600060208201905081810360008301526131d181613195565b9050919050565b7f4552433732313a20617070726f76652063616c6c6572206973206e6f74206f7760008201527f6e6572206e6f7220617070726f76656420666f7220616c6c0000000000000000602082015250565b6000613234603883612b6a565b915061323f826131d8565b604082019050919050565b6000602082019050818103600083015261326381613227565b9050919050565b7f4552433732313a207472616e736665722063616c6c6572206973206e6f74206f60008201527f776e6572206e6f7220617070726f766564000000000000000000000000000000602082015250565b60006132c6603183612b6a565b91506132d18261326a565b604082019050919050565b600060208201905081810360008301526132f5816132b9565b9050919050565b7f455243373231456e756d657261626c653a206f776e657220696e646578206f7560008201527f74206f6620626f756e6473000000000000000000000000000000000000000000602082015250565b6000613358602b83612b6a565b9150613363826132fc565b604082019050919050565b600060208201905081810360008301526133878161334b565b9050919050565b7f4e487b7100000000000000000000000000000000000000000000000000000000600052603260045260246000fd5b7f455243373231456e756d657261626c653a20676c6f62616c20696e646578206f60008201527f7574206f6620626f756e64730000000000000000000000000000000000000000602082015250565b6000613419602c83612b6a565b9150613424826133bd565b604082019050919050565b600060208201905081810360008301526134488161340c565b9050919050565b7f4552433732313a206f776e657220717565727920666f72206e6f6e657869737460008201527f656e7420746f6b656e0000000000000000000000000000000000000000000000602082015250565b60006134ab602983612b6a565b91506134b68261344f565b604082019050919050565b600060208201905081810360008301526134da8161349e565b9050919050565b7f4552433732313a2062616c616e636520717565727920666f7220746865207a6560008201527f726f206164647265737300000000000000000000000000000000000000000000602082015250565b600061353d602a83612b6a565b9150613548826134e1565b604082019050919050565b6000602082019050818103600083015261356c81613530565b9050919050565b7f4552433732314d657461646174613a2055524920717565727920666f72206e6f60008201527f6e6578697374656e7420746f6b656e0000000000000000000000000000000000602082015250565b60006135cf602f83612b6a565b91506135da82613573565b604082019050919050565b600060208201905081810360008301526135fe816135c2565b9050919050565b600081905092915050565b600061361b82612b5f565b6136258185613605565b9350613635818560208601612b7b565b80840191505092915050565b600061364d8285613610565b91506136598284613610565b91508190509392505050565b7f4552433732313a206f70657261746f7220717565727920666f72206e6f6e657860008201527f697374656e7420746f6b656e0000000000000000000000000000000000000000602082015250565b60006136c1602c83612b6a565b91506136cc82613665565b604082019050919050565b600060208201905081810360008301526136f0816136b4565b9050919050565b7f4552433732313a207472616e736665722066726f6d20696e636f72726563742060008201527f6f776e6572000000000000000000000000000000000000000000000000000000602082015250565b6000613753602583612b6a565b915061375e826136f7565b604082019050919050565b6000602082019050818103600083015261378281613746565b9050919050565b7f4552433732313a207472616e7366657220746f20746865207a65726f2061646460008201527f7265737300000000000000000000000000000000000000000000000000000000602082015250565b60006137e5602483612b6a565b91506137f082613789565b604082019050919050565b60006020820190508181036000830152613814816137d8565b9050919050565b7f4e487b7100000000000000000000000000000000000000000000000000000000600052601160045260246000fd5b600061385582612c1a565b915061386083612c1a565b9250828210156138735761387261381b565b5b828203905092915050565b600061388982612c1a565b915061389483612c1a565b9250827fffffffffffffffffffffffffffffffffffffffffffffffffffffffffffffffff038211156138c9576138c861381b565b5b828201905092915050565b60006138e08284613610565b915081905092915050565b7f4e487b7100000000000000000000000000000000000000000000000000000000600052601260045260246000fd5b600061392582612c1a565b915061393083612c1a565b9250826139405761393f6138eb565b5b828206905092915050565b7f4552433732313a20617070726f766520746f2063616c6c657200000000000000600082015250565b6000613981601983612b6a565b915061398c8261394b565b602082019050919050565b600060208201905081810360008301526139b081613974565b9050919050565b7f4552433732313a207472616e7366657220746f206e6f6e20455243373231526560008201527f63656976657220696d706c656d656e7465720000000000000000000000000000602082015250565b6000613a13603283612b6a565b9150613a1e826139b7565b604082019050919050565b60006020820190508181036000830152613a4281613a06565b9050919050565b6000613a5482612c1a565b91507fffffffffffffffffffffffffffffffffffffffffffffffffffffffffffffffff821415613a8757613a8661381b565b5b600182019050919050565b6000613a9d82612c1a565b9150613aa883612c1a565b925082613ab857613ab76138eb565b5b828204905092915050565b600081519050919050565b600082825260208201905092915050565b6000613aea82613ac3565b613af48185613ace565b9350613b04818560208601612b7b565b613b0d81612bae565b840191505092915050565b6000608082019050613b2d6000830187612caf565b613b3a6020830186612caf565b613b476040830185612d45565b8181036060830152613b598184613adf565b905095945050505050565b600081519050613b7381612ad0565b92915050565b600060208284031215613b8f57613b8e612a9a565b5b6000613b9d84828501613b64565b91505092915050565b7f4e487b7100000000000000000000000000000000000000000000000000000000600052603160045260246000fd5b7f4552433732313a206d696e7420746f20746865207a65726f2061646472657373600082015250565b6000613c0b602083612b6a565b9150613c1682613bd5565b602082019050919050565b60006020820190508181036000830152613c3a81613bfe565b9050919050565b7f4552433732313a20746f6b656e20616c7265616479206d696e74656400000000600082015250565b6000613c77601c83612b6a565b9150613c8282613c41565b602082019050919050565b60006020820190508181036000830152613ca681613c6a565b905091905056fea26469706673582212207ff616752038d1da908295eccf239e13c05a02e0665106d749288dea619d3c6064736f6c634300080b0033",
  "immutableReferences": {},
  "source": "// SPDX-License-Identifier: MIT\npragma solidity >= 0.5.0;\n\nimport \"@openzeppelin/contracts/token/ERC721/extensions/ERC721Enumerable.sol\";\nimport \"@openzeppelin/contracts/access/Ownable.sol\";\nimport \"@openzeppelin/contracts/utils/math/SafeMath.sol\";\n// import \"@openzeppelin/contracts/token/ERC721/ERC721.sol\";\n\ncontract YetiMinter is ERC721Enumerable{\n\tusing SafeMath for uint256;\n\n\tuint256 MAX_SUPPLY = 420;\n\n\t\n\tstruct Yeti {\n\t\tstring accessory;\n\t\tstring eyes;\n\t\tstring fur;\n\t\tstring horns;\n\t\tstring mouth;\n\t\tstring skin;\n\t}\n\n\tYeti[] private yetis;\n\n\tstring[] private accessories = [\"Beanie\", \"Bowtie\", \"Cigarette\", \"Fast Food\",\"Headphones\", \"None\", \"Nose Piercing\"];\n\tstring[] private eyes = [\"Angry Eyes\",\"Bored Eyes\", \"Eye Patch\", \"Glasses\", \"Happy Eyes\", \"Normal Eyes\", \"Pissed Eyes\", \"Shades\", \"Sleeping Eyes\"];\n\tstring[] private fur = [\"Beige Fur\", \"Blue Fur\", \"Blue Fur Striped\", \"Gray Fur\", \"Gray Fur Checkered\", \"Gray Fur\", \"Pixelated Fur\", \"Rainbow Fur\", \"White Fur\", \"White Fur Striped\"];\n\tstring[] private horns = [\"Black Horns\", \"Blue Horns\", \"Orange Horns\", \"Red Horns\", \"Yellow Horns\"];\n\tstring[] private mouth = [\"Happy Mouth\", \"Normal Mouth\", \"Rainbow Mouth\", \"Rainbow Mouth Wave 1\", \"Rainbow Mouth Wave 2\", \"Sad Mouth\", \"Teeth\"];\n\tstring[] private skin = [\"Blue Skin\", \"Dark Blue Skin\", \"Green Skin\",  \"Orange Skin\", \"Pink Skin\", \"Purple Skin\"];\n\n\n\tconstructor() ERC721('TestNFT', 'TN') {\n\t\tfor(uint i = 0; i < MAX_SUPPLY; i++)\n\t\t\tmintYeti();\n\t}\n\n\n\t// Function to mint A new Yeti NFT.\n\tfunction mintYeti() public{\n\t\trequire(totalSupply() <= MAX_SUPPLY);\n\n\t\tuint256 mintIndex = totalSupply();\n\n\t\tyetis.push(Yeti(\n\t\t\taccessories[_generateRandomAttribute(mintIndex, \"ACCESSORIES\", accessories)],\n\t\t\teyes[_generateRandomAttribute(mintIndex, \"EYES\", eyes)], \n\t\t\tfur[_generateRandomAttribute(mintIndex, \"FUR\", fur)],\n\t\t\thorns[_generateRandomAttribute(mintIndex, \"HORNS\", horns)], \n\t\t\tmouth[_generateRandomAttribute(mintIndex, \"MOUTH\", mouth)], \n\t\t\tskin[_generateRandomAttribute(mintIndex, \"SKIN\", skin)]\n\t\t\t));\n\n\t\t_safeMint(msg.sender, mintIndex);\n\n\n\t}\n\n\tfunction _generateRandomAttribute(uint256 _yetiId, string memory _attribute, string[] memory _attributeList) private view returns(uint256) {\n\t\t// Use attribute name and NFT number to generate randomness.\n\t\t// string yetiId = toString(_yetiId);\n\t\t// string str = string( abi.encodePacked(_attribute, yetiId) );\n\t\tstring memory str = string(abi.encodePacked(toString(_yetiId), _attribute));\n\t\tuint256 rand = uint256(keccak256(abi.encodePacked(str)));\n\t\treturn rand % _attributeList.length;\n\t}\n\n\t// Function for converting uint256 to string\n\tfunction toString(uint256 value) internal pure returns (string memory) {\n\t    // Inspired by OraclizeAPI's implementation - MIT license\n\t    // https://github.com/oraclize/ethereum-api/blob/b42146b063c7d6ee1358846c198246239e9360e8/oraclizeAPI_0.4.25.sol\n\n\t        if (value == 0) {\n\t            return \"0\";\n\t        }\n\t        uint256 temp = value;\n\t        uint256 digits;\n\t        while (temp != 0) {\n\t            digits++;\n\t            temp /= 10;\n\t        }\n\t        bytes memory buffer = new bytes(digits);\n\t        while (value != 0) {\n\t            digits -= 1;\n\t            buffer[digits] = bytes1(uint8(48 + uint256(value % 10)));\n\t            value /= 10;\n\t        }\n\t        return string(buffer);\n\t    }\n\n}\n\n",
  "sourcePath": "/home/rani/truffle-project/contracts/YetiMinter.sol",
  "compiler": {
    "name": "solc",
    "version": "0.8.11+commit.d7f03943.Emscripten.clang"
  },
  "schemaVersion": "3.4.4",
  "updatedAt": "2022-02-10T14:03:39.516Z",
  "devdoc": {
    "kind": "dev",
    "methods": {
      "approve(address,uint256)": {
        "details": "See {IERC721-approve}."
      },
      "balanceOf(address)": {
        "details": "See {IERC721-balanceOf}."
      },
      "getApproved(uint256)": {
        "details": "See {IERC721-getApproved}."
      },
      "isApprovedForAll(address,address)": {
        "details": "See {IERC721-isApprovedForAll}."
      },
      "name()": {
        "details": "See {IERC721Metadata-name}."
      },
      "ownerOf(uint256)": {
        "details": "See {IERC721-ownerOf}."
      },
      "safeTransferFrom(address,address,uint256)": {
        "details": "See {IERC721-safeTransferFrom}."
      },
      "safeTransferFrom(address,address,uint256,bytes)": {
        "details": "See {IERC721-safeTransferFrom}."
      },
      "setApprovalForAll(address,bool)": {
        "details": "See {IERC721-setApprovalForAll}."
      },
      "supportsInterface(bytes4)": {
        "details": "See {IERC165-supportsInterface}."
      },
      "symbol()": {
        "details": "See {IERC721Metadata-symbol}."
      },
      "tokenByIndex(uint256)": {
        "details": "See {IERC721Enumerable-tokenByIndex}."
      },
      "tokenOfOwnerByIndex(address,uint256)": {
        "details": "See {IERC721Enumerable-tokenOfOwnerByIndex}."
      },
      "tokenURI(uint256)": {
        "details": "See {IERC721Metadata-tokenURI}."
      },
      "totalSupply()": {
        "details": "See {IERC721Enumerable-totalSupply}."
      },
      "transferFrom(address,address,uint256)": {
        "details": "See {IERC721-transferFrom}."
      }
    },
    "version": 1
  },
  "userdoc": {
    "kind": "user",
    "methods": {},
    "version": 1
  }
}